{
	"contracts/Whitelist.sol": {
		"Whitelist": {
			"abi": [
				{
					"inputs": [],
					"stateMutability": "nonpayable",
					"type": "constructor"
				},
				{
					"inputs": [
						{
							"internalType": "string",
							"name": "_email",
							"type": "string"
						}
					],
					"name": "addEmail",
					"outputs": [],
					"stateMutability": "nonpayable",
					"type": "function"
				},
				{
					"inputs": [
						{
							"internalType": "string[]",
							"name": "_emails",
							"type": "string[]"
						}
					],
					"name": "addEmailsBulk",
					"outputs": [],
					"stateMutability": "nonpayable",
					"type": "function"
				},
				{
					"inputs": [
						{
							"internalType": "address",
							"name": "_wallet",
							"type": "address"
						}
					],
					"name": "addWallet",
					"outputs": [],
					"stateMutability": "nonpayable",
					"type": "function"
				},
				{
					"inputs": [
						{
							"internalType": "address[]",
							"name": "_wallets",
							"type": "address[]"
						}
					],
					"name": "addWalletsBulk",
					"outputs": [],
					"stateMutability": "nonpayable",
					"type": "function"
				},
				{
					"inputs": [
						{
							"internalType": "string",
							"name": "_email",
							"type": "string"
						}
					],
					"name": "isEmailWhitelisted",
					"outputs": [
						{
							"internalType": "bool",
							"name": "",
							"type": "bool"
						}
					],
					"stateMutability": "view",
					"type": "function"
				},
				{
					"inputs": [
						{
							"internalType": "address",
							"name": "_wallet",
							"type": "address"
						}
					],
					"name": "isWalletWhitelisted",
					"outputs": [
						{
							"internalType": "bool",
							"name": "",
							"type": "bool"
						}
					],
					"stateMutability": "view",
					"type": "function"
				},
				{
					"inputs": [
						{
							"internalType": "address",
							"name": "_wallet",
							"type": "address"
						},
						{
							"internalType": "string",
							"name": "_email",
							"type": "string"
						}
					],
					"name": "isWhitelisted",
					"outputs": [
						{
							"internalType": "bool",
							"name": "",
							"type": "bool"
						}
					],
					"stateMutability": "view",
					"type": "function"
				},
				{
					"inputs": [],
					"name": "owner",
					"outputs": [
						{
							"internalType": "address",
							"name": "",
							"type": "address"
						}
					],
					"stateMutability": "view",
					"type": "function"
				},
				{
					"inputs": [
						{
							"internalType": "bytes32",
							"name": "",
							"type": "bytes32"
						}
					],
					"name": "whitelistedEmails",
					"outputs": [
						{
							"internalType": "bool",
							"name": "",
							"type": "bool"
						}
					],
					"stateMutability": "view",
					"type": "function"
				},
				{
					"inputs": [
						{
							"internalType": "address",
							"name": "",
							"type": "address"
						}
					],
					"name": "whitelistedWallets",
					"outputs": [
						{
							"internalType": "bool",
							"name": "",
							"type": "bool"
						}
					],
					"stateMutability": "view",
					"type": "function"
				}
			],
			"devdoc": {
				"kind": "dev",
				"methods": {},
				"version": 1
			},
			"evm": {
				"assembly": "    /* \"contracts/Whitelist.sol\":57:1895  contract Whitelist {... */\n  mstore(0x40, 0x80)\n    /* \"contracts/Whitelist.sol\":322:371  constructor() {... */\n  callvalue\n  dup1\n  iszero\n  tag_1\n  jumpi\n  0x00\n  dup1\n  revert\ntag_1:\n  pop\n    /* \"contracts/Whitelist.sol\":354:364  msg.sender */\n  caller\n    /* \"contracts/Whitelist.sol\":346:351  owner */\n  0x00\n  dup1\n    /* \"contracts/Whitelist.sol\":346:364  owner = msg.sender */\n  0x0100\n  exp\n  dup2\n  sload\n  dup2\n  0xffffffffffffffffffffffffffffffffffffffff\n  mul\n  not\n  and\n  swap1\n  dup4\n  0xffffffffffffffffffffffffffffffffffffffff\n  and\n  mul\n  or\n  swap1\n  sstore\n  pop\n    /* \"contracts/Whitelist.sol\":57:1895  contract Whitelist {... */\n  dataSize(sub_0)\n  dup1\n  dataOffset(sub_0)\n  0x00\n  codecopy\n  0x00\n  return\nstop\n\nsub_0: assembly {\n        /* \"contracts/Whitelist.sol\":57:1895  contract Whitelist {... */\n      mstore(0x40, 0x80)\n      callvalue\n      dup1\n      iszero\n      tag_1\n      jumpi\n      0x00\n      dup1\n      revert\n    tag_1:\n      pop\n      jumpi(tag_2, lt(calldatasize, 0x04))\n      shr(0xe0, calldataload(0x00))\n      dup1\n      0xaac8f967\n      gt\n      tag_13\n      jumpi\n      dup1\n      0xaac8f967\n      eq\n      tag_8\n      jumpi\n      dup1\n      0xc1233d61\n      eq\n      tag_9\n      jumpi\n      dup1\n      0xefeb5f1f\n      eq\n      tag_10\n      jumpi\n      dup1\n      0xfaa7d287\n      eq\n      tag_11\n      jumpi\n      dup1\n      0xfcf6389a\n      eq\n      tag_12\n      jumpi\n      jump(tag_2)\n    tag_13:\n      dup1\n      0x836832da\n      eq\n      tag_3\n      jumpi\n      dup1\n      0x85db9d2c\n      eq\n      tag_4\n      jumpi\n      dup1\n      0x89aae99a\n      eq\n      tag_5\n      jumpi\n      dup1\n      0x8da5cb5b\n      eq\n      tag_6\n      jumpi\n      dup1\n      0xa80dcfee\n      eq\n      tag_7\n      jumpi\n    tag_2:\n      0x00\n      dup1\n      revert\n        /* \"contracts/Whitelist.sol\":165:214  mapping(bytes32 => bool) public whitelistedEmails */\n    tag_3:\n      tag_14\n      0x04\n      dup1\n      calldatasize\n      sub\n      dup2\n      add\n      swap1\n      tag_15\n      swap2\n      swap1\n      tag_16\n      jump\t// in\n    tag_15:\n      tag_17\n      jump\t// in\n    tag_14:\n      mload(0x40)\n      tag_18\n      swap2\n      swap1\n      tag_19\n      jump\t// in\n    tag_18:\n      mload(0x40)\n      dup1\n      swap2\n      sub\n      swap1\n      return\n        /* \"contracts/Whitelist.sol\":1441:1631  function isEmailWhitelisted(string calldata _email) public view returns (bool) {... */\n    tag_4:\n      tag_20\n      0x04\n      dup1\n      calldatasize\n      sub\n      dup2\n      add\n      swap1\n      tag_21\n      swap2\n      swap1\n      tag_22\n      jump\t// in\n    tag_21:\n      tag_23\n      jump\t// in\n    tag_20:\n      mload(0x40)\n      tag_24\n      swap2\n      swap1\n      tag_19\n      jump\t// in\n    tag_24:\n      mload(0x40)\n      dup1\n      swap2\n      sub\n      swap1\n      return\n        /* \"contracts/Whitelist.sol\":1003:1175  function addEmail(string calldata _email) external onlyOwner {... */\n    tag_5:\n      tag_25\n      0x04\n      dup1\n      calldatasize\n      sub\n      dup2\n      add\n      swap1\n      tag_26\n      swap2\n      swap1\n      tag_22\n      jump\t// in\n    tag_26:\n      tag_27\n      jump\t// in\n    tag_25:\n      stop\n        /* \"contracts/Whitelist.sol\":82:102  address public owner */\n    tag_6:\n      tag_28\n      tag_29\n      jump\t// in\n    tag_28:\n      mload(0x40)\n      tag_30\n      swap2\n      swap1\n      tag_31\n      jump\t// in\n    tag_30:\n      mload(0x40)\n      dup1\n      swap2\n      sub\n      swap1\n      return\n        /* \"contracts/Whitelist.sol\":109:159  mapping(address => bool) public whitelistedWallets */\n    tag_7:\n      tag_32\n      0x04\n      dup1\n      calldatasize\n      sub\n      dup2\n      add\n      swap1\n      tag_33\n      swap2\n      swap1\n      tag_34\n      jump\t// in\n    tag_33:\n      tag_35\n      jump\t// in\n    tag_32:\n      mload(0x40)\n      tag_36\n      swap2\n      swap1\n      tag_19\n      jump\t// in\n    tag_36:\n      mload(0x40)\n      dup1\n      swap2\n      sub\n      swap1\n      return\n        /* \"contracts/Whitelist.sol\":773:897  function isWalletWhitelisted(address _wallet) public view returns (bool) {... */\n    tag_8:\n      tag_37\n      0x04\n      dup1\n      calldatasize\n      sub\n      dup2\n      add\n      swap1\n      tag_38\n      swap2\n      swap1\n      tag_34\n      jump\t// in\n    tag_38:\n      tag_39\n      jump\t// in\n    tag_37:\n      mload(0x40)\n      tag_40\n      swap2\n      swap1\n      tag_19\n      jump\t// in\n    tag_40:\n      mload(0x40)\n      dup1\n      swap2\n      sub\n      swap1\n      return\n        /* \"contracts/Whitelist.sol\":1718:1893  function isWhitelisted(address _wallet, string calldata _email) external view returns (bool) {... */\n    tag_9:\n      tag_41\n      0x04\n      dup1\n      calldatasize\n      sub\n      dup2\n      add\n      swap1\n      tag_42\n      swap2\n      swap1\n      tag_43\n      jump\t// in\n    tag_42:\n      tag_44\n      jump\t// in\n    tag_41:\n      mload(0x40)\n      tag_45\n      swap2\n      swap1\n      tag_19\n      jump\t// in\n    tag_45:\n      mload(0x40)\n      dup1\n      swap2\n      sub\n      swap1\n      return\n        /* \"contracts/Whitelist.sol\":461:567  function addWallet(address _wallet) external onlyOwner {... */\n    tag_10:\n      tag_46\n      0x04\n      dup1\n      calldatasize\n      sub\n      dup2\n      add\n      swap1\n      tag_47\n      swap2\n      swap1\n      tag_34\n      jump\t// in\n    tag_47:\n      tag_48\n      jump\t// in\n    tag_46:\n      stop\n        /* \"contracts/Whitelist.sol\":573:767  function addWalletsBulk(address[] calldata _wallets) external onlyOwner {... */\n    tag_11:\n      tag_49\n      0x04\n      dup1\n      calldatasize\n      sub\n      dup2\n      add\n      swap1\n      tag_50\n      swap2\n      swap1\n      tag_51\n      jump\t// in\n    tag_50:\n      tag_52\n      jump\t// in\n    tag_49:\n      stop\n        /* \"contracts/Whitelist.sol\":1181:1435  function addEmailsBulk(string[] calldata _emails) external onlyOwner {... */\n    tag_12:\n      tag_53\n      0x04\n      dup1\n      calldatasize\n      sub\n      dup2\n      add\n      swap1\n      tag_54\n      swap2\n      swap1\n      tag_55\n      jump\t// in\n    tag_54:\n      tag_56\n      jump\t// in\n    tag_53:\n      stop\n        /* \"contracts/Whitelist.sol\":165:214  mapping(bytes32 => bool) public whitelistedEmails */\n    tag_17:\n      mstore(0x20, 0x02)\n      dup1\n      0x00\n      mstore\n      keccak256(0x00, 0x40)\n      0x00\n      swap2\n      pop\n      sload\n      swap1\n      0x0100\n      exp\n      swap1\n      div\n      0xff\n      and\n      dup2\n      jump\t// out\n        /* \"contracts/Whitelist.sol\":1441:1631  function isEmailWhitelisted(string calldata _email) public view returns (bool) {... */\n    tag_23:\n        /* \"contracts/Whitelist.sol\":1514:1518  bool */\n      0x00\n        /* \"contracts/Whitelist.sol\":1530:1544  bytes32 hashed */\n      dup1\n        /* \"contracts/Whitelist.sol\":1574:1580  _email */\n      dup4\n      dup4\n        /* \"contracts/Whitelist.sol\":1557:1581  abi.encodePacked(_email) */\n      add(0x20, mload(0x40))\n      tag_58\n      swap3\n      swap2\n      swap1\n      tag_59\n      jump\t// in\n    tag_58:\n      mload(0x40)\n      0x20\n      dup2\n      dup4\n      sub\n      sub\n      dup2\n      mstore\n      swap1\n      0x40\n      mstore\n        /* \"contracts/Whitelist.sol\":1547:1582  keccak256(abi.encodePacked(_email)) */\n      dup1\n      mload\n      swap1\n      0x20\n      add\n      keccak256\n        /* \"contracts/Whitelist.sol\":1530:1582  bytes32 hashed = keccak256(abi.encodePacked(_email)) */\n      swap1\n      pop\n        /* \"contracts/Whitelist.sol\":1599:1616  whitelistedEmails */\n      0x02\n        /* \"contracts/Whitelist.sol\":1599:1624  whitelistedEmails[hashed] */\n      0x00\n        /* \"contracts/Whitelist.sol\":1617:1623  hashed */\n      dup3\n        /* \"contracts/Whitelist.sol\":1599:1624  whitelistedEmails[hashed] */\n      dup2\n      mstore\n      0x20\n      add\n      swap1\n      dup2\n      mstore\n      0x20\n      add\n      0x00\n      keccak256\n      0x00\n      swap1\n      sload\n      swap1\n      0x0100\n      exp\n      swap1\n      div\n      0xff\n      and\n        /* \"contracts/Whitelist.sol\":1592:1624  return whitelistedEmails[hashed] */\n      swap2\n      pop\n      pop\n        /* \"contracts/Whitelist.sol\":1441:1631  function isEmailWhitelisted(string calldata _email) public view returns (bool) {... */\n      swap3\n      swap2\n      pop\n      pop\n      jump\t// out\n        /* \"contracts/Whitelist.sol\":1003:1175  function addEmail(string calldata _email) external onlyOwner {... */\n    tag_27:\n        /* \"contracts/Whitelist.sol\":274:279  owner */\n      0x00\n      dup1\n      sload\n      swap1\n      0x0100\n      exp\n      swap1\n      div\n      0xffffffffffffffffffffffffffffffffffffffff\n      and\n        /* \"contracts/Whitelist.sol\":260:279  msg.sender == owner */\n      0xffffffffffffffffffffffffffffffffffffffff\n      and\n        /* \"contracts/Whitelist.sol\":260:270  msg.sender */\n      caller\n        /* \"contracts/Whitelist.sol\":260:279  msg.sender == owner */\n      0xffffffffffffffffffffffffffffffffffffffff\n      and\n      eq\n        /* \"contracts/Whitelist.sol\":252:298  require(msg.sender == owner, \"Not authorized\") */\n      tag_61\n      jumpi\n      mload(0x40)\n      0x08c379a000000000000000000000000000000000000000000000000000000000\n      dup2\n      mstore\n      0x04\n      add\n      tag_62\n      swap1\n      tag_63\n      jump\t// in\n    tag_62:\n      mload(0x40)\n      dup1\n      swap2\n      sub\n      swap1\n      revert\n    tag_61:\n        /* \"contracts/Whitelist.sol\":1074:1088  bytes32 hashed */\n      0x00\n        /* \"contracts/Whitelist.sol\":1118:1124  _email */\n      dup3\n      dup3\n        /* \"contracts/Whitelist.sol\":1101:1125  abi.encodePacked(_email) */\n      add(0x20, mload(0x40))\n      tag_65\n      swap3\n      swap2\n      swap1\n      tag_59\n      jump\t// in\n    tag_65:\n      mload(0x40)\n      0x20\n      dup2\n      dup4\n      sub\n      sub\n      dup2\n      mstore\n      swap1\n      0x40\n      mstore\n        /* \"contracts/Whitelist.sol\":1091:1126  keccak256(abi.encodePacked(_email)) */\n      dup1\n      mload\n      swap1\n      0x20\n      add\n      keccak256\n        /* \"contracts/Whitelist.sol\":1074:1126  bytes32 hashed = keccak256(abi.encodePacked(_email)) */\n      swap1\n      pop\n        /* \"contracts/Whitelist.sol\":1164:1168  true */\n      0x01\n        /* \"contracts/Whitelist.sol\":1136:1153  whitelistedEmails */\n      0x02\n        /* \"contracts/Whitelist.sol\":1136:1161  whitelistedEmails[hashed] */\n      0x00\n        /* \"contracts/Whitelist.sol\":1154:1160  hashed */\n      dup4\n        /* \"contracts/Whitelist.sol\":1136:1161  whitelistedEmails[hashed] */\n      dup2\n      mstore\n      0x20\n      add\n      swap1\n      dup2\n      mstore\n      0x20\n      add\n      0x00\n      keccak256\n      0x00\n        /* \"contracts/Whitelist.sol\":1136:1168  whitelistedEmails[hashed] = true */\n      0x0100\n      exp\n      dup2\n      sload\n      dup2\n      0xff\n      mul\n      not\n      and\n      swap1\n      dup4\n      iszero\n      iszero\n      mul\n      or\n      swap1\n      sstore\n      pop\n        /* \"contracts/Whitelist.sol\":1064:1175  {... */\n      pop\n        /* \"contracts/Whitelist.sol\":1003:1175  function addEmail(string calldata _email) external onlyOwner {... */\n      pop\n      pop\n      jump\t// out\n        /* \"contracts/Whitelist.sol\":82:102  address public owner */\n    tag_29:\n      0x00\n      dup1\n      sload\n      swap1\n      0x0100\n      exp\n      swap1\n      div\n      0xffffffffffffffffffffffffffffffffffffffff\n      and\n      dup2\n      jump\t// out\n        /* \"contracts/Whitelist.sol\":109:159  mapping(address => bool) public whitelistedWallets */\n    tag_35:\n      mstore(0x20, 0x01)\n      dup1\n      0x00\n      mstore\n      keccak256(0x00, 0x40)\n      0x00\n      swap2\n      pop\n      sload\n      swap1\n      0x0100\n      exp\n      swap1\n      div\n      0xff\n      and\n      dup2\n      jump\t// out\n        /* \"contracts/Whitelist.sol\":773:897  function isWalletWhitelisted(address _wallet) public view returns (bool) {... */\n    tag_39:\n        /* \"contracts/Whitelist.sol\":840:844  bool */\n      0x00\n        /* \"contracts/Whitelist.sol\":863:881  whitelistedWallets */\n      0x01\n        /* \"contracts/Whitelist.sol\":863:890  whitelistedWallets[_wallet] */\n      0x00\n        /* \"contracts/Whitelist.sol\":882:889  _wallet */\n      dup4\n        /* \"contracts/Whitelist.sol\":863:890  whitelistedWallets[_wallet] */\n      0xffffffffffffffffffffffffffffffffffffffff\n      and\n      0xffffffffffffffffffffffffffffffffffffffff\n      and\n      dup2\n      mstore\n      0x20\n      add\n      swap1\n      dup2\n      mstore\n      0x20\n      add\n      0x00\n      keccak256\n      0x00\n      swap1\n      sload\n      swap1\n      0x0100\n      exp\n      swap1\n      div\n      0xff\n      and\n        /* \"contracts/Whitelist.sol\":856:890  return whitelistedWallets[_wallet] */\n      swap1\n      pop\n        /* \"contracts/Whitelist.sol\":773:897  function isWalletWhitelisted(address _wallet) public view returns (bool) {... */\n      swap2\n      swap1\n      pop\n      jump\t// out\n        /* \"contracts/Whitelist.sol\":1718:1893  function isWhitelisted(address _wallet, string calldata _email) external view returns (bool) {... */\n    tag_44:\n        /* \"contracts/Whitelist.sol\":1805:1809  bool */\n      0x00\n        /* \"contracts/Whitelist.sol\":1828:1856  isWalletWhitelisted(_wallet) */\n      tag_68\n        /* \"contracts/Whitelist.sol\":1848:1855  _wallet */\n      dup5\n        /* \"contracts/Whitelist.sol\":1828:1847  isWalletWhitelisted */\n      tag_39\n        /* \"contracts/Whitelist.sol\":1828:1856  isWalletWhitelisted(_wallet) */\n      jump\t// in\n    tag_68:\n        /* \"contracts/Whitelist.sol\":1828:1886  isWalletWhitelisted(_wallet) || isEmailWhitelisted(_email) */\n      dup1\n      tag_69\n      jumpi\n      pop\n        /* \"contracts/Whitelist.sol\":1860:1886  isEmailWhitelisted(_email) */\n      tag_70\n        /* \"contracts/Whitelist.sol\":1879:1885  _email */\n      dup4\n      dup4\n        /* \"contracts/Whitelist.sol\":1860:1878  isEmailWhitelisted */\n      tag_23\n        /* \"contracts/Whitelist.sol\":1860:1886  isEmailWhitelisted(_email) */\n      jump\t// in\n    tag_70:\n        /* \"contracts/Whitelist.sol\":1828:1886  isWalletWhitelisted(_wallet) || isEmailWhitelisted(_email) */\n    tag_69:\n        /* \"contracts/Whitelist.sol\":1821:1886  return isWalletWhitelisted(_wallet) || isEmailWhitelisted(_email) */\n      swap1\n      pop\n        /* \"contracts/Whitelist.sol\":1718:1893  function isWhitelisted(address _wallet, string calldata _email) external view returns (bool) {... */\n      swap4\n      swap3\n      pop\n      pop\n      pop\n      jump\t// out\n        /* \"contracts/Whitelist.sol\":461:567  function addWallet(address _wallet) external onlyOwner {... */\n    tag_48:\n        /* \"contracts/Whitelist.sol\":274:279  owner */\n      0x00\n      dup1\n      sload\n      swap1\n      0x0100\n      exp\n      swap1\n      div\n      0xffffffffffffffffffffffffffffffffffffffff\n      and\n        /* \"contracts/Whitelist.sol\":260:279  msg.sender == owner */\n      0xffffffffffffffffffffffffffffffffffffffff\n      and\n        /* \"contracts/Whitelist.sol\":260:270  msg.sender */\n      caller\n        /* \"contracts/Whitelist.sol\":260:279  msg.sender == owner */\n      0xffffffffffffffffffffffffffffffffffffffff\n      and\n      eq\n        /* \"contracts/Whitelist.sol\":252:298  require(msg.sender == owner, \"Not authorized\") */\n      tag_72\n      jumpi\n      mload(0x40)\n      0x08c379a000000000000000000000000000000000000000000000000000000000\n      dup2\n      mstore\n      0x04\n      add\n      tag_73\n      swap1\n      tag_63\n      jump\t// in\n    tag_73:\n      mload(0x40)\n      dup1\n      swap2\n      sub\n      swap1\n      revert\n    tag_72:\n        /* \"contracts/Whitelist.sol\":556:560  true */\n      0x01\n        /* \"contracts/Whitelist.sol\":526:544  whitelistedWallets */\n      dup1\n        /* \"contracts/Whitelist.sol\":526:553  whitelistedWallets[_wallet] */\n      0x00\n        /* \"contracts/Whitelist.sol\":545:552  _wallet */\n      dup4\n        /* \"contracts/Whitelist.sol\":526:553  whitelistedWallets[_wallet] */\n      0xffffffffffffffffffffffffffffffffffffffff\n      and\n      0xffffffffffffffffffffffffffffffffffffffff\n      and\n      dup2\n      mstore\n      0x20\n      add\n      swap1\n      dup2\n      mstore\n      0x20\n      add\n      0x00\n      keccak256\n      0x00\n        /* \"contracts/Whitelist.sol\":526:560  whitelistedWallets[_wallet] = true */\n      0x0100\n      exp\n      dup2\n      sload\n      dup2\n      0xff\n      mul\n      not\n      and\n      swap1\n      dup4\n      iszero\n      iszero\n      mul\n      or\n      swap1\n      sstore\n      pop\n        /* \"contracts/Whitelist.sol\":461:567  function addWallet(address _wallet) external onlyOwner {... */\n      pop\n      jump\t// out\n        /* \"contracts/Whitelist.sol\":573:767  function addWalletsBulk(address[] calldata _wallets) external onlyOwner {... */\n    tag_52:\n        /* \"contracts/Whitelist.sol\":274:279  owner */\n      0x00\n      dup1\n      sload\n      swap1\n      0x0100\n      exp\n      swap1\n      div\n      0xffffffffffffffffffffffffffffffffffffffff\n      and\n        /* \"contracts/Whitelist.sol\":260:279  msg.sender == owner */\n      0xffffffffffffffffffffffffffffffffffffffff\n      and\n        /* \"contracts/Whitelist.sol\":260:270  msg.sender */\n      caller\n        /* \"contracts/Whitelist.sol\":260:279  msg.sender == owner */\n      0xffffffffffffffffffffffffffffffffffffffff\n      and\n      eq\n        /* \"contracts/Whitelist.sol\":252:298  require(msg.sender == owner, \"Not authorized\") */\n      tag_76\n      jumpi\n      mload(0x40)\n      0x08c379a000000000000000000000000000000000000000000000000000000000\n      dup2\n      mstore\n      0x04\n      add\n      tag_77\n      swap1\n      tag_63\n      jump\t// in\n    tag_77:\n      mload(0x40)\n      dup1\n      swap2\n      sub\n      swap1\n      revert\n    tag_76:\n        /* \"contracts/Whitelist.sol\":660:666  uint i */\n      0x00\n        /* \"contracts/Whitelist.sol\":655:761  for (uint i = 0; i < _wallets.length; i++) {... */\n    tag_79:\n        /* \"contracts/Whitelist.sol\":676:684  _wallets */\n      dup3\n      dup3\n        /* \"contracts/Whitelist.sol\":676:691  _wallets.length */\n      swap1\n      pop\n        /* \"contracts/Whitelist.sol\":672:673  i */\n      dup2\n        /* \"contracts/Whitelist.sol\":672:691  i < _wallets.length */\n      lt\n        /* \"contracts/Whitelist.sol\":655:761  for (uint i = 0; i < _wallets.length; i++) {... */\n      iszero\n      tag_80\n      jumpi\n        /* \"contracts/Whitelist.sol\":746:750  true */\n      0x01\n        /* \"contracts/Whitelist.sol\":712:730  whitelistedWallets */\n      dup1\n        /* \"contracts/Whitelist.sol\":712:743  whitelistedWallets[_wallets[i]] */\n      0x00\n        /* \"contracts/Whitelist.sol\":731:739  _wallets */\n      dup6\n      dup6\n        /* \"contracts/Whitelist.sol\":740:741  i */\n      dup6\n        /* \"contracts/Whitelist.sol\":731:742  _wallets[i] */\n      dup2\n      dup2\n      lt\n      tag_82\n      jumpi\n      tag_83\n      tag_84\n      jump\t// in\n    tag_83:\n    tag_82:\n      swap1\n      pop\n      0x20\n      mul\n      add\n      0x20\n      dup2\n      add\n      swap1\n      tag_85\n      swap2\n      swap1\n      tag_34\n      jump\t// in\n    tag_85:\n        /* \"contracts/Whitelist.sol\":712:743  whitelistedWallets[_wallets[i]] */\n      0xffffffffffffffffffffffffffffffffffffffff\n      and\n      0xffffffffffffffffffffffffffffffffffffffff\n      and\n      dup2\n      mstore\n      0x20\n      add\n      swap1\n      dup2\n      mstore\n      0x20\n      add\n      0x00\n      keccak256\n      0x00\n        /* \"contracts/Whitelist.sol\":712:750  whitelistedWallets[_wallets[i]] = true */\n      0x0100\n      exp\n      dup2\n      sload\n      dup2\n      0xff\n      mul\n      not\n      and\n      swap1\n      dup4\n      iszero\n      iszero\n      mul\n      or\n      swap1\n      sstore\n      pop\n        /* \"contracts/Whitelist.sol\":693:696  i++ */\n      dup1\n      dup1\n      0x01\n      add\n      swap2\n      pop\n      pop\n        /* \"contracts/Whitelist.sol\":655:761  for (uint i = 0; i < _wallets.length; i++) {... */\n      jump(tag_79)\n    tag_80:\n      pop\n        /* \"contracts/Whitelist.sol\":573:767  function addWalletsBulk(address[] calldata _wallets) external onlyOwner {... */\n      pop\n      pop\n      jump\t// out\n        /* \"contracts/Whitelist.sol\":1181:1435  function addEmailsBulk(string[] calldata _emails) external onlyOwner {... */\n    tag_56:\n        /* \"contracts/Whitelist.sol\":274:279  owner */\n      0x00\n      dup1\n      sload\n      swap1\n      0x0100\n      exp\n      swap1\n      div\n      0xffffffffffffffffffffffffffffffffffffffff\n      and\n        /* \"contracts/Whitelist.sol\":260:279  msg.sender == owner */\n      0xffffffffffffffffffffffffffffffffffffffff\n      and\n        /* \"contracts/Whitelist.sol\":260:270  msg.sender */\n      caller\n        /* \"contracts/Whitelist.sol\":260:279  msg.sender == owner */\n      0xffffffffffffffffffffffffffffffffffffffff\n      and\n      eq\n        /* \"contracts/Whitelist.sol\":252:298  require(msg.sender == owner, \"Not authorized\") */\n      tag_87\n      jumpi\n      mload(0x40)\n      0x08c379a000000000000000000000000000000000000000000000000000000000\n      dup2\n      mstore\n      0x04\n      add\n      tag_88\n      swap1\n      tag_63\n      jump\t// in\n    tag_88:\n      mload(0x40)\n      dup1\n      swap2\n      sub\n      swap1\n      revert\n    tag_87:\n        /* \"contracts/Whitelist.sol\":1265:1271  uint i */\n      0x00\n        /* \"contracts/Whitelist.sol\":1260:1429  for (uint i = 0; i < _emails.length; i++) {... */\n    tag_90:\n        /* \"contracts/Whitelist.sol\":1281:1288  _emails */\n      dup3\n      dup3\n        /* \"contracts/Whitelist.sol\":1281:1295  _emails.length */\n      swap1\n      pop\n        /* \"contracts/Whitelist.sol\":1277:1278  i */\n      dup2\n        /* \"contracts/Whitelist.sol\":1277:1295  i < _emails.length */\n      lt\n        /* \"contracts/Whitelist.sol\":1260:1429  for (uint i = 0; i < _emails.length; i++) {... */\n      iszero\n      tag_91\n      jumpi\n        /* \"contracts/Whitelist.sol\":1316:1330  bytes32 hashed */\n      0x00\n        /* \"contracts/Whitelist.sol\":1360:1367  _emails */\n      dup4\n      dup4\n        /* \"contracts/Whitelist.sol\":1368:1369  i */\n      dup4\n        /* \"contracts/Whitelist.sol\":1360:1370  _emails[i] */\n      dup2\n      dup2\n      lt\n      tag_93\n      jumpi\n      tag_94\n      tag_84\n      jump\t// in\n    tag_94:\n    tag_93:\n      swap1\n      pop\n      0x20\n      mul\n      dup2\n      add\n      swap1\n      tag_95\n      swap2\n      swap1\n      tag_96\n      jump\t// in\n    tag_95:\n        /* \"contracts/Whitelist.sol\":1343:1371  abi.encodePacked(_emails[i]) */\n      add(0x20, mload(0x40))\n      tag_97\n      swap3\n      swap2\n      swap1\n      tag_59\n      jump\t// in\n    tag_97:\n      mload(0x40)\n      0x20\n      dup2\n      dup4\n      sub\n      sub\n      dup2\n      mstore\n      swap1\n      0x40\n      mstore\n        /* \"contracts/Whitelist.sol\":1333:1372  keccak256(abi.encodePacked(_emails[i])) */\n      dup1\n      mload\n      swap1\n      0x20\n      add\n      keccak256\n        /* \"contracts/Whitelist.sol\":1316:1372  bytes32 hashed = keccak256(abi.encodePacked(_emails[i])) */\n      swap1\n      pop\n        /* \"contracts/Whitelist.sol\":1414:1418  true */\n      0x01\n        /* \"contracts/Whitelist.sol\":1386:1403  whitelistedEmails */\n      0x02\n        /* \"contracts/Whitelist.sol\":1386:1411  whitelistedEmails[hashed] */\n      0x00\n        /* \"contracts/Whitelist.sol\":1404:1410  hashed */\n      dup4\n        /* \"contracts/Whitelist.sol\":1386:1411  whitelistedEmails[hashed] */\n      dup2\n      mstore\n      0x20\n      add\n      swap1\n      dup2\n      mstore\n      0x20\n      add\n      0x00\n      keccak256\n      0x00\n        /* \"contracts/Whitelist.sol\":1386:1418  whitelistedEmails[hashed] = true */\n      0x0100\n      exp\n      dup2\n      sload\n      dup2\n      0xff\n      mul\n      not\n      and\n      swap1\n      dup4\n      iszero\n      iszero\n      mul\n      or\n      swap1\n      sstore\n      pop\n        /* \"contracts/Whitelist.sol\":1302:1429  {... */\n      pop\n        /* \"contracts/Whitelist.sol\":1297:1300  i++ */\n      dup1\n      dup1\n      0x01\n      add\n      swap2\n      pop\n      pop\n        /* \"contracts/Whitelist.sol\":1260:1429  for (uint i = 0; i < _emails.length; i++) {... */\n      jump(tag_90)\n    tag_91:\n      pop\n        /* \"contracts/Whitelist.sol\":1181:1435  function addEmailsBulk(string[] calldata _emails) external onlyOwner {... */\n      pop\n      pop\n      jump\t// out\n        /* \"#utility.yul\":88:205   */\n    tag_99:\n        /* \"#utility.yul\":197:198   */\n      0x00\n        /* \"#utility.yul\":194:195   */\n      dup1\n        /* \"#utility.yul\":187:199   */\n      revert\n        /* \"#utility.yul\":211:328   */\n    tag_100:\n        /* \"#utility.yul\":320:321   */\n      0x00\n        /* \"#utility.yul\":317:318   */\n      dup1\n        /* \"#utility.yul\":310:322   */\n      revert\n        /* \"#utility.yul\":334:411   */\n    tag_101:\n        /* \"#utility.yul\":371:378   */\n      0x00\n        /* \"#utility.yul\":400:405   */\n      dup2\n        /* \"#utility.yul\":389:405   */\n      swap1\n      pop\n        /* \"#utility.yul\":334:411   */\n      swap2\n      swap1\n      pop\n      jump\t// out\n        /* \"#utility.yul\":417:539   */\n    tag_102:\n        /* \"#utility.yul\":490:514   */\n      tag_132\n        /* \"#utility.yul\":508:513   */\n      dup2\n        /* \"#utility.yul\":490:514   */\n      tag_101\n      jump\t// in\n    tag_132:\n        /* \"#utility.yul\":483:488   */\n      dup2\n        /* \"#utility.yul\":480:515   */\n      eq\n        /* \"#utility.yul\":470:533   */\n      tag_133\n      jumpi\n        /* \"#utility.yul\":529:530   */\n      0x00\n        /* \"#utility.yul\":526:527   */\n      dup1\n        /* \"#utility.yul\":519:531   */\n      revert\n        /* \"#utility.yul\":470:533   */\n    tag_133:\n        /* \"#utility.yul\":417:539   */\n      pop\n      jump\t// out\n        /* \"#utility.yul\":545:684   */\n    tag_103:\n        /* \"#utility.yul\":591:596   */\n      0x00\n        /* \"#utility.yul\":629:635   */\n      dup2\n        /* \"#utility.yul\":616:636   */\n      calldataload\n        /* \"#utility.yul\":607:636   */\n      swap1\n      pop\n        /* \"#utility.yul\":645:678   */\n      tag_135\n        /* \"#utility.yul\":672:677   */\n      dup2\n        /* \"#utility.yul\":645:678   */\n      tag_102\n      jump\t// in\n    tag_135:\n        /* \"#utility.yul\":545:684   */\n      swap3\n      swap2\n      pop\n      pop\n      jump\t// out\n        /* \"#utility.yul\":690:1019   */\n    tag_16:\n        /* \"#utility.yul\":749:755   */\n      0x00\n        /* \"#utility.yul\":798:800   */\n      0x20\n        /* \"#utility.yul\":786:795   */\n      dup3\n        /* \"#utility.yul\":777:784   */\n      dup5\n        /* \"#utility.yul\":773:796   */\n      sub\n        /* \"#utility.yul\":769:801   */\n      slt\n        /* \"#utility.yul\":766:885   */\n      iszero\n      tag_137\n      jumpi\n        /* \"#utility.yul\":804:883   */\n      tag_138\n      tag_99\n      jump\t// in\n    tag_138:\n        /* \"#utility.yul\":766:885   */\n    tag_137:\n        /* \"#utility.yul\":924:925   */\n      0x00\n        /* \"#utility.yul\":949:1002   */\n      tag_139\n        /* \"#utility.yul\":994:1001   */\n      dup5\n        /* \"#utility.yul\":985:991   */\n      dup3\n        /* \"#utility.yul\":974:983   */\n      dup6\n        /* \"#utility.yul\":970:992   */\n      add\n        /* \"#utility.yul\":949:1002   */\n      tag_103\n      jump\t// in\n    tag_139:\n        /* \"#utility.yul\":939:1002   */\n      swap2\n      pop\n        /* \"#utility.yul\":895:1012   */\n      pop\n        /* \"#utility.yul\":690:1019   */\n      swap3\n      swap2\n      pop\n      pop\n      jump\t// out\n        /* \"#utility.yul\":1025:1115   */\n    tag_104:\n        /* \"#utility.yul\":1059:1066   */\n      0x00\n        /* \"#utility.yul\":1102:1107   */\n      dup2\n        /* \"#utility.yul\":1095:1108   */\n      iszero\n        /* \"#utility.yul\":1088:1109   */\n      iszero\n        /* \"#utility.yul\":1077:1109   */\n      swap1\n      pop\n        /* \"#utility.yul\":1025:1115   */\n      swap2\n      swap1\n      pop\n      jump\t// out\n        /* \"#utility.yul\":1121:1230   */\n    tag_105:\n        /* \"#utility.yul\":1202:1223   */\n      tag_142\n        /* \"#utility.yul\":1217:1222   */\n      dup2\n        /* \"#utility.yul\":1202:1223   */\n      tag_104\n      jump\t// in\n    tag_142:\n        /* \"#utility.yul\":1197:1200   */\n      dup3\n        /* \"#utility.yul\":1190:1224   */\n      mstore\n        /* \"#utility.yul\":1121:1230   */\n      pop\n      pop\n      jump\t// out\n        /* \"#utility.yul\":1236:1446   */\n    tag_19:\n        /* \"#utility.yul\":1323:1327   */\n      0x00\n        /* \"#utility.yul\":1361:1363   */\n      0x20\n        /* \"#utility.yul\":1350:1359   */\n      dup3\n        /* \"#utility.yul\":1346:1364   */\n      add\n        /* \"#utility.yul\":1338:1364   */\n      swap1\n      pop\n        /* \"#utility.yul\":1374:1439   */\n      tag_144\n        /* \"#utility.yul\":1436:1437   */\n      0x00\n        /* \"#utility.yul\":1425:1434   */\n      dup4\n        /* \"#utility.yul\":1421:1438   */\n      add\n        /* \"#utility.yul\":1412:1418   */\n      dup5\n        /* \"#utility.yul\":1374:1439   */\n      tag_105\n      jump\t// in\n    tag_144:\n        /* \"#utility.yul\":1236:1446   */\n      swap3\n      swap2\n      pop\n      pop\n      jump\t// out\n        /* \"#utility.yul\":1452:1569   */\n    tag_106:\n        /* \"#utility.yul\":1561:1562   */\n      0x00\n        /* \"#utility.yul\":1558:1559   */\n      dup1\n        /* \"#utility.yul\":1551:1563   */\n      revert\n        /* \"#utility.yul\":1575:1692   */\n    tag_107:\n        /* \"#utility.yul\":1684:1685   */\n      0x00\n        /* \"#utility.yul\":1681:1682   */\n      dup1\n        /* \"#utility.yul\":1674:1686   */\n      revert\n        /* \"#utility.yul\":1698:1815   */\n    tag_108:\n        /* \"#utility.yul\":1807:1808   */\n      0x00\n        /* \"#utility.yul\":1804:1805   */\n      dup1\n        /* \"#utility.yul\":1797:1809   */\n      revert\n        /* \"#utility.yul\":1835:2388   */\n    tag_109:\n        /* \"#utility.yul\":1893:1901   */\n      0x00\n        /* \"#utility.yul\":1903:1909   */\n      dup1\n        /* \"#utility.yul\":1953:1956   */\n      dup4\n        /* \"#utility.yul\":1946:1950   */\n      0x1f\n        /* \"#utility.yul\":1938:1944   */\n      dup5\n        /* \"#utility.yul\":1934:1951   */\n      add\n        /* \"#utility.yul\":1930:1957   */\n      slt\n        /* \"#utility.yul\":1920:2042   */\n      tag_149\n      jumpi\n        /* \"#utility.yul\":1961:2040   */\n      tag_150\n      tag_106\n      jump\t// in\n    tag_150:\n        /* \"#utility.yul\":1920:2042   */\n    tag_149:\n        /* \"#utility.yul\":2074:2080   */\n      dup3\n        /* \"#utility.yul\":2061:2081   */\n      calldataload\n        /* \"#utility.yul\":2051:2081   */\n      swap1\n      pop\n        /* \"#utility.yul\":2104:2122   */\n      0xffffffffffffffff\n        /* \"#utility.yul\":2096:2102   */\n      dup2\n        /* \"#utility.yul\":2093:2123   */\n      gt\n        /* \"#utility.yul\":2090:2207   */\n      iszero\n      tag_151\n      jumpi\n        /* \"#utility.yul\":2126:2205   */\n      tag_152\n      tag_107\n      jump\t// in\n    tag_152:\n        /* \"#utility.yul\":2090:2207   */\n    tag_151:\n        /* \"#utility.yul\":2240:2244   */\n      0x20\n        /* \"#utility.yul\":2232:2238   */\n      dup4\n        /* \"#utility.yul\":2228:2245   */\n      add\n        /* \"#utility.yul\":2216:2245   */\n      swap2\n      pop\n        /* \"#utility.yul\":2294:2297   */\n      dup4\n        /* \"#utility.yul\":2286:2290   */\n      0x01\n        /* \"#utility.yul\":2278:2284   */\n      dup3\n        /* \"#utility.yul\":2274:2291   */\n      mul\n        /* \"#utility.yul\":2264:2272   */\n      dup4\n        /* \"#utility.yul\":2260:2292   */\n      add\n        /* \"#utility.yul\":2257:2298   */\n      gt\n        /* \"#utility.yul\":2254:2382   */\n      iszero\n      tag_153\n      jumpi\n        /* \"#utility.yul\":2301:2380   */\n      tag_154\n      tag_108\n      jump\t// in\n    tag_154:\n        /* \"#utility.yul\":2254:2382   */\n    tag_153:\n        /* \"#utility.yul\":1835:2388   */\n      swap3\n      pop\n      swap3\n      swap1\n      pop\n      jump\t// out\n        /* \"#utility.yul\":2394:2923   */\n    tag_22:\n        /* \"#utility.yul\":2465:2471   */\n      0x00\n        /* \"#utility.yul\":2473:2479   */\n      dup1\n        /* \"#utility.yul\":2522:2524   */\n      0x20\n        /* \"#utility.yul\":2510:2519   */\n      dup4\n        /* \"#utility.yul\":2501:2508   */\n      dup6\n        /* \"#utility.yul\":2497:2520   */\n      sub\n        /* \"#utility.yul\":2493:2525   */\n      slt\n        /* \"#utility.yul\":2490:2609   */\n      iszero\n      tag_156\n      jumpi\n        /* \"#utility.yul\":2528:2607   */\n      tag_157\n      tag_99\n      jump\t// in\n    tag_157:\n        /* \"#utility.yul\":2490:2609   */\n    tag_156:\n        /* \"#utility.yul\":2676:2677   */\n      0x00\n        /* \"#utility.yul\":2665:2674   */\n      dup4\n        /* \"#utility.yul\":2661:2678   */\n      add\n        /* \"#utility.yul\":2648:2679   */\n      calldataload\n        /* \"#utility.yul\":2706:2724   */\n      0xffffffffffffffff\n        /* \"#utility.yul\":2698:2704   */\n      dup2\n        /* \"#utility.yul\":2695:2725   */\n      gt\n        /* \"#utility.yul\":2692:2809   */\n      iszero\n      tag_158\n      jumpi\n        /* \"#utility.yul\":2728:2807   */\n      tag_159\n      tag_100\n      jump\t// in\n    tag_159:\n        /* \"#utility.yul\":2692:2809   */\n    tag_158:\n        /* \"#utility.yul\":2841:2906   */\n      tag_160\n        /* \"#utility.yul\":2898:2905   */\n      dup6\n        /* \"#utility.yul\":2889:2895   */\n      dup3\n        /* \"#utility.yul\":2878:2887   */\n      dup7\n        /* \"#utility.yul\":2874:2896   */\n      add\n        /* \"#utility.yul\":2841:2906   */\n      tag_109\n      jump\t// in\n    tag_160:\n        /* \"#utility.yul\":2823:2906   */\n      swap3\n      pop\n      swap3\n      pop\n        /* \"#utility.yul\":2619:2916   */\n      pop\n        /* \"#utility.yul\":2394:2923   */\n      swap3\n      pop\n      swap3\n      swap1\n      pop\n      jump\t// out\n        /* \"#utility.yul\":2929:3055   */\n    tag_110:\n        /* \"#utility.yul\":2966:2973   */\n      0x00\n        /* \"#utility.yul\":3006:3048   */\n      0xffffffffffffffffffffffffffffffffffffffff\n        /* \"#utility.yul\":2999:3004   */\n      dup3\n        /* \"#utility.yul\":2995:3049   */\n      and\n        /* \"#utility.yul\":2984:3049   */\n      swap1\n      pop\n        /* \"#utility.yul\":2929:3055   */\n      swap2\n      swap1\n      pop\n      jump\t// out\n        /* \"#utility.yul\":3061:3157   */\n    tag_111:\n        /* \"#utility.yul\":3098:3105   */\n      0x00\n        /* \"#utility.yul\":3127:3151   */\n      tag_163\n        /* \"#utility.yul\":3145:3150   */\n      dup3\n        /* \"#utility.yul\":3127:3151   */\n      tag_110\n      jump\t// in\n    tag_163:\n        /* \"#utility.yul\":3116:3151   */\n      swap1\n      pop\n        /* \"#utility.yul\":3061:3157   */\n      swap2\n      swap1\n      pop\n      jump\t// out\n        /* \"#utility.yul\":3163:3281   */\n    tag_112:\n        /* \"#utility.yul\":3250:3274   */\n      tag_165\n        /* \"#utility.yul\":3268:3273   */\n      dup2\n        /* \"#utility.yul\":3250:3274   */\n      tag_111\n      jump\t// in\n    tag_165:\n        /* \"#utility.yul\":3245:3248   */\n      dup3\n        /* \"#utility.yul\":3238:3275   */\n      mstore\n        /* \"#utility.yul\":3163:3281   */\n      pop\n      pop\n      jump\t// out\n        /* \"#utility.yul\":3287:3509   */\n    tag_31:\n        /* \"#utility.yul\":3380:3384   */\n      0x00\n        /* \"#utility.yul\":3418:3420   */\n      0x20\n        /* \"#utility.yul\":3407:3416   */\n      dup3\n        /* \"#utility.yul\":3403:3421   */\n      add\n        /* \"#utility.yul\":3395:3421   */\n      swap1\n      pop\n        /* \"#utility.yul\":3431:3502   */\n      tag_167\n        /* \"#utility.yul\":3499:3500   */\n      0x00\n        /* \"#utility.yul\":3488:3497   */\n      dup4\n        /* \"#utility.yul\":3484:3501   */\n      add\n        /* \"#utility.yul\":3475:3481   */\n      dup5\n        /* \"#utility.yul\":3431:3502   */\n      tag_112\n      jump\t// in\n    tag_167:\n        /* \"#utility.yul\":3287:3509   */\n      swap3\n      swap2\n      pop\n      pop\n      jump\t// out\n        /* \"#utility.yul\":3515:3637   */\n    tag_113:\n        /* \"#utility.yul\":3588:3612   */\n      tag_169\n        /* \"#utility.yul\":3606:3611   */\n      dup2\n        /* \"#utility.yul\":3588:3612   */\n      tag_111\n      jump\t// in\n    tag_169:\n        /* \"#utility.yul\":3581:3586   */\n      dup2\n        /* \"#utility.yul\":3578:3613   */\n      eq\n        /* \"#utility.yul\":3568:3631   */\n      tag_170\n      jumpi\n        /* \"#utility.yul\":3627:3628   */\n      0x00\n        /* \"#utility.yul\":3624:3625   */\n      dup1\n        /* \"#utility.yul\":3617:3629   */\n      revert\n        /* \"#utility.yul\":3568:3631   */\n    tag_170:\n        /* \"#utility.yul\":3515:3637   */\n      pop\n      jump\t// out\n        /* \"#utility.yul\":3643:3782   */\n    tag_114:\n        /* \"#utility.yul\":3689:3694   */\n      0x00\n        /* \"#utility.yul\":3727:3733   */\n      dup2\n        /* \"#utility.yul\":3714:3734   */\n      calldataload\n        /* \"#utility.yul\":3705:3734   */\n      swap1\n      pop\n        /* \"#utility.yul\":3743:3776   */\n      tag_172\n        /* \"#utility.yul\":3770:3775   */\n      dup2\n        /* \"#utility.yul\":3743:3776   */\n      tag_113\n      jump\t// in\n    tag_172:\n        /* \"#utility.yul\":3643:3782   */\n      swap3\n      swap2\n      pop\n      pop\n      jump\t// out\n        /* \"#utility.yul\":3788:4117   */\n    tag_34:\n        /* \"#utility.yul\":3847:3853   */\n      0x00\n        /* \"#utility.yul\":3896:3898   */\n      0x20\n        /* \"#utility.yul\":3884:3893   */\n      dup3\n        /* \"#utility.yul\":3875:3882   */\n      dup5\n        /* \"#utility.yul\":3871:3894   */\n      sub\n        /* \"#utility.yul\":3867:3899   */\n      slt\n        /* \"#utility.yul\":3864:3983   */\n      iszero\n      tag_174\n      jumpi\n        /* \"#utility.yul\":3902:3981   */\n      tag_175\n      tag_99\n      jump\t// in\n    tag_175:\n        /* \"#utility.yul\":3864:3983   */\n    tag_174:\n        /* \"#utility.yul\":4022:4023   */\n      0x00\n        /* \"#utility.yul\":4047:4100   */\n      tag_176\n        /* \"#utility.yul\":4092:4099   */\n      dup5\n        /* \"#utility.yul\":4083:4089   */\n      dup3\n        /* \"#utility.yul\":4072:4081   */\n      dup6\n        /* \"#utility.yul\":4068:4090   */\n      add\n        /* \"#utility.yul\":4047:4100   */\n      tag_114\n      jump\t// in\n    tag_176:\n        /* \"#utility.yul\":4037:4100   */\n      swap2\n      pop\n        /* \"#utility.yul\":3993:4110   */\n      pop\n        /* \"#utility.yul\":3788:4117   */\n      swap3\n      swap2\n      pop\n      pop\n      jump\t// out\n        /* \"#utility.yul\":4123:4797   */\n    tag_43:\n        /* \"#utility.yul\":4203:4209   */\n      0x00\n        /* \"#utility.yul\":4211:4217   */\n      dup1\n        /* \"#utility.yul\":4219:4225   */\n      0x00\n        /* \"#utility.yul\":4268:4270   */\n      0x40\n        /* \"#utility.yul\":4256:4265   */\n      dup5\n        /* \"#utility.yul\":4247:4254   */\n      dup7\n        /* \"#utility.yul\":4243:4266   */\n      sub\n        /* \"#utility.yul\":4239:4271   */\n      slt\n        /* \"#utility.yul\":4236:4355   */\n      iszero\n      tag_178\n      jumpi\n        /* \"#utility.yul\":4274:4353   */\n      tag_179\n      tag_99\n      jump\t// in\n    tag_179:\n        /* \"#utility.yul\":4236:4355   */\n    tag_178:\n        /* \"#utility.yul\":4394:4395   */\n      0x00\n        /* \"#utility.yul\":4419:4472   */\n      tag_180\n        /* \"#utility.yul\":4464:4471   */\n      dup7\n        /* \"#utility.yul\":4455:4461   */\n      dup3\n        /* \"#utility.yul\":4444:4453   */\n      dup8\n        /* \"#utility.yul\":4440:4462   */\n      add\n        /* \"#utility.yul\":4419:4472   */\n      tag_114\n      jump\t// in\n    tag_180:\n        /* \"#utility.yul\":4409:4472   */\n      swap4\n      pop\n        /* \"#utility.yul\":4365:4482   */\n      pop\n        /* \"#utility.yul\":4549:4551   */\n      0x20\n        /* \"#utility.yul\":4538:4547   */\n      dup5\n        /* \"#utility.yul\":4534:4552   */\n      add\n        /* \"#utility.yul\":4521:4553   */\n      calldataload\n        /* \"#utility.yul\":4580:4598   */\n      0xffffffffffffffff\n        /* \"#utility.yul\":4572:4578   */\n      dup2\n        /* \"#utility.yul\":4569:4599   */\n      gt\n        /* \"#utility.yul\":4566:4683   */\n      iszero\n      tag_181\n      jumpi\n        /* \"#utility.yul\":4602:4681   */\n      tag_182\n      tag_100\n      jump\t// in\n    tag_182:\n        /* \"#utility.yul\":4566:4683   */\n    tag_181:\n        /* \"#utility.yul\":4715:4780   */\n      tag_183\n        /* \"#utility.yul\":4772:4779   */\n      dup7\n        /* \"#utility.yul\":4763:4769   */\n      dup3\n        /* \"#utility.yul\":4752:4761   */\n      dup8\n        /* \"#utility.yul\":4748:4770   */\n      add\n        /* \"#utility.yul\":4715:4780   */\n      tag_109\n      jump\t// in\n    tag_183:\n        /* \"#utility.yul\":4697:4780   */\n      swap3\n      pop\n      swap3\n      pop\n        /* \"#utility.yul\":4492:4790   */\n      pop\n        /* \"#utility.yul\":4123:4797   */\n      swap3\n      pop\n      swap3\n      pop\n      swap3\n      jump\t// out\n        /* \"#utility.yul\":4820:5388   */\n    tag_115:\n        /* \"#utility.yul\":4893:4901   */\n      0x00\n        /* \"#utility.yul\":4903:4909   */\n      dup1\n        /* \"#utility.yul\":4953:4956   */\n      dup4\n        /* \"#utility.yul\":4946:4950   */\n      0x1f\n        /* \"#utility.yul\":4938:4944   */\n      dup5\n        /* \"#utility.yul\":4934:4951   */\n      add\n        /* \"#utility.yul\":4930:4957   */\n      slt\n        /* \"#utility.yul\":4920:5042   */\n      tag_185\n      jumpi\n        /* \"#utility.yul\":4961:5040   */\n      tag_186\n      tag_106\n      jump\t// in\n    tag_186:\n        /* \"#utility.yul\":4920:5042   */\n    tag_185:\n        /* \"#utility.yul\":5074:5080   */\n      dup3\n        /* \"#utility.yul\":5061:5081   */\n      calldataload\n        /* \"#utility.yul\":5051:5081   */\n      swap1\n      pop\n        /* \"#utility.yul\":5104:5122   */\n      0xffffffffffffffff\n        /* \"#utility.yul\":5096:5102   */\n      dup2\n        /* \"#utility.yul\":5093:5123   */\n      gt\n        /* \"#utility.yul\":5090:5207   */\n      iszero\n      tag_187\n      jumpi\n        /* \"#utility.yul\":5126:5205   */\n      tag_188\n      tag_107\n      jump\t// in\n    tag_188:\n        /* \"#utility.yul\":5090:5207   */\n    tag_187:\n        /* \"#utility.yul\":5240:5244   */\n      0x20\n        /* \"#utility.yul\":5232:5238   */\n      dup4\n        /* \"#utility.yul\":5228:5245   */\n      add\n        /* \"#utility.yul\":5216:5245   */\n      swap2\n      pop\n        /* \"#utility.yul\":5294:5297   */\n      dup4\n        /* \"#utility.yul\":5286:5290   */\n      0x20\n        /* \"#utility.yul\":5278:5284   */\n      dup3\n        /* \"#utility.yul\":5274:5291   */\n      mul\n        /* \"#utility.yul\":5264:5272   */\n      dup4\n        /* \"#utility.yul\":5260:5292   */\n      add\n        /* \"#utility.yul\":5257:5298   */\n      gt\n        /* \"#utility.yul\":5254:5382   */\n      iszero\n      tag_189\n      jumpi\n        /* \"#utility.yul\":5301:5380   */\n      tag_190\n      tag_108\n      jump\t// in\n    tag_190:\n        /* \"#utility.yul\":5254:5382   */\n    tag_189:\n        /* \"#utility.yul\":4820:5388   */\n      swap3\n      pop\n      swap3\n      swap1\n      pop\n      jump\t// out\n        /* \"#utility.yul\":5394:5953   */\n    tag_51:\n        /* \"#utility.yul\":5480:5486   */\n      0x00\n        /* \"#utility.yul\":5488:5494   */\n      dup1\n        /* \"#utility.yul\":5537:5539   */\n      0x20\n        /* \"#utility.yul\":5525:5534   */\n      dup4\n        /* \"#utility.yul\":5516:5523   */\n      dup6\n        /* \"#utility.yul\":5512:5535   */\n      sub\n        /* \"#utility.yul\":5508:5540   */\n      slt\n        /* \"#utility.yul\":5505:5624   */\n      iszero\n      tag_192\n      jumpi\n        /* \"#utility.yul\":5543:5622   */\n      tag_193\n      tag_99\n      jump\t// in\n    tag_193:\n        /* \"#utility.yul\":5505:5624   */\n    tag_192:\n        /* \"#utility.yul\":5691:5692   */\n      0x00\n        /* \"#utility.yul\":5680:5689   */\n      dup4\n        /* \"#utility.yul\":5676:5693   */\n      add\n        /* \"#utility.yul\":5663:5694   */\n      calldataload\n        /* \"#utility.yul\":5721:5739   */\n      0xffffffffffffffff\n        /* \"#utility.yul\":5713:5719   */\n      dup2\n        /* \"#utility.yul\":5710:5740   */\n      gt\n        /* \"#utility.yul\":5707:5824   */\n      iszero\n      tag_194\n      jumpi\n        /* \"#utility.yul\":5743:5822   */\n      tag_195\n      tag_100\n      jump\t// in\n    tag_195:\n        /* \"#utility.yul\":5707:5824   */\n    tag_194:\n        /* \"#utility.yul\":5856:5936   */\n      tag_196\n        /* \"#utility.yul\":5928:5935   */\n      dup6\n        /* \"#utility.yul\":5919:5925   */\n      dup3\n        /* \"#utility.yul\":5908:5917   */\n      dup7\n        /* \"#utility.yul\":5904:5926   */\n      add\n        /* \"#utility.yul\":5856:5936   */\n      tag_115\n      jump\t// in\n    tag_196:\n        /* \"#utility.yul\":5838:5936   */\n      swap3\n      pop\n      swap3\n      pop\n        /* \"#utility.yul\":5634:5946   */\n      pop\n        /* \"#utility.yul\":5394:5953   */\n      swap3\n      pop\n      swap3\n      swap1\n      pop\n      jump\t// out\n        /* \"#utility.yul\":5975:6555   */\n    tag_116:\n        /* \"#utility.yul\":6060:6068   */\n      0x00\n        /* \"#utility.yul\":6070:6076   */\n      dup1\n        /* \"#utility.yul\":6120:6123   */\n      dup4\n        /* \"#utility.yul\":6113:6117   */\n      0x1f\n        /* \"#utility.yul\":6105:6111   */\n      dup5\n        /* \"#utility.yul\":6101:6118   */\n      add\n        /* \"#utility.yul\":6097:6124   */\n      slt\n        /* \"#utility.yul\":6087:6209   */\n      tag_198\n      jumpi\n        /* \"#utility.yul\":6128:6207   */\n      tag_199\n      tag_106\n      jump\t// in\n    tag_199:\n        /* \"#utility.yul\":6087:6209   */\n    tag_198:\n        /* \"#utility.yul\":6241:6247   */\n      dup3\n        /* \"#utility.yul\":6228:6248   */\n      calldataload\n        /* \"#utility.yul\":6218:6248   */\n      swap1\n      pop\n        /* \"#utility.yul\":6271:6289   */\n      0xffffffffffffffff\n        /* \"#utility.yul\":6263:6269   */\n      dup2\n        /* \"#utility.yul\":6260:6290   */\n      gt\n        /* \"#utility.yul\":6257:6374   */\n      iszero\n      tag_200\n      jumpi\n        /* \"#utility.yul\":6293:6372   */\n      tag_201\n      tag_107\n      jump\t// in\n    tag_201:\n        /* \"#utility.yul\":6257:6374   */\n    tag_200:\n        /* \"#utility.yul\":6407:6411   */\n      0x20\n        /* \"#utility.yul\":6399:6405   */\n      dup4\n        /* \"#utility.yul\":6395:6412   */\n      add\n        /* \"#utility.yul\":6383:6412   */\n      swap2\n      pop\n        /* \"#utility.yul\":6461:6464   */\n      dup4\n        /* \"#utility.yul\":6453:6457   */\n      0x20\n        /* \"#utility.yul\":6445:6451   */\n      dup3\n        /* \"#utility.yul\":6441:6458   */\n      mul\n        /* \"#utility.yul\":6431:6439   */\n      dup4\n        /* \"#utility.yul\":6427:6459   */\n      add\n        /* \"#utility.yul\":6424:6465   */\n      gt\n        /* \"#utility.yul\":6421:6549   */\n      iszero\n      tag_202\n      jumpi\n        /* \"#utility.yul\":6468:6547   */\n      tag_203\n      tag_108\n      jump\t// in\n    tag_203:\n        /* \"#utility.yul\":6421:6549   */\n    tag_202:\n        /* \"#utility.yul\":5975:6555   */\n      swap3\n      pop\n      swap3\n      swap1\n      pop\n      jump\t// out\n        /* \"#utility.yul\":6561:7144   */\n    tag_55:\n        /* \"#utility.yul\":6659:6665   */\n      0x00\n        /* \"#utility.yul\":6667:6673   */\n      dup1\n        /* \"#utility.yul\":6716:6718   */\n      0x20\n        /* \"#utility.yul\":6704:6713   */\n      dup4\n        /* \"#utility.yul\":6695:6702   */\n      dup6\n        /* \"#utility.yul\":6691:6714   */\n      sub\n        /* \"#utility.yul\":6687:6719   */\n      slt\n        /* \"#utility.yul\":6684:6803   */\n      iszero\n      tag_205\n      jumpi\n        /* \"#utility.yul\":6722:6801   */\n      tag_206\n      tag_99\n      jump\t// in\n    tag_206:\n        /* \"#utility.yul\":6684:6803   */\n    tag_205:\n        /* \"#utility.yul\":6870:6871   */\n      0x00\n        /* \"#utility.yul\":6859:6868   */\n      dup4\n        /* \"#utility.yul\":6855:6872   */\n      add\n        /* \"#utility.yul\":6842:6873   */\n      calldataload\n        /* \"#utility.yul\":6900:6918   */\n      0xffffffffffffffff\n        /* \"#utility.yul\":6892:6898   */\n      dup2\n        /* \"#utility.yul\":6889:6919   */\n      gt\n        /* \"#utility.yul\":6886:7003   */\n      iszero\n      tag_207\n      jumpi\n        /* \"#utility.yul\":6922:7001   */\n      tag_208\n      tag_100\n      jump\t// in\n    tag_208:\n        /* \"#utility.yul\":6886:7003   */\n    tag_207:\n        /* \"#utility.yul\":7035:7127   */\n      tag_209\n        /* \"#utility.yul\":7119:7126   */\n      dup6\n        /* \"#utility.yul\":7110:7116   */\n      dup3\n        /* \"#utility.yul\":7099:7108   */\n      dup7\n        /* \"#utility.yul\":7095:7117   */\n      add\n        /* \"#utility.yul\":7035:7127   */\n      tag_116\n      jump\t// in\n    tag_209:\n        /* \"#utility.yul\":7017:7127   */\n      swap3\n      pop\n      swap3\n      pop\n        /* \"#utility.yul\":6813:7137   */\n      pop\n        /* \"#utility.yul\":6561:7144   */\n      swap3\n      pop\n      swap3\n      swap1\n      pop\n      jump\t// out\n        /* \"#utility.yul\":7150:7298   */\n    tag_117:\n        /* \"#utility.yul\":7252:7263   */\n      0x00\n        /* \"#utility.yul\":7289:7292   */\n      dup2\n        /* \"#utility.yul\":7274:7292   */\n      swap1\n      pop\n        /* \"#utility.yul\":7150:7298   */\n      swap3\n      swap2\n      pop\n      pop\n      jump\t// out\n        /* \"#utility.yul\":7304:7452   */\n    tag_118:\n        /* \"#utility.yul\":7402:7408   */\n      dup3\n        /* \"#utility.yul\":7397:7400   */\n      dup2\n        /* \"#utility.yul\":7392:7395   */\n      dup4\n        /* \"#utility.yul\":7379:7409   */\n      calldatacopy\n        /* \"#utility.yul\":7443:7444   */\n      0x00\n        /* \"#utility.yul\":7434:7440   */\n      dup4\n        /* \"#utility.yul\":7429:7432   */\n      dup4\n        /* \"#utility.yul\":7425:7441   */\n      add\n        /* \"#utility.yul\":7418:7445   */\n      mstore\n        /* \"#utility.yul\":7304:7452   */\n      pop\n      pop\n      pop\n      jump\t// out\n        /* \"#utility.yul\":7482:7812   */\n    tag_119:\n        /* \"#utility.yul\":7598:7601   */\n      0x00\n        /* \"#utility.yul\":7619:7708   */\n      tag_213\n        /* \"#utility.yul\":7701:7707   */\n      dup4\n        /* \"#utility.yul\":7696:7699   */\n      dup6\n        /* \"#utility.yul\":7619:7708   */\n      tag_117\n      jump\t// in\n    tag_213:\n        /* \"#utility.yul\":7612:7708   */\n      swap4\n      pop\n        /* \"#utility.yul\":7718:7774   */\n      tag_214\n        /* \"#utility.yul\":7767:7773   */\n      dup4\n        /* \"#utility.yul\":7762:7765   */\n      dup6\n        /* \"#utility.yul\":7755:7760   */\n      dup5\n        /* \"#utility.yul\":7718:7774   */\n      tag_118\n      jump\t// in\n    tag_214:\n        /* \"#utility.yul\":7799:7805   */\n      dup3\n        /* \"#utility.yul\":7794:7797   */\n      dup5\n        /* \"#utility.yul\":7790:7806   */\n      add\n        /* \"#utility.yul\":7783:7806   */\n      swap1\n      pop\n        /* \"#utility.yul\":7482:7812   */\n      swap4\n      swap3\n      pop\n      pop\n      pop\n      jump\t// out\n        /* \"#utility.yul\":7818:8113   */\n    tag_59:\n        /* \"#utility.yul\":7960:7963   */\n      0x00\n        /* \"#utility.yul\":7982:8087   */\n      tag_216\n        /* \"#utility.yul\":8083:8086   */\n      dup3\n        /* \"#utility.yul\":8074:8080   */\n      dup5\n        /* \"#utility.yul\":8066:8072   */\n      dup7\n        /* \"#utility.yul\":7982:8087   */\n      tag_119\n      jump\t// in\n    tag_216:\n        /* \"#utility.yul\":7975:8087   */\n      swap2\n      pop\n        /* \"#utility.yul\":8104:8107   */\n      dup2\n        /* \"#utility.yul\":8097:8107   */\n      swap1\n      pop\n        /* \"#utility.yul\":7818:8113   */\n      swap4\n      swap3\n      pop\n      pop\n      pop\n      jump\t// out\n        /* \"#utility.yul\":8119:8288   */\n    tag_120:\n        /* \"#utility.yul\":8203:8214   */\n      0x00\n        /* \"#utility.yul\":8237:8243   */\n      dup3\n        /* \"#utility.yul\":8232:8235   */\n      dup3\n        /* \"#utility.yul\":8225:8244   */\n      mstore\n        /* \"#utility.yul\":8277:8281   */\n      0x20\n        /* \"#utility.yul\":8272:8275   */\n      dup3\n        /* \"#utility.yul\":8268:8282   */\n      add\n        /* \"#utility.yul\":8253:8282   */\n      swap1\n      pop\n        /* \"#utility.yul\":8119:8288   */\n      swap3\n      swap2\n      pop\n      pop\n      jump\t// out\n        /* \"#utility.yul\":8294:8458   */\n    tag_121:\n        /* \"#utility.yul\":8434:8450   */\n      0x4e6f7420617574686f72697a6564000000000000000000000000000000000000\n        /* \"#utility.yul\":8430:8431   */\n      0x00\n        /* \"#utility.yul\":8422:8428   */\n      dup3\n        /* \"#utility.yul\":8418:8432   */\n      add\n        /* \"#utility.yul\":8411:8451   */\n      mstore\n        /* \"#utility.yul\":8294:8458   */\n      pop\n      jump\t// out\n        /* \"#utility.yul\":8464:8830   */\n    tag_122:\n        /* \"#utility.yul\":8606:8609   */\n      0x00\n        /* \"#utility.yul\":8627:8694   */\n      tag_220\n        /* \"#utility.yul\":8691:8693   */\n      0x0e\n        /* \"#utility.yul\":8686:8689   */\n      dup4\n        /* \"#utility.yul\":8627:8694   */\n      tag_120\n      jump\t// in\n    tag_220:\n        /* \"#utility.yul\":8620:8694   */\n      swap2\n      pop\n        /* \"#utility.yul\":8703:8796   */\n      tag_221\n        /* \"#utility.yul\":8792:8795   */\n      dup3\n        /* \"#utility.yul\":8703:8796   */\n      tag_121\n      jump\t// in\n    tag_221:\n        /* \"#utility.yul\":8821:8823   */\n      0x20\n        /* \"#utility.yul\":8816:8819   */\n      dup3\n        /* \"#utility.yul\":8812:8824   */\n      add\n        /* \"#utility.yul\":8805:8824   */\n      swap1\n      pop\n        /* \"#utility.yul\":8464:8830   */\n      swap2\n      swap1\n      pop\n      jump\t// out\n        /* \"#utility.yul\":8836:9255   */\n    tag_63:\n        /* \"#utility.yul\":9002:9006   */\n      0x00\n        /* \"#utility.yul\":9040:9042   */\n      0x20\n        /* \"#utility.yul\":9029:9038   */\n      dup3\n        /* \"#utility.yul\":9025:9043   */\n      add\n        /* \"#utility.yul\":9017:9043   */\n      swap1\n      pop\n        /* \"#utility.yul\":9089:9098   */\n      dup2\n        /* \"#utility.yul\":9083:9087   */\n      dup2\n        /* \"#utility.yul\":9079:9099   */\n      sub\n        /* \"#utility.yul\":9075:9076   */\n      0x00\n        /* \"#utility.yul\":9064:9073   */\n      dup4\n        /* \"#utility.yul\":9060:9077   */\n      add\n        /* \"#utility.yul\":9053:9100   */\n      mstore\n        /* \"#utility.yul\":9117:9248   */\n      tag_223\n        /* \"#utility.yul\":9243:9247   */\n      dup2\n        /* \"#utility.yul\":9117:9248   */\n      tag_122\n      jump\t// in\n    tag_223:\n        /* \"#utility.yul\":9109:9248   */\n      swap1\n      pop\n        /* \"#utility.yul\":8836:9255   */\n      swap2\n      swap1\n      pop\n      jump\t// out\n        /* \"#utility.yul\":9261:9441   */\n    tag_84:\n        /* \"#utility.yul\":9309:9386   */\n      0x4e487b7100000000000000000000000000000000000000000000000000000000\n        /* \"#utility.yul\":9306:9307   */\n      0x00\n        /* \"#utility.yul\":9299:9387   */\n      mstore\n        /* \"#utility.yul\":9406:9410   */\n      0x32\n        /* \"#utility.yul\":9403:9404   */\n      0x04\n        /* \"#utility.yul\":9396:9411   */\n      mstore\n        /* \"#utility.yul\":9430:9434   */\n      0x24\n        /* \"#utility.yul\":9427:9428   */\n      0x00\n        /* \"#utility.yul\":9420:9435   */\n      revert\n        /* \"#utility.yul\":9447:9564   */\n    tag_123:\n        /* \"#utility.yul\":9556:9557   */\n      0x00\n        /* \"#utility.yul\":9553:9554   */\n      dup1\n        /* \"#utility.yul\":9546:9558   */\n      revert\n        /* \"#utility.yul\":9570:9687   */\n    tag_124:\n        /* \"#utility.yul\":9679:9680   */\n      0x00\n        /* \"#utility.yul\":9676:9677   */\n      dup1\n        /* \"#utility.yul\":9669:9681   */\n      revert\n        /* \"#utility.yul\":9693:9810   */\n    tag_125:\n        /* \"#utility.yul\":9802:9803   */\n      0x00\n        /* \"#utility.yul\":9799:9800   */\n      dup1\n        /* \"#utility.yul\":9792:9804   */\n      revert\n        /* \"#utility.yul\":9816:10541   */\n    tag_96:\n        /* \"#utility.yul\":9894:9898   */\n      0x00\n        /* \"#utility.yul\":9900:9906   */\n      dup1\n        /* \"#utility.yul\":9956:9967   */\n      dup4\n        /* \"#utility.yul\":9943:9968   */\n      calldataload\n        /* \"#utility.yul\":10056:10057   */\n      0x01\n        /* \"#utility.yul\":10050:10054   */\n      0x20\n        /* \"#utility.yul\":10046:10058   */\n      sub\n        /* \"#utility.yul\":10035:10043   */\n      dup5\n        /* \"#utility.yul\":10019:10033   */\n      calldatasize\n        /* \"#utility.yul\":10015:10044   */\n      sub\n        /* \"#utility.yul\":10011:10059   */\n      sub\n        /* \"#utility.yul\":9991:10009   */\n      dup2\n        /* \"#utility.yul\":9987:10060   */\n      slt\n        /* \"#utility.yul\":9977:10145   */\n      tag_229\n      jumpi\n        /* \"#utility.yul\":10064:10143   */\n      tag_230\n      tag_123\n      jump\t// in\n    tag_230:\n        /* \"#utility.yul\":9977:10145   */\n    tag_229:\n        /* \"#utility.yul\":10176:10194   */\n      dup1\n        /* \"#utility.yul\":10166:10174   */\n      dup5\n        /* \"#utility.yul\":10162:10195   */\n      add\n        /* \"#utility.yul\":10154:10195   */\n      swap3\n      pop\n        /* \"#utility.yul\":10228:10232   */\n      dup3\n        /* \"#utility.yul\":10215:10233   */\n      calldataload\n        /* \"#utility.yul\":10205:10233   */\n      swap2\n      pop\n        /* \"#utility.yul\":10256:10274   */\n      0xffffffffffffffff\n        /* \"#utility.yul\":10248:10254   */\n      dup3\n        /* \"#utility.yul\":10245:10275   */\n      gt\n        /* \"#utility.yul\":10242:10359   */\n      iszero\n      tag_231\n      jumpi\n        /* \"#utility.yul\":10278:10357   */\n      tag_232\n      tag_124\n      jump\t// in\n    tag_232:\n        /* \"#utility.yul\":10242:10359   */\n    tag_231:\n        /* \"#utility.yul\":10386:10388   */\n      0x20\n        /* \"#utility.yul\":10380:10384   */\n      dup4\n        /* \"#utility.yul\":10376:10389   */\n      add\n        /* \"#utility.yul\":10368:10389   */\n      swap3\n      pop\n        /* \"#utility.yul\":10443:10447   */\n      0x01\n        /* \"#utility.yul\":10435:10441   */\n      dup3\n        /* \"#utility.yul\":10431:10448   */\n      mul\n        /* \"#utility.yul\":10415:10429   */\n      calldatasize\n        /* \"#utility.yul\":10411:10449   */\n      sub\n        /* \"#utility.yul\":10405:10409   */\n      dup4\n        /* \"#utility.yul\":10401:10450   */\n      sgt\n        /* \"#utility.yul\":10398:10534   */\n      iszero\n      tag_233\n      jumpi\n        /* \"#utility.yul\":10453:10532   */\n      tag_234\n      tag_125\n      jump\t// in\n    tag_234:\n        /* \"#utility.yul\":10398:10534   */\n    tag_233:\n        /* \"#utility.yul\":9907:10541   */\n      pop\n        /* \"#utility.yul\":9816:10541   */\n      swap3\n      pop\n      swap3\n      swap1\n      pop\n      jump\t// out\n\n    auxdata: 0xa2646970667358221220b953931780b27822d470eb7eed57a6ea014f49253939934497d7387da0e8c1b864736f6c634300081a0033\n}\n",
				"bytecode": {
					"linkReferences": {},
					"object": "6080604052348015600e575f80fd5b50335f806101000a81548173ffffffffffffffffffffffffffffffffffffffff021916908373ffffffffffffffffffffffffffffffffffffffff160217905550610c888061005b5f395ff3fe608060405234801561000f575f80fd5b506004361061009c575f3560e01c8063aac8f96711610064578063aac8f9671461016a578063c1233d611461019a578063efeb5f1f146101ca578063faa7d287146101e6578063fcf6389a146102025761009c565b8063836832da146100a057806385db9d2c146100d057806389aae99a146101005780638da5cb5b1461011c578063a80dcfee1461013a575b5f80fd5b6100ba60048036038101906100b59190610797565b61021e565b6040516100c791906107dc565b60405180910390f35b6100ea60048036038101906100e59190610856565b61023b565b6040516100f791906107dc565b60405180910390f35b61011a60048036038101906101159190610856565b61028f565b005b610124610376565b60405161013191906108e0565b60405180910390f35b610154600480360381019061014f9190610923565b610399565b60405161016191906107dc565b60405180910390f35b610184600480360381019061017f9190610923565b6103b6565b60405161019191906107dc565b60405180910390f35b6101b460048036038101906101af919061094e565b610408565b6040516101c191906107dc565b60405180910390f35b6101e460048036038101906101df9190610923565b61042c565b005b61020060048036038101906101fb9190610a00565b610510565b005b61021c60048036038101906102179190610aa0565b610637565b005b6002602052805f5260405f205f915054906101000a900460ff1681565b5f808383604051602001610250929190610b27565b60405160208183030381529060405280519060200120905060025f8281526020019081526020015f205f9054906101000a900460ff1691505092915050565b5f8054906101000a900473ffffffffffffffffffffffffffffffffffffffff1673ffffffffffffffffffffffffffffffffffffffff163373ffffffffffffffffffffffffffffffffffffffff161461031c576040517f08c379a000000000000000000000000000000000000000000000000000000000815260040161031390610b99565b60405180910390fd5b5f8282604051602001610330929190610b27565b604051602081830303815290604052805190602001209050600160025f8381526020019081526020015f205f6101000a81548160ff021916908315150217905550505050565b5f8054906101000a900473ffffffffffffffffffffffffffffffffffffffff1681565b6001602052805f5260405f205f915054906101000a900460ff1681565b5f60015f8373ffffffffffffffffffffffffffffffffffffffff1673ffffffffffffffffffffffffffffffffffffffff1681526020019081526020015f205f9054906101000a900460ff169050919050565b5f610412846103b6565b806104235750610422838361023b565b5b90509392505050565b5f8054906101000a900473ffffffffffffffffffffffffffffffffffffffff1673ffffffffffffffffffffffffffffffffffffffff163373ffffffffffffffffffffffffffffffffffffffff16146104b9576040517f08c379a00000000000000000000000000000000000000000000000000000000081526004016104b090610b99565b60405180910390fd5b6001805f8373ffffffffffffffffffffffffffffffffffffffff1673ffffffffffffffffffffffffffffffffffffffff1681526020019081526020015f205f6101000a81548160ff02191690831515021790555050565b5f8054906101000a900473ffffffffffffffffffffffffffffffffffffffff1673ffffffffffffffffffffffffffffffffffffffff163373ffffffffffffffffffffffffffffffffffffffff161461059d576040517f08c379a000000000000000000000000000000000000000000000000000000000815260040161059490610b99565b60405180910390fd5b5f5b82829050811015610632576001805f8585858181106105c1576105c0610bb7565b5b90506020020160208101906105d69190610923565b73ffffffffffffffffffffffffffffffffffffffff1673ffffffffffffffffffffffffffffffffffffffff1681526020019081526020015f205f6101000a81548160ff021916908315150217905550808060010191505061059f565b505050565b5f8054906101000a900473ffffffffffffffffffffffffffffffffffffffff1673ffffffffffffffffffffffffffffffffffffffff163373ffffffffffffffffffffffffffffffffffffffff16146106c4576040517f08c379a00000000000000000000000000000000000000000000000000000000081526004016106bb90610b99565b60405180910390fd5b5f5b82829050811015610757575f8383838181106106e5576106e4610bb7565b5b90506020028101906106f79190610bf0565b604051602001610708929190610b27565b604051602081830303815290604052805190602001209050600160025f8381526020019081526020015f205f6101000a81548160ff0219169083151502179055505080806001019150506106c6565b505050565b5f80fd5b5f80fd5b5f819050919050565b61077681610764565b8114610780575f80fd5b50565b5f813590506107918161076d565b92915050565b5f602082840312156107ac576107ab61075c565b5b5f6107b984828501610783565b91505092915050565b5f8115159050919050565b6107d6816107c2565b82525050565b5f6020820190506107ef5f8301846107cd565b92915050565b5f80fd5b5f80fd5b5f80fd5b5f8083601f840112610816576108156107f5565b5b8235905067ffffffffffffffff811115610833576108326107f9565b5b60208301915083600182028301111561084f5761084e6107fd565b5b9250929050565b5f806020838503121561086c5761086b61075c565b5b5f83013567ffffffffffffffff81111561088957610888610760565b5b61089585828601610801565b92509250509250929050565b5f73ffffffffffffffffffffffffffffffffffffffff82169050919050565b5f6108ca826108a1565b9050919050565b6108da816108c0565b82525050565b5f6020820190506108f35f8301846108d1565b92915050565b610902816108c0565b811461090c575f80fd5b50565b5f8135905061091d816108f9565b92915050565b5f602082840312156109385761093761075c565b5b5f6109458482850161090f565b91505092915050565b5f805f604084860312156109655761096461075c565b5b5f6109728682870161090f565b935050602084013567ffffffffffffffff81111561099357610992610760565b5b61099f86828701610801565b92509250509250925092565b5f8083601f8401126109c0576109bf6107f5565b5b8235905067ffffffffffffffff8111156109dd576109dc6107f9565b5b6020830191508360208202830111156109f9576109f86107fd565b5b9250929050565b5f8060208385031215610a1657610a1561075c565b5b5f83013567ffffffffffffffff811115610a3357610a32610760565b5b610a3f858286016109ab565b92509250509250929050565b5f8083601f840112610a6057610a5f6107f5565b5b8235905067ffffffffffffffff811115610a7d57610a7c6107f9565b5b602083019150836020820283011115610a9957610a986107fd565b5b9250929050565b5f8060208385031215610ab657610ab561075c565b5b5f83013567ffffffffffffffff811115610ad357610ad2610760565b5b610adf85828601610a4b565b92509250509250929050565b5f81905092915050565b828183375f83830152505050565b5f610b0e8385610aeb565b9350610b1b838584610af5565b82840190509392505050565b5f610b33828486610b03565b91508190509392505050565b5f82825260208201905092915050565b7f4e6f7420617574686f72697a65640000000000000000000000000000000000005f82015250565b5f610b83600e83610b3f565b9150610b8e82610b4f565b602082019050919050565b5f6020820190508181035f830152610bb081610b77565b9050919050565b7f4e487b71000000000000000000000000000000000000000000000000000000005f52603260045260245ffd5b5f80fd5b5f80fd5b5f80fd5b5f8083356001602003843603038112610c0c57610c0b610be4565b5b80840192508235915067ffffffffffffffff821115610c2e57610c2d610be8565b5b602083019250600182023603831315610c4a57610c49610bec565b5b50925092905056fea2646970667358221220b953931780b27822d470eb7eed57a6ea014f49253939934497d7387da0e8c1b864736f6c634300081a0033",
					"opcodes": "PUSH1 0x80 PUSH1 0x40 MSTORE CALLVALUE DUP1 ISZERO PUSH1 0xE JUMPI PUSH0 DUP1 REVERT JUMPDEST POP CALLER PUSH0 DUP1 PUSH2 0x100 EXP DUP2 SLOAD DUP2 PUSH20 0xFFFFFFFFFFFFFFFFFFFFFFFFFFFFFFFFFFFFFFFF MUL NOT AND SWAP1 DUP4 PUSH20 0xFFFFFFFFFFFFFFFFFFFFFFFFFFFFFFFFFFFFFFFF AND MUL OR SWAP1 SSTORE POP PUSH2 0xC88 DUP1 PUSH2 0x5B PUSH0 CODECOPY PUSH0 RETURN INVALID PUSH1 0x80 PUSH1 0x40 MSTORE CALLVALUE DUP1 ISZERO PUSH2 0xF JUMPI PUSH0 DUP1 REVERT JUMPDEST POP PUSH1 0x4 CALLDATASIZE LT PUSH2 0x9C JUMPI PUSH0 CALLDATALOAD PUSH1 0xE0 SHR DUP1 PUSH4 0xAAC8F967 GT PUSH2 0x64 JUMPI DUP1 PUSH4 0xAAC8F967 EQ PUSH2 0x16A JUMPI DUP1 PUSH4 0xC1233D61 EQ PUSH2 0x19A JUMPI DUP1 PUSH4 0xEFEB5F1F EQ PUSH2 0x1CA JUMPI DUP1 PUSH4 0xFAA7D287 EQ PUSH2 0x1E6 JUMPI DUP1 PUSH4 0xFCF6389A EQ PUSH2 0x202 JUMPI PUSH2 0x9C JUMP JUMPDEST DUP1 PUSH4 0x836832DA EQ PUSH2 0xA0 JUMPI DUP1 PUSH4 0x85DB9D2C EQ PUSH2 0xD0 JUMPI DUP1 PUSH4 0x89AAE99A EQ PUSH2 0x100 JUMPI DUP1 PUSH4 0x8DA5CB5B EQ PUSH2 0x11C JUMPI DUP1 PUSH4 0xA80DCFEE EQ PUSH2 0x13A JUMPI JUMPDEST PUSH0 DUP1 REVERT JUMPDEST PUSH2 0xBA PUSH1 0x4 DUP1 CALLDATASIZE SUB DUP2 ADD SWAP1 PUSH2 0xB5 SWAP2 SWAP1 PUSH2 0x797 JUMP JUMPDEST PUSH2 0x21E JUMP JUMPDEST PUSH1 0x40 MLOAD PUSH2 0xC7 SWAP2 SWAP1 PUSH2 0x7DC JUMP JUMPDEST PUSH1 0x40 MLOAD DUP1 SWAP2 SUB SWAP1 RETURN JUMPDEST PUSH2 0xEA PUSH1 0x4 DUP1 CALLDATASIZE SUB DUP2 ADD SWAP1 PUSH2 0xE5 SWAP2 SWAP1 PUSH2 0x856 JUMP JUMPDEST PUSH2 0x23B JUMP JUMPDEST PUSH1 0x40 MLOAD PUSH2 0xF7 SWAP2 SWAP1 PUSH2 0x7DC JUMP JUMPDEST PUSH1 0x40 MLOAD DUP1 SWAP2 SUB SWAP1 RETURN JUMPDEST PUSH2 0x11A PUSH1 0x4 DUP1 CALLDATASIZE SUB DUP2 ADD SWAP1 PUSH2 0x115 SWAP2 SWAP1 PUSH2 0x856 JUMP JUMPDEST PUSH2 0x28F JUMP JUMPDEST STOP JUMPDEST PUSH2 0x124 PUSH2 0x376 JUMP JUMPDEST PUSH1 0x40 MLOAD PUSH2 0x131 SWAP2 SWAP1 PUSH2 0x8E0 JUMP JUMPDEST PUSH1 0x40 MLOAD DUP1 SWAP2 SUB SWAP1 RETURN JUMPDEST PUSH2 0x154 PUSH1 0x4 DUP1 CALLDATASIZE SUB DUP2 ADD SWAP1 PUSH2 0x14F SWAP2 SWAP1 PUSH2 0x923 JUMP JUMPDEST PUSH2 0x399 JUMP JUMPDEST PUSH1 0x40 MLOAD PUSH2 0x161 SWAP2 SWAP1 PUSH2 0x7DC JUMP JUMPDEST PUSH1 0x40 MLOAD DUP1 SWAP2 SUB SWAP1 RETURN JUMPDEST PUSH2 0x184 PUSH1 0x4 DUP1 CALLDATASIZE SUB DUP2 ADD SWAP1 PUSH2 0x17F SWAP2 SWAP1 PUSH2 0x923 JUMP JUMPDEST PUSH2 0x3B6 JUMP JUMPDEST PUSH1 0x40 MLOAD PUSH2 0x191 SWAP2 SWAP1 PUSH2 0x7DC JUMP JUMPDEST PUSH1 0x40 MLOAD DUP1 SWAP2 SUB SWAP1 RETURN JUMPDEST PUSH2 0x1B4 PUSH1 0x4 DUP1 CALLDATASIZE SUB DUP2 ADD SWAP1 PUSH2 0x1AF SWAP2 SWAP1 PUSH2 0x94E JUMP JUMPDEST PUSH2 0x408 JUMP JUMPDEST PUSH1 0x40 MLOAD PUSH2 0x1C1 SWAP2 SWAP1 PUSH2 0x7DC JUMP JUMPDEST PUSH1 0x40 MLOAD DUP1 SWAP2 SUB SWAP1 RETURN JUMPDEST PUSH2 0x1E4 PUSH1 0x4 DUP1 CALLDATASIZE SUB DUP2 ADD SWAP1 PUSH2 0x1DF SWAP2 SWAP1 PUSH2 0x923 JUMP JUMPDEST PUSH2 0x42C JUMP JUMPDEST STOP JUMPDEST PUSH2 0x200 PUSH1 0x4 DUP1 CALLDATASIZE SUB DUP2 ADD SWAP1 PUSH2 0x1FB SWAP2 SWAP1 PUSH2 0xA00 JUMP JUMPDEST PUSH2 0x510 JUMP JUMPDEST STOP JUMPDEST PUSH2 0x21C PUSH1 0x4 DUP1 CALLDATASIZE SUB DUP2 ADD SWAP1 PUSH2 0x217 SWAP2 SWAP1 PUSH2 0xAA0 JUMP JUMPDEST PUSH2 0x637 JUMP JUMPDEST STOP JUMPDEST PUSH1 0x2 PUSH1 0x20 MSTORE DUP1 PUSH0 MSTORE PUSH1 0x40 PUSH0 KECCAK256 PUSH0 SWAP2 POP SLOAD SWAP1 PUSH2 0x100 EXP SWAP1 DIV PUSH1 0xFF AND DUP2 JUMP JUMPDEST PUSH0 DUP1 DUP4 DUP4 PUSH1 0x40 MLOAD PUSH1 0x20 ADD PUSH2 0x250 SWAP3 SWAP2 SWAP1 PUSH2 0xB27 JUMP JUMPDEST PUSH1 0x40 MLOAD PUSH1 0x20 DUP2 DUP4 SUB SUB DUP2 MSTORE SWAP1 PUSH1 0x40 MSTORE DUP1 MLOAD SWAP1 PUSH1 0x20 ADD KECCAK256 SWAP1 POP PUSH1 0x2 PUSH0 DUP3 DUP2 MSTORE PUSH1 0x20 ADD SWAP1 DUP2 MSTORE PUSH1 0x20 ADD PUSH0 KECCAK256 PUSH0 SWAP1 SLOAD SWAP1 PUSH2 0x100 EXP SWAP1 DIV PUSH1 0xFF AND SWAP2 POP POP SWAP3 SWAP2 POP POP JUMP JUMPDEST PUSH0 DUP1 SLOAD SWAP1 PUSH2 0x100 EXP SWAP1 DIV PUSH20 0xFFFFFFFFFFFFFFFFFFFFFFFFFFFFFFFFFFFFFFFF AND PUSH20 0xFFFFFFFFFFFFFFFFFFFFFFFFFFFFFFFFFFFFFFFF AND CALLER PUSH20 0xFFFFFFFFFFFFFFFFFFFFFFFFFFFFFFFFFFFFFFFF AND EQ PUSH2 0x31C JUMPI PUSH1 0x40 MLOAD PUSH32 0x8C379A000000000000000000000000000000000000000000000000000000000 DUP2 MSTORE PUSH1 0x4 ADD PUSH2 0x313 SWAP1 PUSH2 0xB99 JUMP JUMPDEST PUSH1 0x40 MLOAD DUP1 SWAP2 SUB SWAP1 REVERT JUMPDEST PUSH0 DUP3 DUP3 PUSH1 0x40 MLOAD PUSH1 0x20 ADD PUSH2 0x330 SWAP3 SWAP2 SWAP1 PUSH2 0xB27 JUMP JUMPDEST PUSH1 0x40 MLOAD PUSH1 0x20 DUP2 DUP4 SUB SUB DUP2 MSTORE SWAP1 PUSH1 0x40 MSTORE DUP1 MLOAD SWAP1 PUSH1 0x20 ADD KECCAK256 SWAP1 POP PUSH1 0x1 PUSH1 0x2 PUSH0 DUP4 DUP2 MSTORE PUSH1 0x20 ADD SWAP1 DUP2 MSTORE PUSH1 0x20 ADD PUSH0 KECCAK256 PUSH0 PUSH2 0x100 EXP DUP2 SLOAD DUP2 PUSH1 0xFF MUL NOT AND SWAP1 DUP4 ISZERO ISZERO MUL OR SWAP1 SSTORE POP POP POP POP JUMP JUMPDEST PUSH0 DUP1 SLOAD SWAP1 PUSH2 0x100 EXP SWAP1 DIV PUSH20 0xFFFFFFFFFFFFFFFFFFFFFFFFFFFFFFFFFFFFFFFF AND DUP2 JUMP JUMPDEST PUSH1 0x1 PUSH1 0x20 MSTORE DUP1 PUSH0 MSTORE PUSH1 0x40 PUSH0 KECCAK256 PUSH0 SWAP2 POP SLOAD SWAP1 PUSH2 0x100 EXP SWAP1 DIV PUSH1 0xFF AND DUP2 JUMP JUMPDEST PUSH0 PUSH1 0x1 PUSH0 DUP4 PUSH20 0xFFFFFFFFFFFFFFFFFFFFFFFFFFFFFFFFFFFFFFFF AND PUSH20 0xFFFFFFFFFFFFFFFFFFFFFFFFFFFFFFFFFFFFFFFF AND DUP2 MSTORE PUSH1 0x20 ADD SWAP1 DUP2 MSTORE PUSH1 0x20 ADD PUSH0 KECCAK256 PUSH0 SWAP1 SLOAD SWAP1 PUSH2 0x100 EXP SWAP1 DIV PUSH1 0xFF AND SWAP1 POP SWAP2 SWAP1 POP JUMP JUMPDEST PUSH0 PUSH2 0x412 DUP5 PUSH2 0x3B6 JUMP JUMPDEST DUP1 PUSH2 0x423 JUMPI POP PUSH2 0x422 DUP4 DUP4 PUSH2 0x23B JUMP JUMPDEST JUMPDEST SWAP1 POP SWAP4 SWAP3 POP POP POP JUMP JUMPDEST PUSH0 DUP1 SLOAD SWAP1 PUSH2 0x100 EXP SWAP1 DIV PUSH20 0xFFFFFFFFFFFFFFFFFFFFFFFFFFFFFFFFFFFFFFFF AND PUSH20 0xFFFFFFFFFFFFFFFFFFFFFFFFFFFFFFFFFFFFFFFF AND CALLER PUSH20 0xFFFFFFFFFFFFFFFFFFFFFFFFFFFFFFFFFFFFFFFF AND EQ PUSH2 0x4B9 JUMPI PUSH1 0x40 MLOAD PUSH32 0x8C379A000000000000000000000000000000000000000000000000000000000 DUP2 MSTORE PUSH1 0x4 ADD PUSH2 0x4B0 SWAP1 PUSH2 0xB99 JUMP JUMPDEST PUSH1 0x40 MLOAD DUP1 SWAP2 SUB SWAP1 REVERT JUMPDEST PUSH1 0x1 DUP1 PUSH0 DUP4 PUSH20 0xFFFFFFFFFFFFFFFFFFFFFFFFFFFFFFFFFFFFFFFF AND PUSH20 0xFFFFFFFFFFFFFFFFFFFFFFFFFFFFFFFFFFFFFFFF AND DUP2 MSTORE PUSH1 0x20 ADD SWAP1 DUP2 MSTORE PUSH1 0x20 ADD PUSH0 KECCAK256 PUSH0 PUSH2 0x100 EXP DUP2 SLOAD DUP2 PUSH1 0xFF MUL NOT AND SWAP1 DUP4 ISZERO ISZERO MUL OR SWAP1 SSTORE POP POP JUMP JUMPDEST PUSH0 DUP1 SLOAD SWAP1 PUSH2 0x100 EXP SWAP1 DIV PUSH20 0xFFFFFFFFFFFFFFFFFFFFFFFFFFFFFFFFFFFFFFFF AND PUSH20 0xFFFFFFFFFFFFFFFFFFFFFFFFFFFFFFFFFFFFFFFF AND CALLER PUSH20 0xFFFFFFFFFFFFFFFFFFFFFFFFFFFFFFFFFFFFFFFF AND EQ PUSH2 0x59D JUMPI PUSH1 0x40 MLOAD PUSH32 0x8C379A000000000000000000000000000000000000000000000000000000000 DUP2 MSTORE PUSH1 0x4 ADD PUSH2 0x594 SWAP1 PUSH2 0xB99 JUMP JUMPDEST PUSH1 0x40 MLOAD DUP1 SWAP2 SUB SWAP1 REVERT JUMPDEST PUSH0 JUMPDEST DUP3 DUP3 SWAP1 POP DUP2 LT ISZERO PUSH2 0x632 JUMPI PUSH1 0x1 DUP1 PUSH0 DUP6 DUP6 DUP6 DUP2 DUP2 LT PUSH2 0x5C1 JUMPI PUSH2 0x5C0 PUSH2 0xBB7 JUMP JUMPDEST JUMPDEST SWAP1 POP PUSH1 0x20 MUL ADD PUSH1 0x20 DUP2 ADD SWAP1 PUSH2 0x5D6 SWAP2 SWAP1 PUSH2 0x923 JUMP JUMPDEST PUSH20 0xFFFFFFFFFFFFFFFFFFFFFFFFFFFFFFFFFFFFFFFF AND PUSH20 0xFFFFFFFFFFFFFFFFFFFFFFFFFFFFFFFFFFFFFFFF AND DUP2 MSTORE PUSH1 0x20 ADD SWAP1 DUP2 MSTORE PUSH1 0x20 ADD PUSH0 KECCAK256 PUSH0 PUSH2 0x100 EXP DUP2 SLOAD DUP2 PUSH1 0xFF MUL NOT AND SWAP1 DUP4 ISZERO ISZERO MUL OR SWAP1 SSTORE POP DUP1 DUP1 PUSH1 0x1 ADD SWAP2 POP POP PUSH2 0x59F JUMP JUMPDEST POP POP POP JUMP JUMPDEST PUSH0 DUP1 SLOAD SWAP1 PUSH2 0x100 EXP SWAP1 DIV PUSH20 0xFFFFFFFFFFFFFFFFFFFFFFFFFFFFFFFFFFFFFFFF AND PUSH20 0xFFFFFFFFFFFFFFFFFFFFFFFFFFFFFFFFFFFFFFFF AND CALLER PUSH20 0xFFFFFFFFFFFFFFFFFFFFFFFFFFFFFFFFFFFFFFFF AND EQ PUSH2 0x6C4 JUMPI PUSH1 0x40 MLOAD PUSH32 0x8C379A000000000000000000000000000000000000000000000000000000000 DUP2 MSTORE PUSH1 0x4 ADD PUSH2 0x6BB SWAP1 PUSH2 0xB99 JUMP JUMPDEST PUSH1 0x40 MLOAD DUP1 SWAP2 SUB SWAP1 REVERT JUMPDEST PUSH0 JUMPDEST DUP3 DUP3 SWAP1 POP DUP2 LT ISZERO PUSH2 0x757 JUMPI PUSH0 DUP4 DUP4 DUP4 DUP2 DUP2 LT PUSH2 0x6E5 JUMPI PUSH2 0x6E4 PUSH2 0xBB7 JUMP JUMPDEST JUMPDEST SWAP1 POP PUSH1 0x20 MUL DUP2 ADD SWAP1 PUSH2 0x6F7 SWAP2 SWAP1 PUSH2 0xBF0 JUMP JUMPDEST PUSH1 0x40 MLOAD PUSH1 0x20 ADD PUSH2 0x708 SWAP3 SWAP2 SWAP1 PUSH2 0xB27 JUMP JUMPDEST PUSH1 0x40 MLOAD PUSH1 0x20 DUP2 DUP4 SUB SUB DUP2 MSTORE SWAP1 PUSH1 0x40 MSTORE DUP1 MLOAD SWAP1 PUSH1 0x20 ADD KECCAK256 SWAP1 POP PUSH1 0x1 PUSH1 0x2 PUSH0 DUP4 DUP2 MSTORE PUSH1 0x20 ADD SWAP1 DUP2 MSTORE PUSH1 0x20 ADD PUSH0 KECCAK256 PUSH0 PUSH2 0x100 EXP DUP2 SLOAD DUP2 PUSH1 0xFF MUL NOT AND SWAP1 DUP4 ISZERO ISZERO MUL OR SWAP1 SSTORE POP POP DUP1 DUP1 PUSH1 0x1 ADD SWAP2 POP POP PUSH2 0x6C6 JUMP JUMPDEST POP POP POP JUMP JUMPDEST PUSH0 DUP1 REVERT JUMPDEST PUSH0 DUP1 REVERT JUMPDEST PUSH0 DUP2 SWAP1 POP SWAP2 SWAP1 POP JUMP JUMPDEST PUSH2 0x776 DUP2 PUSH2 0x764 JUMP JUMPDEST DUP2 EQ PUSH2 0x780 JUMPI PUSH0 DUP1 REVERT JUMPDEST POP JUMP JUMPDEST PUSH0 DUP2 CALLDATALOAD SWAP1 POP PUSH2 0x791 DUP2 PUSH2 0x76D JUMP JUMPDEST SWAP3 SWAP2 POP POP JUMP JUMPDEST PUSH0 PUSH1 0x20 DUP3 DUP5 SUB SLT ISZERO PUSH2 0x7AC JUMPI PUSH2 0x7AB PUSH2 0x75C JUMP JUMPDEST JUMPDEST PUSH0 PUSH2 0x7B9 DUP5 DUP3 DUP6 ADD PUSH2 0x783 JUMP JUMPDEST SWAP2 POP POP SWAP3 SWAP2 POP POP JUMP JUMPDEST PUSH0 DUP2 ISZERO ISZERO SWAP1 POP SWAP2 SWAP1 POP JUMP JUMPDEST PUSH2 0x7D6 DUP2 PUSH2 0x7C2 JUMP JUMPDEST DUP3 MSTORE POP POP JUMP JUMPDEST PUSH0 PUSH1 0x20 DUP3 ADD SWAP1 POP PUSH2 0x7EF PUSH0 DUP4 ADD DUP5 PUSH2 0x7CD JUMP JUMPDEST SWAP3 SWAP2 POP POP JUMP JUMPDEST PUSH0 DUP1 REVERT JUMPDEST PUSH0 DUP1 REVERT JUMPDEST PUSH0 DUP1 REVERT JUMPDEST PUSH0 DUP1 DUP4 PUSH1 0x1F DUP5 ADD SLT PUSH2 0x816 JUMPI PUSH2 0x815 PUSH2 0x7F5 JUMP JUMPDEST JUMPDEST DUP3 CALLDATALOAD SWAP1 POP PUSH8 0xFFFFFFFFFFFFFFFF DUP2 GT ISZERO PUSH2 0x833 JUMPI PUSH2 0x832 PUSH2 0x7F9 JUMP JUMPDEST JUMPDEST PUSH1 0x20 DUP4 ADD SWAP2 POP DUP4 PUSH1 0x1 DUP3 MUL DUP4 ADD GT ISZERO PUSH2 0x84F JUMPI PUSH2 0x84E PUSH2 0x7FD JUMP JUMPDEST JUMPDEST SWAP3 POP SWAP3 SWAP1 POP JUMP JUMPDEST PUSH0 DUP1 PUSH1 0x20 DUP4 DUP6 SUB SLT ISZERO PUSH2 0x86C JUMPI PUSH2 0x86B PUSH2 0x75C JUMP JUMPDEST JUMPDEST PUSH0 DUP4 ADD CALLDATALOAD PUSH8 0xFFFFFFFFFFFFFFFF DUP2 GT ISZERO PUSH2 0x889 JUMPI PUSH2 0x888 PUSH2 0x760 JUMP JUMPDEST JUMPDEST PUSH2 0x895 DUP6 DUP3 DUP7 ADD PUSH2 0x801 JUMP JUMPDEST SWAP3 POP SWAP3 POP POP SWAP3 POP SWAP3 SWAP1 POP JUMP JUMPDEST PUSH0 PUSH20 0xFFFFFFFFFFFFFFFFFFFFFFFFFFFFFFFFFFFFFFFF DUP3 AND SWAP1 POP SWAP2 SWAP1 POP JUMP JUMPDEST PUSH0 PUSH2 0x8CA DUP3 PUSH2 0x8A1 JUMP JUMPDEST SWAP1 POP SWAP2 SWAP1 POP JUMP JUMPDEST PUSH2 0x8DA DUP2 PUSH2 0x8C0 JUMP JUMPDEST DUP3 MSTORE POP POP JUMP JUMPDEST PUSH0 PUSH1 0x20 DUP3 ADD SWAP1 POP PUSH2 0x8F3 PUSH0 DUP4 ADD DUP5 PUSH2 0x8D1 JUMP JUMPDEST SWAP3 SWAP2 POP POP JUMP JUMPDEST PUSH2 0x902 DUP2 PUSH2 0x8C0 JUMP JUMPDEST DUP2 EQ PUSH2 0x90C JUMPI PUSH0 DUP1 REVERT JUMPDEST POP JUMP JUMPDEST PUSH0 DUP2 CALLDATALOAD SWAP1 POP PUSH2 0x91D DUP2 PUSH2 0x8F9 JUMP JUMPDEST SWAP3 SWAP2 POP POP JUMP JUMPDEST PUSH0 PUSH1 0x20 DUP3 DUP5 SUB SLT ISZERO PUSH2 0x938 JUMPI PUSH2 0x937 PUSH2 0x75C JUMP JUMPDEST JUMPDEST PUSH0 PUSH2 0x945 DUP5 DUP3 DUP6 ADD PUSH2 0x90F JUMP JUMPDEST SWAP2 POP POP SWAP3 SWAP2 POP POP JUMP JUMPDEST PUSH0 DUP1 PUSH0 PUSH1 0x40 DUP5 DUP7 SUB SLT ISZERO PUSH2 0x965 JUMPI PUSH2 0x964 PUSH2 0x75C JUMP JUMPDEST JUMPDEST PUSH0 PUSH2 0x972 DUP7 DUP3 DUP8 ADD PUSH2 0x90F JUMP JUMPDEST SWAP4 POP POP PUSH1 0x20 DUP5 ADD CALLDATALOAD PUSH8 0xFFFFFFFFFFFFFFFF DUP2 GT ISZERO PUSH2 0x993 JUMPI PUSH2 0x992 PUSH2 0x760 JUMP JUMPDEST JUMPDEST PUSH2 0x99F DUP7 DUP3 DUP8 ADD PUSH2 0x801 JUMP JUMPDEST SWAP3 POP SWAP3 POP POP SWAP3 POP SWAP3 POP SWAP3 JUMP JUMPDEST PUSH0 DUP1 DUP4 PUSH1 0x1F DUP5 ADD SLT PUSH2 0x9C0 JUMPI PUSH2 0x9BF PUSH2 0x7F5 JUMP JUMPDEST JUMPDEST DUP3 CALLDATALOAD SWAP1 POP PUSH8 0xFFFFFFFFFFFFFFFF DUP2 GT ISZERO PUSH2 0x9DD JUMPI PUSH2 0x9DC PUSH2 0x7F9 JUMP JUMPDEST JUMPDEST PUSH1 0x20 DUP4 ADD SWAP2 POP DUP4 PUSH1 0x20 DUP3 MUL DUP4 ADD GT ISZERO PUSH2 0x9F9 JUMPI PUSH2 0x9F8 PUSH2 0x7FD JUMP JUMPDEST JUMPDEST SWAP3 POP SWAP3 SWAP1 POP JUMP JUMPDEST PUSH0 DUP1 PUSH1 0x20 DUP4 DUP6 SUB SLT ISZERO PUSH2 0xA16 JUMPI PUSH2 0xA15 PUSH2 0x75C JUMP JUMPDEST JUMPDEST PUSH0 DUP4 ADD CALLDATALOAD PUSH8 0xFFFFFFFFFFFFFFFF DUP2 GT ISZERO PUSH2 0xA33 JUMPI PUSH2 0xA32 PUSH2 0x760 JUMP JUMPDEST JUMPDEST PUSH2 0xA3F DUP6 DUP3 DUP7 ADD PUSH2 0x9AB JUMP JUMPDEST SWAP3 POP SWAP3 POP POP SWAP3 POP SWAP3 SWAP1 POP JUMP JUMPDEST PUSH0 DUP1 DUP4 PUSH1 0x1F DUP5 ADD SLT PUSH2 0xA60 JUMPI PUSH2 0xA5F PUSH2 0x7F5 JUMP JUMPDEST JUMPDEST DUP3 CALLDATALOAD SWAP1 POP PUSH8 0xFFFFFFFFFFFFFFFF DUP2 GT ISZERO PUSH2 0xA7D JUMPI PUSH2 0xA7C PUSH2 0x7F9 JUMP JUMPDEST JUMPDEST PUSH1 0x20 DUP4 ADD SWAP2 POP DUP4 PUSH1 0x20 DUP3 MUL DUP4 ADD GT ISZERO PUSH2 0xA99 JUMPI PUSH2 0xA98 PUSH2 0x7FD JUMP JUMPDEST JUMPDEST SWAP3 POP SWAP3 SWAP1 POP JUMP JUMPDEST PUSH0 DUP1 PUSH1 0x20 DUP4 DUP6 SUB SLT ISZERO PUSH2 0xAB6 JUMPI PUSH2 0xAB5 PUSH2 0x75C JUMP JUMPDEST JUMPDEST PUSH0 DUP4 ADD CALLDATALOAD PUSH8 0xFFFFFFFFFFFFFFFF DUP2 GT ISZERO PUSH2 0xAD3 JUMPI PUSH2 0xAD2 PUSH2 0x760 JUMP JUMPDEST JUMPDEST PUSH2 0xADF DUP6 DUP3 DUP7 ADD PUSH2 0xA4B JUMP JUMPDEST SWAP3 POP SWAP3 POP POP SWAP3 POP SWAP3 SWAP1 POP JUMP JUMPDEST PUSH0 DUP2 SWAP1 POP SWAP3 SWAP2 POP POP JUMP JUMPDEST DUP3 DUP2 DUP4 CALLDATACOPY PUSH0 DUP4 DUP4 ADD MSTORE POP POP POP JUMP JUMPDEST PUSH0 PUSH2 0xB0E DUP4 DUP6 PUSH2 0xAEB JUMP JUMPDEST SWAP4 POP PUSH2 0xB1B DUP4 DUP6 DUP5 PUSH2 0xAF5 JUMP JUMPDEST DUP3 DUP5 ADD SWAP1 POP SWAP4 SWAP3 POP POP POP JUMP JUMPDEST PUSH0 PUSH2 0xB33 DUP3 DUP5 DUP7 PUSH2 0xB03 JUMP JUMPDEST SWAP2 POP DUP2 SWAP1 POP SWAP4 SWAP3 POP POP POP JUMP JUMPDEST PUSH0 DUP3 DUP3 MSTORE PUSH1 0x20 DUP3 ADD SWAP1 POP SWAP3 SWAP2 POP POP JUMP JUMPDEST PUSH32 0x4E6F7420617574686F72697A6564000000000000000000000000000000000000 PUSH0 DUP3 ADD MSTORE POP JUMP JUMPDEST PUSH0 PUSH2 0xB83 PUSH1 0xE DUP4 PUSH2 0xB3F JUMP JUMPDEST SWAP2 POP PUSH2 0xB8E DUP3 PUSH2 0xB4F JUMP JUMPDEST PUSH1 0x20 DUP3 ADD SWAP1 POP SWAP2 SWAP1 POP JUMP JUMPDEST PUSH0 PUSH1 0x20 DUP3 ADD SWAP1 POP DUP2 DUP2 SUB PUSH0 DUP4 ADD MSTORE PUSH2 0xBB0 DUP2 PUSH2 0xB77 JUMP JUMPDEST SWAP1 POP SWAP2 SWAP1 POP JUMP JUMPDEST PUSH32 0x4E487B7100000000000000000000000000000000000000000000000000000000 PUSH0 MSTORE PUSH1 0x32 PUSH1 0x4 MSTORE PUSH1 0x24 PUSH0 REVERT JUMPDEST PUSH0 DUP1 REVERT JUMPDEST PUSH0 DUP1 REVERT JUMPDEST PUSH0 DUP1 REVERT JUMPDEST PUSH0 DUP1 DUP4 CALLDATALOAD PUSH1 0x1 PUSH1 0x20 SUB DUP5 CALLDATASIZE SUB SUB DUP2 SLT PUSH2 0xC0C JUMPI PUSH2 0xC0B PUSH2 0xBE4 JUMP JUMPDEST JUMPDEST DUP1 DUP5 ADD SWAP3 POP DUP3 CALLDATALOAD SWAP2 POP PUSH8 0xFFFFFFFFFFFFFFFF DUP3 GT ISZERO PUSH2 0xC2E JUMPI PUSH2 0xC2D PUSH2 0xBE8 JUMP JUMPDEST JUMPDEST PUSH1 0x20 DUP4 ADD SWAP3 POP PUSH1 0x1 DUP3 MUL CALLDATASIZE SUB DUP4 SGT ISZERO PUSH2 0xC4A JUMPI PUSH2 0xC49 PUSH2 0xBEC JUMP JUMPDEST JUMPDEST POP SWAP3 POP SWAP3 SWAP1 POP JUMP INVALID LOG2 PUSH5 0x6970667358 0x22 SLT KECCAK256 0xB9 MSTORE8 SWAP4 OR DUP1 0xB2 PUSH25 0x22D470EB7EED57A6EA014F49253939934497D7387DA0E8C1B8 PUSH5 0x736F6C6343 STOP ADDMOD BYTE STOP CALLER "
				},
				"gasEstimates": {
					"creation": {
						"codeDepositCost": "641600",
						"executionCost": "24939",
						"totalCost": "666539"
					},
					"external": {
						"addEmail(string)": "infinite",
						"addEmailsBulk(string[])": "infinite",
						"addWallet(address)": "27013",
						"addWalletsBulk(address[])": "infinite",
						"isEmailWhitelisted(string)": "infinite",
						"isWalletWhitelisted(address)": "2870",
						"isWhitelisted(address,string)": "infinite",
						"owner()": "2572",
						"whitelistedEmails(bytes32)": "2786",
						"whitelistedWallets(address)": "2922"
					}
				},
				"methodIdentifiers": {
					"addEmail(string)": "89aae99a",
					"addEmailsBulk(string[])": "fcf6389a",
					"addWallet(address)": "efeb5f1f",
					"addWalletsBulk(address[])": "faa7d287",
					"isEmailWhitelisted(string)": "85db9d2c",
					"isWalletWhitelisted(address)": "aac8f967",
					"isWhitelisted(address,string)": "c1233d61",
					"owner()": "8da5cb5b",
					"whitelistedEmails(bytes32)": "836832da",
					"whitelistedWallets(address)": "a80dcfee"
				}
			},
			"storageLayout": {
				"storage": [
					{
						"astId": 3,
						"contract": "contracts/Whitelist.sol:Whitelist",
						"label": "owner",
						"offset": 0,
						"slot": "0",
						"type": "t_address"
					},
					{
						"astId": 7,
						"contract": "contracts/Whitelist.sol:Whitelist",
						"label": "whitelistedWallets",
						"offset": 0,
						"slot": "1",
						"type": "t_mapping(t_address,t_bool)"
					},
					{
						"astId": 11,
						"contract": "contracts/Whitelist.sol:Whitelist",
						"label": "whitelistedEmails",
						"offset": 0,
						"slot": "2",
						"type": "t_mapping(t_bytes32,t_bool)"
					}
				],
				"types": {
					"t_address": {
						"encoding": "inplace",
						"label": "address",
						"numberOfBytes": "20"
					},
					"t_bool": {
						"encoding": "inplace",
						"label": "bool",
						"numberOfBytes": "1"
					},
					"t_bytes32": {
						"encoding": "inplace",
						"label": "bytes32",
						"numberOfBytes": "32"
					},
					"t_mapping(t_address,t_bool)": {
						"encoding": "mapping",
						"key": "t_address",
						"label": "mapping(address => bool)",
						"numberOfBytes": "32",
						"value": "t_bool"
					},
					"t_mapping(t_bytes32,t_bool)": {
						"encoding": "mapping",
						"key": "t_bytes32",
						"label": "mapping(bytes32 => bool)",
						"numberOfBytes": "32",
						"value": "t_bool"
					}
				}
			},
			"userdoc": {
				"kind": "user",
				"methods": {},
				"version": 1
			}
		}
	}
}