{
	"contracts/Alncancia.sol": {
		"AlcanciaDigital": {
			"abi": [
				{
					"inputs": [
						{
							"internalType": "string",
							"name": "_nombreInicial",
							"type": "string"
						},
						{
							"internalType": "uint256",
							"name": "_objetivoInicial",
							"type": "uint256"
						}
					],
					"stateMutability": "nonpayable",
					"type": "constructor"
				},
				{
					"inputs": [],
					"name": "alcanciaAbierta",
					"outputs": [
						{
							"internalType": "bool",
							"name": "",
							"type": "bool"
						}
					],
					"stateMutability": "view",
					"type": "function"
				},
				{
					"inputs": [],
					"name": "cambiarEstadoAlcancia",
					"outputs": [],
					"stateMutability": "nonpayable",
					"type": "function"
				},
				{
					"inputs": [
						{
							"internalType": "string",
							"name": "_nombreInicial",
							"type": "string"
						}
					],
					"name": "cambiarNombreAlcancia",
					"outputs": [],
					"stateMutability": "nonpayable",
					"type": "function"
				},
				{
					"inputs": [
						{
							"internalType": "uint256",
							"name": "_objetivoInicial",
							"type": "uint256"
						}
					],
					"name": "cambiarObjetivo",
					"outputs": [],
					"stateMutability": "nonpayable",
					"type": "function"
				},
				{
					"inputs": [],
					"name": "cantidadObjetivo",
					"outputs": [
						{
							"internalType": "uint256",
							"name": "",
							"type": "uint256"
						}
					],
					"stateMutability": "view",
					"type": "function"
				},
				{
					"inputs": [],
					"name": "comprobarObjetivoAlcanzado",
					"outputs": [
						{
							"internalType": "bool",
							"name": "",
							"type": "bool"
						}
					],
					"stateMutability": "view",
					"type": "function"
				},
				{
					"inputs": [],
					"name": "depositarFondos",
					"outputs": [],
					"stateMutability": "payable",
					"type": "function"
				},
				{
					"inputs": [],
					"name": "nombreAlcancia",
					"outputs": [
						{
							"internalType": "string",
							"name": "",
							"type": "string"
						}
					],
					"stateMutability": "view",
					"type": "function"
				},
				{
					"inputs": [],
					"name": "obtenerBalance",
					"outputs": [
						{
							"internalType": "uint256",
							"name": "",
							"type": "uint256"
						}
					],
					"stateMutability": "view",
					"type": "function"
				},
				{
					"inputs": [],
					"name": "owner",
					"outputs": [
						{
							"internalType": "address",
							"name": "",
							"type": "address"
						}
					],
					"stateMutability": "view",
					"type": "function"
				}
			],
			"devdoc": {
				"kind": "dev",
				"methods": {},
				"version": 1
			},
			"evm": {
				"assembly": "    /* \"contracts/Alncancia.sol\":58:1357  contract AlcanciaDigital{... */\n  mstore(0x40, 0x80)\n    /* \"contracts/Alncancia.sol\":216:433  constructor(string memory _nombreInicial, uint _objetivoInicial){... */\n  callvalue\n  dup1\n  iszero\n  tag_1\n  jumpi\n  0x00\n  dup1\n  revert\ntag_1:\n  pop\n  mload(0x40)\n  sub(codesize, bytecodeSize)\n  dup1\n  bytecodeSize\n  dup4\n  codecopy\n  dup2\n  dup2\n  add\n  0x40\n  mstore\n  dup2\n  add\n  swap1\n  tag_2\n  swap2\n  swap1\n  tag_3\n  jump\t// in\ntag_2:\n    /* \"contracts/Alncancia.sol\":298:308  msg.sender */\n  caller\n    /* \"contracts/Alncancia.sol\":290:295  owner */\n  0x00\n  dup1\n    /* \"contracts/Alncancia.sol\":290:308  owner = msg.sender */\n  0x0100\n  exp\n  dup2\n  sload\n  dup2\n  0xffffffffffffffffffffffffffffffffffffffff\n  mul\n  not\n  and\n  swap1\n  dup4\n  0xffffffffffffffffffffffffffffffffffffffff\n  and\n  mul\n  or\n  swap1\n  sstore\n  pop\n    /* \"contracts/Alncancia.sol\":335:349  _nombreInicial */\n  dup2\n    /* \"contracts/Alncancia.sol\":318:332  nombreAlcancia */\n  0x02\n    /* \"contracts/Alncancia.sol\":318:349  nombreAlcancia = _nombreInicial */\n  swap1\n  dup2\n  tag_6\n  swap2\n  swap1\n  tag_7\n  jump\t// in\ntag_6:\n  pop\n    /* \"contracts/Alncancia.sol\":378:394  _objetivoInicial */\n  dup1\n    /* \"contracts/Alncancia.sol\":359:375  cantidadObjetivo */\n  0x01\n    /* \"contracts/Alncancia.sol\":359:394  cantidadObjetivo = _objetivoInicial */\n  dup2\n  swap1\n  sstore\n  pop\n    /* \"contracts/Alncancia.sol\":422:426  true */\n  0x01\n    /* \"contracts/Alncancia.sol\":404:419  alcanciaAbierta */\n  0x03\n  0x00\n    /* \"contracts/Alncancia.sol\":404:426  alcanciaAbierta = true */\n  0x0100\n  exp\n  dup2\n  sload\n  dup2\n  0xff\n  mul\n  not\n  and\n  swap1\n  dup4\n  iszero\n  iszero\n  mul\n  or\n  swap1\n  sstore\n  pop\n    /* \"contracts/Alncancia.sol\":216:433  constructor(string memory _nombreInicial, uint _objetivoInicial){... */\n  pop\n  pop\n    /* \"contracts/Alncancia.sol\":58:1357  contract AlcanciaDigital{... */\n  jump(tag_8)\n    /* \"#utility.yul\":7:82   */\ntag_9:\n    /* \"#utility.yul\":40:46   */\n  0x00\n    /* \"#utility.yul\":73:75   */\n  0x40\n    /* \"#utility.yul\":67:76   */\n  mload\n    /* \"#utility.yul\":57:76   */\n  swap1\n  pop\n    /* \"#utility.yul\":7:82   */\n  swap1\n  jump\t// out\n    /* \"#utility.yul\":88:205   */\ntag_10:\n    /* \"#utility.yul\":197:198   */\n  0x00\n    /* \"#utility.yul\":194:195   */\n  dup1\n    /* \"#utility.yul\":187:199   */\n  revert\n    /* \"#utility.yul\":211:328   */\ntag_11:\n    /* \"#utility.yul\":320:321   */\n  0x00\n    /* \"#utility.yul\":317:318   */\n  dup1\n    /* \"#utility.yul\":310:322   */\n  revert\n    /* \"#utility.yul\":334:451   */\ntag_12:\n    /* \"#utility.yul\":443:444   */\n  0x00\n    /* \"#utility.yul\":440:441   */\n  dup1\n    /* \"#utility.yul\":433:445   */\n  revert\n    /* \"#utility.yul\":457:574   */\ntag_13:\n    /* \"#utility.yul\":566:567   */\n  0x00\n    /* \"#utility.yul\":563:564   */\n  dup1\n    /* \"#utility.yul\":556:568   */\n  revert\n    /* \"#utility.yul\":580:682   */\ntag_14:\n    /* \"#utility.yul\":621:627   */\n  0x00\n    /* \"#utility.yul\":672:674   */\n  0x1f\n    /* \"#utility.yul\":668:675   */\n  not\n    /* \"#utility.yul\":663:665   */\n  0x1f\n    /* \"#utility.yul\":656:661   */\n  dup4\n    /* \"#utility.yul\":652:666   */\n  add\n    /* \"#utility.yul\":648:676   */\n  and\n    /* \"#utility.yul\":638:676   */\n  swap1\n  pop\n    /* \"#utility.yul\":580:682   */\n  swap2\n  swap1\n  pop\n  jump\t// out\n    /* \"#utility.yul\":688:868   */\ntag_15:\n    /* \"#utility.yul\":736:813   */\n  0x4e487b7100000000000000000000000000000000000000000000000000000000\n    /* \"#utility.yul\":733:734   */\n  0x00\n    /* \"#utility.yul\":726:814   */\n  mstore\n    /* \"#utility.yul\":833:837   */\n  0x41\n    /* \"#utility.yul\":830:831   */\n  0x04\n    /* \"#utility.yul\":823:838   */\n  mstore\n    /* \"#utility.yul\":857:861   */\n  0x24\n    /* \"#utility.yul\":854:855   */\n  0x00\n    /* \"#utility.yul\":847:862   */\n  revert\n    /* \"#utility.yul\":874:1155   */\ntag_16:\n    /* \"#utility.yul\":957:984   */\n  tag_52\n    /* \"#utility.yul\":979:983   */\n  dup3\n    /* \"#utility.yul\":957:984   */\n  tag_14\n  jump\t// in\ntag_52:\n    /* \"#utility.yul\":949:955   */\n  dup2\n    /* \"#utility.yul\":945:985   */\n  add\n    /* \"#utility.yul\":1087:1093   */\n  dup2\n    /* \"#utility.yul\":1075:1085   */\n  dup2\n    /* \"#utility.yul\":1072:1094   */\n  lt\n    /* \"#utility.yul\":1051:1069   */\n  0xffffffffffffffff\n    /* \"#utility.yul\":1039:1049   */\n  dup3\n    /* \"#utility.yul\":1036:1070   */\n  gt\n    /* \"#utility.yul\":1033:1095   */\n  or\n    /* \"#utility.yul\":1030:1118   */\n  iszero\n  tag_53\n  jumpi\n    /* \"#utility.yul\":1098:1116   */\n  tag_54\n  tag_15\n  jump\t// in\ntag_54:\n    /* \"#utility.yul\":1030:1118   */\ntag_53:\n    /* \"#utility.yul\":1138:1148   */\n  dup1\n    /* \"#utility.yul\":1134:1136   */\n  0x40\n    /* \"#utility.yul\":1127:1149   */\n  mstore\n    /* \"#utility.yul\":917:1155   */\n  pop\n    /* \"#utility.yul\":874:1155   */\n  pop\n  pop\n  jump\t// out\n    /* \"#utility.yul\":1161:1290   */\ntag_17:\n    /* \"#utility.yul\":1195:1201   */\n  0x00\n    /* \"#utility.yul\":1222:1242   */\n  tag_56\n  tag_9\n  jump\t// in\ntag_56:\n    /* \"#utility.yul\":1212:1242   */\n  swap1\n  pop\n    /* \"#utility.yul\":1251:1284   */\n  tag_57\n    /* \"#utility.yul\":1279:1283   */\n  dup3\n    /* \"#utility.yul\":1271:1277   */\n  dup3\n    /* \"#utility.yul\":1251:1284   */\n  tag_16\n  jump\t// in\ntag_57:\n    /* \"#utility.yul\":1161:1290   */\n  swap2\n  swap1\n  pop\n  jump\t// out\n    /* \"#utility.yul\":1296:1604   */\ntag_18:\n    /* \"#utility.yul\":1358:1362   */\n  0x00\n    /* \"#utility.yul\":1448:1466   */\n  0xffffffffffffffff\n    /* \"#utility.yul\":1440:1446   */\n  dup3\n    /* \"#utility.yul\":1437:1467   */\n  gt\n    /* \"#utility.yul\":1434:1490   */\n  iszero\n  tag_59\n  jumpi\n    /* \"#utility.yul\":1470:1488   */\n  tag_60\n  tag_15\n  jump\t// in\ntag_60:\n    /* \"#utility.yul\":1434:1490   */\ntag_59:\n    /* \"#utility.yul\":1508:1537   */\n  tag_61\n    /* \"#utility.yul\":1530:1536   */\n  dup3\n    /* \"#utility.yul\":1508:1537   */\n  tag_14\n  jump\t// in\ntag_61:\n    /* \"#utility.yul\":1500:1537   */\n  swap1\n  pop\n    /* \"#utility.yul\":1592:1596   */\n  0x20\n    /* \"#utility.yul\":1586:1590   */\n  dup2\n    /* \"#utility.yul\":1582:1597   */\n  add\n    /* \"#utility.yul\":1574:1597   */\n  swap1\n  pop\n    /* \"#utility.yul\":1296:1604   */\n  swap2\n  swap1\n  pop\n  jump\t// out\n    /* \"#utility.yul\":1610:1858   */\ntag_19:\n    /* \"#utility.yul\":1692:1693   */\n  0x00\n    /* \"#utility.yul\":1702:1815   */\ntag_63:\n    /* \"#utility.yul\":1716:1722   */\n  dup4\n    /* \"#utility.yul\":1713:1714   */\n  dup2\n    /* \"#utility.yul\":1710:1723   */\n  lt\n    /* \"#utility.yul\":1702:1815   */\n  iszero\n  tag_65\n  jumpi\n    /* \"#utility.yul\":1801:1802   */\n  dup1\n    /* \"#utility.yul\":1796:1799   */\n  dup3\n    /* \"#utility.yul\":1792:1803   */\n  add\n    /* \"#utility.yul\":1786:1804   */\n  mload\n    /* \"#utility.yul\":1782:1783   */\n  dup2\n    /* \"#utility.yul\":1777:1780   */\n  dup5\n    /* \"#utility.yul\":1773:1784   */\n  add\n    /* \"#utility.yul\":1766:1805   */\n  mstore\n    /* \"#utility.yul\":1738:1740   */\n  0x20\n    /* \"#utility.yul\":1735:1736   */\n  dup2\n    /* \"#utility.yul\":1731:1741   */\n  add\n    /* \"#utility.yul\":1726:1741   */\n  swap1\n  pop\n    /* \"#utility.yul\":1702:1815   */\n  jump(tag_63)\ntag_65:\n    /* \"#utility.yul\":1849:1850   */\n  0x00\n    /* \"#utility.yul\":1840:1846   */\n  dup5\n    /* \"#utility.yul\":1835:1838   */\n  dup5\n    /* \"#utility.yul\":1831:1847   */\n  add\n    /* \"#utility.yul\":1824:1851   */\n  mstore\n    /* \"#utility.yul\":1672:1858   */\n  pop\n    /* \"#utility.yul\":1610:1858   */\n  pop\n  pop\n  pop\n  jump\t// out\n    /* \"#utility.yul\":1864:2298   */\ntag_20:\n    /* \"#utility.yul\":1953:1958   */\n  0x00\n    /* \"#utility.yul\":1978:2044   */\n  tag_67\n    /* \"#utility.yul\":1994:2043   */\n  tag_68\n    /* \"#utility.yul\":2036:2042   */\n  dup5\n    /* \"#utility.yul\":1994:2043   */\n  tag_18\n  jump\t// in\ntag_68:\n    /* \"#utility.yul\":1978:2044   */\n  tag_17\n  jump\t// in\ntag_67:\n    /* \"#utility.yul\":1969:2044   */\n  swap1\n  pop\n    /* \"#utility.yul\":2067:2073   */\n  dup3\n    /* \"#utility.yul\":2060:2065   */\n  dup2\n    /* \"#utility.yul\":2053:2074   */\n  mstore\n    /* \"#utility.yul\":2105:2109   */\n  0x20\n    /* \"#utility.yul\":2098:2103   */\n  dup2\n    /* \"#utility.yul\":2094:2110   */\n  add\n    /* \"#utility.yul\":2143:2146   */\n  dup5\n    /* \"#utility.yul\":2134:2140   */\n  dup5\n    /* \"#utility.yul\":2129:2132   */\n  dup5\n    /* \"#utility.yul\":2125:2141   */\n  add\n    /* \"#utility.yul\":2122:2147   */\n  gt\n    /* \"#utility.yul\":2119:2231   */\n  iszero\n  tag_69\n  jumpi\n    /* \"#utility.yul\":2150:2229   */\n  tag_70\n  tag_13\n  jump\t// in\ntag_70:\n    /* \"#utility.yul\":2119:2231   */\ntag_69:\n    /* \"#utility.yul\":2240:2292   */\n  tag_71\n    /* \"#utility.yul\":2285:2291   */\n  dup5\n    /* \"#utility.yul\":2280:2283   */\n  dup3\n    /* \"#utility.yul\":2275:2278   */\n  dup6\n    /* \"#utility.yul\":2240:2292   */\n  tag_19\n  jump\t// in\ntag_71:\n    /* \"#utility.yul\":1959:2298   */\n  pop\n    /* \"#utility.yul\":1864:2298   */\n  swap4\n  swap3\n  pop\n  pop\n  pop\n  jump\t// out\n    /* \"#utility.yul\":2318:2673   */\ntag_21:\n    /* \"#utility.yul\":2385:2390   */\n  0x00\n    /* \"#utility.yul\":2434:2437   */\n  dup3\n    /* \"#utility.yul\":2427:2431   */\n  0x1f\n    /* \"#utility.yul\":2419:2425   */\n  dup4\n    /* \"#utility.yul\":2415:2432   */\n  add\n    /* \"#utility.yul\":2411:2438   */\n  slt\n    /* \"#utility.yul\":2401:2523   */\n  tag_73\n  jumpi\n    /* \"#utility.yul\":2442:2521   */\n  tag_74\n  tag_12\n  jump\t// in\ntag_74:\n    /* \"#utility.yul\":2401:2523   */\ntag_73:\n    /* \"#utility.yul\":2552:2558   */\n  dup2\n    /* \"#utility.yul\":2546:2559   */\n  mload\n    /* \"#utility.yul\":2577:2667   */\n  tag_75\n    /* \"#utility.yul\":2663:2666   */\n  dup5\n    /* \"#utility.yul\":2655:2661   */\n  dup3\n    /* \"#utility.yul\":2648:2652   */\n  0x20\n    /* \"#utility.yul\":2640:2646   */\n  dup7\n    /* \"#utility.yul\":2636:2653   */\n  add\n    /* \"#utility.yul\":2577:2667   */\n  tag_20\n  jump\t// in\ntag_75:\n    /* \"#utility.yul\":2568:2667   */\n  swap2\n  pop\n    /* \"#utility.yul\":2391:2673   */\n  pop\n    /* \"#utility.yul\":2318:2673   */\n  swap3\n  swap2\n  pop\n  pop\n  jump\t// out\n    /* \"#utility.yul\":2679:2756   */\ntag_22:\n    /* \"#utility.yul\":2716:2723   */\n  0x00\n    /* \"#utility.yul\":2745:2750   */\n  dup2\n    /* \"#utility.yul\":2734:2750   */\n  swap1\n  pop\n    /* \"#utility.yul\":2679:2756   */\n  swap2\n  swap1\n  pop\n  jump\t// out\n    /* \"#utility.yul\":2762:2884   */\ntag_23:\n    /* \"#utility.yul\":2835:2859   */\n  tag_78\n    /* \"#utility.yul\":2853:2858   */\n  dup2\n    /* \"#utility.yul\":2835:2859   */\n  tag_22\n  jump\t// in\ntag_78:\n    /* \"#utility.yul\":2828:2833   */\n  dup2\n    /* \"#utility.yul\":2825:2860   */\n  eq\n    /* \"#utility.yul\":2815:2878   */\n  tag_79\n  jumpi\n    /* \"#utility.yul\":2874:2875   */\n  0x00\n    /* \"#utility.yul\":2871:2872   */\n  dup1\n    /* \"#utility.yul\":2864:2876   */\n  revert\n    /* \"#utility.yul\":2815:2878   */\ntag_79:\n    /* \"#utility.yul\":2762:2884   */\n  pop\n  jump\t// out\n    /* \"#utility.yul\":2890:3033   */\ntag_24:\n    /* \"#utility.yul\":2947:2952   */\n  0x00\n    /* \"#utility.yul\":2978:2984   */\n  dup2\n    /* \"#utility.yul\":2972:2985   */\n  mload\n    /* \"#utility.yul\":2963:2985   */\n  swap1\n  pop\n    /* \"#utility.yul\":2994:3027   */\n  tag_81\n    /* \"#utility.yul\":3021:3026   */\n  dup2\n    /* \"#utility.yul\":2994:3027   */\n  tag_23\n  jump\t// in\ntag_81:\n    /* \"#utility.yul\":2890:3033   */\n  swap3\n  swap2\n  pop\n  pop\n  jump\t// out\n    /* \"#utility.yul\":3039:3719   */\ntag_3:\n    /* \"#utility.yul\":3128:3134   */\n  0x00\n    /* \"#utility.yul\":3136:3142   */\n  dup1\n    /* \"#utility.yul\":3185:3187   */\n  0x40\n    /* \"#utility.yul\":3173:3182   */\n  dup4\n    /* \"#utility.yul\":3164:3171   */\n  dup6\n    /* \"#utility.yul\":3160:3183   */\n  sub\n    /* \"#utility.yul\":3156:3188   */\n  slt\n    /* \"#utility.yul\":3153:3272   */\n  iszero\n  tag_83\n  jumpi\n    /* \"#utility.yul\":3191:3270   */\n  tag_84\n  tag_10\n  jump\t// in\ntag_84:\n    /* \"#utility.yul\":3153:3272   */\ntag_83:\n    /* \"#utility.yul\":3332:3333   */\n  0x00\n    /* \"#utility.yul\":3321:3330   */\n  dup4\n    /* \"#utility.yul\":3317:3334   */\n  add\n    /* \"#utility.yul\":3311:3335   */\n  mload\n    /* \"#utility.yul\":3362:3380   */\n  0xffffffffffffffff\n    /* \"#utility.yul\":3354:3360   */\n  dup2\n    /* \"#utility.yul\":3351:3381   */\n  gt\n    /* \"#utility.yul\":3348:3465   */\n  iszero\n  tag_85\n  jumpi\n    /* \"#utility.yul\":3384:3463   */\n  tag_86\n  tag_11\n  jump\t// in\ntag_86:\n    /* \"#utility.yul\":3348:3465   */\ntag_85:\n    /* \"#utility.yul\":3489:3563   */\n  tag_87\n    /* \"#utility.yul\":3555:3562   */\n  dup6\n    /* \"#utility.yul\":3546:3552   */\n  dup3\n    /* \"#utility.yul\":3535:3544   */\n  dup7\n    /* \"#utility.yul\":3531:3553   */\n  add\n    /* \"#utility.yul\":3489:3563   */\n  tag_21\n  jump\t// in\ntag_87:\n    /* \"#utility.yul\":3479:3563   */\n  swap3\n  pop\n    /* \"#utility.yul\":3282:3573   */\n  pop\n    /* \"#utility.yul\":3612:3614   */\n  0x20\n    /* \"#utility.yul\":3638:3702   */\n  tag_88\n    /* \"#utility.yul\":3694:3701   */\n  dup6\n    /* \"#utility.yul\":3685:3691   */\n  dup3\n    /* \"#utility.yul\":3674:3683   */\n  dup7\n    /* \"#utility.yul\":3670:3692   */\n  add\n    /* \"#utility.yul\":3638:3702   */\n  tag_24\n  jump\t// in\ntag_88:\n    /* \"#utility.yul\":3628:3702   */\n  swap2\n  pop\n    /* \"#utility.yul\":3583:3712   */\n  pop\n    /* \"#utility.yul\":3039:3719   */\n  swap3\n  pop\n  swap3\n  swap1\n  pop\n  jump\t// out\n    /* \"#utility.yul\":3725:3824   */\ntag_25:\n    /* \"#utility.yul\":3777:3783   */\n  0x00\n    /* \"#utility.yul\":3811:3816   */\n  dup2\n    /* \"#utility.yul\":3805:3817   */\n  mload\n    /* \"#utility.yul\":3795:3817   */\n  swap1\n  pop\n    /* \"#utility.yul\":3725:3824   */\n  swap2\n  swap1\n  pop\n  jump\t// out\n    /* \"#utility.yul\":3830:4010   */\ntag_26:\n    /* \"#utility.yul\":3878:3955   */\n  0x4e487b7100000000000000000000000000000000000000000000000000000000\n    /* \"#utility.yul\":3875:3876   */\n  0x00\n    /* \"#utility.yul\":3868:3956   */\n  mstore\n    /* \"#utility.yul\":3975:3979   */\n  0x22\n    /* \"#utility.yul\":3972:3973   */\n  0x04\n    /* \"#utility.yul\":3965:3980   */\n  mstore\n    /* \"#utility.yul\":3999:4003   */\n  0x24\n    /* \"#utility.yul\":3996:3997   */\n  0x00\n    /* \"#utility.yul\":3989:4004   */\n  revert\n    /* \"#utility.yul\":4016:4336   */\ntag_27:\n    /* \"#utility.yul\":4060:4066   */\n  0x00\n    /* \"#utility.yul\":4097:4098   */\n  0x02\n    /* \"#utility.yul\":4091:4095   */\n  dup3\n    /* \"#utility.yul\":4087:4099   */\n  div\n    /* \"#utility.yul\":4077:4099   */\n  swap1\n  pop\n    /* \"#utility.yul\":4144:4145   */\n  0x01\n    /* \"#utility.yul\":4138:4142   */\n  dup3\n    /* \"#utility.yul\":4134:4146   */\n  and\n    /* \"#utility.yul\":4165:4183   */\n  dup1\n    /* \"#utility.yul\":4155:4236   */\n  tag_92\n  jumpi\n    /* \"#utility.yul\":4221:4225   */\n  0x7f\n    /* \"#utility.yul\":4213:4219   */\n  dup3\n    /* \"#utility.yul\":4209:4226   */\n  and\n    /* \"#utility.yul\":4199:4226   */\n  swap2\n  pop\n    /* \"#utility.yul\":4155:4236   */\ntag_92:\n    /* \"#utility.yul\":4283:4285   */\n  0x20\n    /* \"#utility.yul\":4275:4281   */\n  dup3\n    /* \"#utility.yul\":4272:4286   */\n  lt\n    /* \"#utility.yul\":4252:4270   */\n  dup2\n    /* \"#utility.yul\":4249:4287   */\n  sub\n    /* \"#utility.yul\":4246:4330   */\n  tag_93\n  jumpi\n    /* \"#utility.yul\":4302:4320   */\n  tag_94\n  tag_26\n  jump\t// in\ntag_94:\n    /* \"#utility.yul\":4246:4330   */\ntag_93:\n    /* \"#utility.yul\":4067:4336   */\n  pop\n    /* \"#utility.yul\":4016:4336   */\n  swap2\n  swap1\n  pop\n  jump\t// out\n    /* \"#utility.yul\":4342:4483   */\ntag_28:\n    /* \"#utility.yul\":4391:4395   */\n  0x00\n    /* \"#utility.yul\":4414:4417   */\n  dup2\n    /* \"#utility.yul\":4406:4417   */\n  swap1\n  pop\n    /* \"#utility.yul\":4437:4440   */\n  dup2\n    /* \"#utility.yul\":4434:4435   */\n  0x00\n    /* \"#utility.yul\":4427:4441   */\n  mstore\n    /* \"#utility.yul\":4471:4475   */\n  0x20\n    /* \"#utility.yul\":4468:4469   */\n  0x00\n    /* \"#utility.yul\":4458:4476   */\n  keccak256\n    /* \"#utility.yul\":4450:4476   */\n  swap1\n  pop\n    /* \"#utility.yul\":4342:4483   */\n  swap2\n  swap1\n  pop\n  jump\t// out\n    /* \"#utility.yul\":4489:4582   */\ntag_29:\n    /* \"#utility.yul\":4526:4532   */\n  0x00\n    /* \"#utility.yul\":4573:4575   */\n  0x20\n    /* \"#utility.yul\":4568:4570   */\n  0x1f\n    /* \"#utility.yul\":4561:4566   */\n  dup4\n    /* \"#utility.yul\":4557:4571   */\n  add\n    /* \"#utility.yul\":4553:4576   */\n  div\n    /* \"#utility.yul\":4543:4576   */\n  swap1\n  pop\n    /* \"#utility.yul\":4489:4582   */\n  swap2\n  swap1\n  pop\n  jump\t// out\n    /* \"#utility.yul\":4588:4695   */\ntag_30:\n    /* \"#utility.yul\":4632:4640   */\n  0x00\n    /* \"#utility.yul\":4682:4687   */\n  dup3\n    /* \"#utility.yul\":4676:4680   */\n  dup3\n    /* \"#utility.yul\":4672:4688   */\n  shl\n    /* \"#utility.yul\":4651:4688   */\n  swap1\n  pop\n    /* \"#utility.yul\":4588:4695   */\n  swap3\n  swap2\n  pop\n  pop\n  jump\t// out\n    /* \"#utility.yul\":4701:5094   */\ntag_31:\n    /* \"#utility.yul\":4770:4776   */\n  0x00\n    /* \"#utility.yul\":4820:4821   */\n  0x08\n    /* \"#utility.yul\":4808:4818   */\n  dup4\n    /* \"#utility.yul\":4804:4822   */\n  mul\n    /* \"#utility.yul\":4843:4940   */\n  tag_99\n    /* \"#utility.yul\":4873:4939   */\n  0xffffffffffffffffffffffffffffffffffffffffffffffffffffffffffffffff\n    /* \"#utility.yul\":4862:4871   */\n  dup3\n    /* \"#utility.yul\":4843:4940   */\n  tag_30\n  jump\t// in\ntag_99:\n    /* \"#utility.yul\":4961:5000   */\n  tag_100\n    /* \"#utility.yul\":4991:4999   */\n  dup7\n    /* \"#utility.yul\":4980:4989   */\n  dup4\n    /* \"#utility.yul\":4961:5000   */\n  tag_30\n  jump\t// in\ntag_100:\n    /* \"#utility.yul\":4949:5000   */\n  swap6\n  pop\n    /* \"#utility.yul\":5033:5037   */\n  dup1\n    /* \"#utility.yul\":5029:5038   */\n  not\n    /* \"#utility.yul\":5022:5027   */\n  dup5\n    /* \"#utility.yul\":5018:5039   */\n  and\n    /* \"#utility.yul\":5009:5039   */\n  swap4\n  pop\n    /* \"#utility.yul\":5082:5086   */\n  dup1\n    /* \"#utility.yul\":5072:5080   */\n  dup7\n    /* \"#utility.yul\":5068:5087   */\n  and\n    /* \"#utility.yul\":5061:5066   */\n  dup5\n    /* \"#utility.yul\":5058:5088   */\n  or\n    /* \"#utility.yul\":5048:5088   */\n  swap3\n  pop\n    /* \"#utility.yul\":4777:5094   */\n  pop\n  pop\n    /* \"#utility.yul\":4701:5094   */\n  swap4\n  swap3\n  pop\n  pop\n  pop\n  jump\t// out\n    /* \"#utility.yul\":5100:5160   */\ntag_32:\n    /* \"#utility.yul\":5128:5131   */\n  0x00\n    /* \"#utility.yul\":5149:5154   */\n  dup2\n    /* \"#utility.yul\":5142:5154   */\n  swap1\n  pop\n    /* \"#utility.yul\":5100:5160   */\n  swap2\n  swap1\n  pop\n  jump\t// out\n    /* \"#utility.yul\":5166:5308   */\ntag_33:\n    /* \"#utility.yul\":5216:5225   */\n  0x00\n    /* \"#utility.yul\":5249:5302   */\n  tag_103\n    /* \"#utility.yul\":5267:5301   */\n  tag_104\n    /* \"#utility.yul\":5276:5300   */\n  tag_105\n    /* \"#utility.yul\":5294:5299   */\n  dup5\n    /* \"#utility.yul\":5276:5300   */\n  tag_22\n  jump\t// in\ntag_105:\n    /* \"#utility.yul\":5267:5301   */\n  tag_32\n  jump\t// in\ntag_104:\n    /* \"#utility.yul\":5249:5302   */\n  tag_22\n  jump\t// in\ntag_103:\n    /* \"#utility.yul\":5236:5302   */\n  swap1\n  pop\n    /* \"#utility.yul\":5166:5308   */\n  swap2\n  swap1\n  pop\n  jump\t// out\n    /* \"#utility.yul\":5314:5389   */\ntag_34:\n    /* \"#utility.yul\":5357:5360   */\n  0x00\n    /* \"#utility.yul\":5378:5383   */\n  dup2\n    /* \"#utility.yul\":5371:5383   */\n  swap1\n  pop\n    /* \"#utility.yul\":5314:5389   */\n  swap2\n  swap1\n  pop\n  jump\t// out\n    /* \"#utility.yul\":5395:5664   */\ntag_35:\n    /* \"#utility.yul\":5505:5544   */\n  tag_108\n    /* \"#utility.yul\":5536:5543   */\n  dup4\n    /* \"#utility.yul\":5505:5544   */\n  tag_33\n  jump\t// in\ntag_108:\n    /* \"#utility.yul\":5566:5657   */\n  tag_109\n    /* \"#utility.yul\":5615:5656   */\n  tag_110\n    /* \"#utility.yul\":5639:5655   */\n  dup3\n    /* \"#utility.yul\":5615:5656   */\n  tag_34\n  jump\t// in\ntag_110:\n    /* \"#utility.yul\":5607:5613   */\n  dup5\n    /* \"#utility.yul\":5600:5604   */\n  dup5\n    /* \"#utility.yul\":5594:5605   */\n  sload\n    /* \"#utility.yul\":5566:5657   */\n  tag_31\n  jump\t// in\ntag_109:\n    /* \"#utility.yul\":5560:5564   */\n  dup3\n    /* \"#utility.yul\":5553:5658   */\n  sstore\n    /* \"#utility.yul\":5471:5664   */\n  pop\n    /* \"#utility.yul\":5395:5664   */\n  pop\n  pop\n  pop\n  jump\t// out\n    /* \"#utility.yul\":5670:5743   */\ntag_36:\n    /* \"#utility.yul\":5715:5718   */\n  0x00\n    /* \"#utility.yul\":5670:5743   */\n  swap1\n  jump\t// out\n    /* \"#utility.yul\":5749:5938   */\ntag_37:\n    /* \"#utility.yul\":5826:5858   */\n  tag_113\n  tag_36\n  jump\t// in\ntag_113:\n    /* \"#utility.yul\":5867:5932   */\n  tag_114\n    /* \"#utility.yul\":5925:5931   */\n  dup2\n    /* \"#utility.yul\":5917:5923   */\n  dup5\n    /* \"#utility.yul\":5911:5915   */\n  dup5\n    /* \"#utility.yul\":5867:5932   */\n  tag_35\n  jump\t// in\ntag_114:\n    /* \"#utility.yul\":5802:5938   */\n  pop\n    /* \"#utility.yul\":5749:5938   */\n  pop\n  pop\n  jump\t// out\n    /* \"#utility.yul\":5944:6130   */\ntag_38:\n    /* \"#utility.yul\":6004:6124   */\ntag_116:\n    /* \"#utility.yul\":6021:6024   */\n  dup2\n    /* \"#utility.yul\":6014:6019   */\n  dup2\n    /* \"#utility.yul\":6011:6025   */\n  lt\n    /* \"#utility.yul\":6004:6124   */\n  iszero\n  tag_118\n  jumpi\n    /* \"#utility.yul\":6075:6114   */\n  tag_119\n    /* \"#utility.yul\":6112:6113   */\n  0x00\n    /* \"#utility.yul\":6105:6110   */\n  dup3\n    /* \"#utility.yul\":6075:6114   */\n  tag_37\n  jump\t// in\ntag_119:\n    /* \"#utility.yul\":6048:6049   */\n  0x01\n    /* \"#utility.yul\":6041:6046   */\n  dup2\n    /* \"#utility.yul\":6037:6050   */\n  add\n    /* \"#utility.yul\":6028:6050   */\n  swap1\n  pop\n    /* \"#utility.yul\":6004:6124   */\n  jump(tag_116)\ntag_118:\n    /* \"#utility.yul\":5944:6130   */\n  pop\n  pop\n  jump\t// out\n    /* \"#utility.yul\":6136:6679   */\ntag_39:\n    /* \"#utility.yul\":6237:6239   */\n  0x1f\n    /* \"#utility.yul\":6232:6235   */\n  dup3\n    /* \"#utility.yul\":6229:6240   */\n  gt\n    /* \"#utility.yul\":6226:6672   */\n  iszero\n  tag_121\n  jumpi\n    /* \"#utility.yul\":6271:6309   */\n  tag_122\n    /* \"#utility.yul\":6303:6308   */\n  dup2\n    /* \"#utility.yul\":6271:6309   */\n  tag_28\n  jump\t// in\ntag_122:\n    /* \"#utility.yul\":6355:6384   */\n  tag_123\n    /* \"#utility.yul\":6373:6383   */\n  dup5\n    /* \"#utility.yul\":6355:6384   */\n  tag_29\n  jump\t// in\ntag_123:\n    /* \"#utility.yul\":6345:6353   */\n  dup2\n    /* \"#utility.yul\":6341:6385   */\n  add\n    /* \"#utility.yul\":6538:6540   */\n  0x20\n    /* \"#utility.yul\":6526:6536   */\n  dup6\n    /* \"#utility.yul\":6523:6541   */\n  lt\n    /* \"#utility.yul\":6520:6569   */\n  iszero\n  tag_124\n  jumpi\n    /* \"#utility.yul\":6559:6567   */\n  dup2\n    /* \"#utility.yul\":6544:6567   */\n  swap1\n  pop\n    /* \"#utility.yul\":6520:6569   */\ntag_124:\n    /* \"#utility.yul\":6582:6662   */\n  tag_125\n    /* \"#utility.yul\":6638:6660   */\n  tag_126\n    /* \"#utility.yul\":6656:6659   */\n  dup6\n    /* \"#utility.yul\":6638:6660   */\n  tag_29\n  jump\t// in\ntag_126:\n    /* \"#utility.yul\":6628:6636   */\n  dup4\n    /* \"#utility.yul\":6624:6661   */\n  add\n    /* \"#utility.yul\":6611:6622   */\n  dup3\n    /* \"#utility.yul\":6582:6662   */\n  tag_38\n  jump\t// in\ntag_125:\n    /* \"#utility.yul\":6241:6672   */\n  pop\n  pop\n    /* \"#utility.yul\":6226:6672   */\ntag_121:\n    /* \"#utility.yul\":6136:6679   */\n  pop\n  pop\n  pop\n  jump\t// out\n    /* \"#utility.yul\":6685:6802   */\ntag_40:\n    /* \"#utility.yul\":6739:6747   */\n  0x00\n    /* \"#utility.yul\":6789:6794   */\n  dup3\n    /* \"#utility.yul\":6783:6787   */\n  dup3\n    /* \"#utility.yul\":6779:6795   */\n  shr\n    /* \"#utility.yul\":6758:6795   */\n  swap1\n  pop\n    /* \"#utility.yul\":6685:6802   */\n  swap3\n  swap2\n  pop\n  pop\n  jump\t// out\n    /* \"#utility.yul\":6808:6977   */\ntag_41:\n    /* \"#utility.yul\":6852:6858   */\n  0x00\n    /* \"#utility.yul\":6885:6936   */\n  tag_129\n    /* \"#utility.yul\":6933:6934   */\n  0x00\n    /* \"#utility.yul\":6929:6935   */\n  not\n    /* \"#utility.yul\":6921:6926   */\n  dup5\n    /* \"#utility.yul\":6918:6919   */\n  0x08\n    /* \"#utility.yul\":6914:6927   */\n  mul\n    /* \"#utility.yul\":6885:6936   */\n  tag_40\n  jump\t// in\ntag_129:\n    /* \"#utility.yul\":6881:6937   */\n  not\n    /* \"#utility.yul\":6966:6970   */\n  dup1\n    /* \"#utility.yul\":6960:6964   */\n  dup4\n    /* \"#utility.yul\":6956:6971   */\n  and\n    /* \"#utility.yul\":6946:6971   */\n  swap2\n  pop\n    /* \"#utility.yul\":6859:6977   */\n  pop\n    /* \"#utility.yul\":6808:6977   */\n  swap3\n  swap2\n  pop\n  pop\n  jump\t// out\n    /* \"#utility.yul\":6982:7277   */\ntag_42:\n    /* \"#utility.yul\":7058:7062   */\n  0x00\n    /* \"#utility.yul\":7204:7233   */\n  tag_131\n    /* \"#utility.yul\":7229:7232   */\n  dup4\n    /* \"#utility.yul\":7223:7227   */\n  dup4\n    /* \"#utility.yul\":7204:7233   */\n  tag_41\n  jump\t// in\ntag_131:\n    /* \"#utility.yul\":7196:7233   */\n  swap2\n  pop\n    /* \"#utility.yul\":7266:7269   */\n  dup3\n    /* \"#utility.yul\":7263:7264   */\n  0x02\n    /* \"#utility.yul\":7259:7270   */\n  mul\n    /* \"#utility.yul\":7253:7257   */\n  dup3\n    /* \"#utility.yul\":7250:7271   */\n  or\n    /* \"#utility.yul\":7242:7271   */\n  swap1\n  pop\n    /* \"#utility.yul\":6982:7277   */\n  swap3\n  swap2\n  pop\n  pop\n  jump\t// out\n    /* \"#utility.yul\":7282:8677   */\ntag_7:\n    /* \"#utility.yul\":7399:7436   */\n  tag_133\n    /* \"#utility.yul\":7432:7435   */\n  dup3\n    /* \"#utility.yul\":7399:7436   */\n  tag_25\n  jump\t// in\ntag_133:\n    /* \"#utility.yul\":7501:7519   */\n  0xffffffffffffffff\n    /* \"#utility.yul\":7493:7499   */\n  dup2\n    /* \"#utility.yul\":7490:7520   */\n  gt\n    /* \"#utility.yul\":7487:7543   */\n  iszero\n  tag_134\n  jumpi\n    /* \"#utility.yul\":7523:7541   */\n  tag_135\n  tag_15\n  jump\t// in\ntag_135:\n    /* \"#utility.yul\":7487:7543   */\ntag_134:\n    /* \"#utility.yul\":7567:7605   */\n  tag_136\n    /* \"#utility.yul\":7599:7603   */\n  dup3\n    /* \"#utility.yul\":7593:7604   */\n  sload\n    /* \"#utility.yul\":7567:7605   */\n  tag_27\n  jump\t// in\ntag_136:\n    /* \"#utility.yul\":7652:7719   */\n  tag_137\n    /* \"#utility.yul\":7712:7718   */\n  dup3\n    /* \"#utility.yul\":7704:7710   */\n  dup3\n    /* \"#utility.yul\":7698:7702   */\n  dup6\n    /* \"#utility.yul\":7652:7719   */\n  tag_39\n  jump\t// in\ntag_137:\n    /* \"#utility.yul\":7746:7747   */\n  0x00\n    /* \"#utility.yul\":7770:7774   */\n  0x20\n    /* \"#utility.yul\":7757:7774   */\n  swap1\n  pop\n    /* \"#utility.yul\":7802:7804   */\n  0x1f\n    /* \"#utility.yul\":7794:7800   */\n  dup4\n    /* \"#utility.yul\":7791:7805   */\n  gt\n    /* \"#utility.yul\":7819:7820   */\n  0x01\n    /* \"#utility.yul\":7814:8432   */\n  dup2\n  eq\n  tag_139\n  jumpi\n    /* \"#utility.yul\":8476:8477   */\n  0x00\n    /* \"#utility.yul\":8493:8499   */\n  dup5\n    /* \"#utility.yul\":8490:8567   */\n  iszero\n  tag_140\n  jumpi\n    /* \"#utility.yul\":8542:8551   */\n  dup3\n    /* \"#utility.yul\":8537:8540   */\n  dup8\n    /* \"#utility.yul\":8533:8552   */\n  add\n    /* \"#utility.yul\":8527:8553   */\n  mload\n    /* \"#utility.yul\":8518:8553   */\n  swap1\n  pop\n    /* \"#utility.yul\":8490:8567   */\ntag_140:\n    /* \"#utility.yul\":8593:8660   */\n  tag_141\n    /* \"#utility.yul\":8653:8659   */\n  dup6\n    /* \"#utility.yul\":8646:8651   */\n  dup3\n    /* \"#utility.yul\":8593:8660   */\n  tag_42\n  jump\t// in\ntag_141:\n    /* \"#utility.yul\":8587:8591   */\n  dup7\n    /* \"#utility.yul\":8580:8661   */\n  sstore\n    /* \"#utility.yul\":8449:8671   */\n  pop\n    /* \"#utility.yul\":7784:8671   */\n  jump(tag_138)\n    /* \"#utility.yul\":7814:8432   */\ntag_139:\n    /* \"#utility.yul\":7866:7870   */\n  0x1f\n    /* \"#utility.yul\":7862:7871   */\n  not\n    /* \"#utility.yul\":7854:7860   */\n  dup5\n    /* \"#utility.yul\":7850:7872   */\n  and\n    /* \"#utility.yul\":7900:7937   */\n  tag_142\n    /* \"#utility.yul\":7932:7936   */\n  dup7\n    /* \"#utility.yul\":7900:7937   */\n  tag_28\n  jump\t// in\ntag_142:\n    /* \"#utility.yul\":7959:7960   */\n  0x00\n    /* \"#utility.yul\":7973:8181   */\ntag_143:\n    /* \"#utility.yul\":7987:7994   */\n  dup3\n    /* \"#utility.yul\":7984:7985   */\n  dup2\n    /* \"#utility.yul\":7981:7995   */\n  lt\n    /* \"#utility.yul\":7973:8181   */\n  iszero\n  tag_145\n  jumpi\n    /* \"#utility.yul\":8066:8075   */\n  dup5\n    /* \"#utility.yul\":8061:8064   */\n  dup10\n    /* \"#utility.yul\":8057:8076   */\n  add\n    /* \"#utility.yul\":8051:8077   */\n  mload\n    /* \"#utility.yul\":8043:8049   */\n  dup3\n    /* \"#utility.yul\":8036:8078   */\n  sstore\n    /* \"#utility.yul\":8117:8118   */\n  0x01\n    /* \"#utility.yul\":8109:8115   */\n  dup3\n    /* \"#utility.yul\":8105:8119   */\n  add\n    /* \"#utility.yul\":8095:8119   */\n  swap2\n  pop\n    /* \"#utility.yul\":8164:8166   */\n  0x20\n    /* \"#utility.yul\":8153:8162   */\n  dup6\n    /* \"#utility.yul\":8149:8167   */\n  add\n    /* \"#utility.yul\":8136:8167   */\n  swap5\n  pop\n    /* \"#utility.yul\":8010:8014   */\n  0x20\n    /* \"#utility.yul\":8007:8008   */\n  dup2\n    /* \"#utility.yul\":8003:8015   */\n  add\n    /* \"#utility.yul\":7998:8015   */\n  swap1\n  pop\n    /* \"#utility.yul\":7973:8181   */\n  jump(tag_143)\ntag_145:\n    /* \"#utility.yul\":8209:8215   */\n  dup7\n    /* \"#utility.yul\":8200:8207   */\n  dup4\n    /* \"#utility.yul\":8197:8216   */\n  lt\n    /* \"#utility.yul\":8194:8373   */\n  iszero\n  tag_146\n  jumpi\n    /* \"#utility.yul\":8267:8276   */\n  dup5\n    /* \"#utility.yul\":8262:8265   */\n  dup10\n    /* \"#utility.yul\":8258:8277   */\n  add\n    /* \"#utility.yul\":8252:8278   */\n  mload\n    /* \"#utility.yul\":8310:8358   */\n  tag_147\n    /* \"#utility.yul\":8352:8356   */\n  0x1f\n    /* \"#utility.yul\":8344:8350   */\n  dup10\n    /* \"#utility.yul\":8340:8357   */\n  and\n    /* \"#utility.yul\":8329:8338   */\n  dup3\n    /* \"#utility.yul\":8310:8358   */\n  tag_41\n  jump\t// in\ntag_147:\n    /* \"#utility.yul\":8302:8308   */\n  dup4\n    /* \"#utility.yul\":8295:8359   */\n  sstore\n    /* \"#utility.yul\":8217:8373   */\n  pop\n    /* \"#utility.yul\":8194:8373   */\ntag_146:\n    /* \"#utility.yul\":8419:8420   */\n  0x01\n    /* \"#utility.yul\":8415:8416   */\n  0x02\n    /* \"#utility.yul\":8407:8413   */\n  dup9\n    /* \"#utility.yul\":8403:8417   */\n  mul\n    /* \"#utility.yul\":8399:8421   */\n  add\n    /* \"#utility.yul\":8393:8397   */\n  dup9\n    /* \"#utility.yul\":8386:8422   */\n  sstore\n    /* \"#utility.yul\":7821:8432   */\n  pop\n  pop\n  pop\n    /* \"#utility.yul\":7784:8671   */\ntag_138:\n  pop\n    /* \"#utility.yul\":7374:8677   */\n  pop\n  pop\n  pop\n    /* \"#utility.yul\":7282:8677   */\n  pop\n  pop\n  jump\t// out\n    /* \"contracts/Alncancia.sol\":58:1357  contract AlcanciaDigital{... */\ntag_8:\n  dataSize(sub_0)\n  dup1\n  dataOffset(sub_0)\n  0x00\n  codecopy\n  0x00\n  return\nstop\n\nsub_0: assembly {\n        /* \"contracts/Alncancia.sol\":58:1357  contract AlcanciaDigital{... */\n      mstore(0x40, 0x80)\n      jumpi(tag_1, lt(calldatasize, 0x04))\n      shr(0xe0, calldataload(0x00))\n      dup1\n      0x88426468\n      gt\n      tag_12\n      jumpi\n      dup1\n      0x88426468\n      eq\n      tag_7\n      jumpi\n      dup1\n      0x8da5cb5b\n      eq\n      tag_8\n      jumpi\n      dup1\n      0xaba46a5f\n      eq\n      tag_9\n      jumpi\n      dup1\n      0xb3718174\n      eq\n      tag_10\n      jumpi\n      dup1\n      0xbc167263\n      eq\n      tag_11\n      jumpi\n      jump(tag_1)\n    tag_12:\n      dup1\n      0x06a3e4e6\n      eq\n      tag_2\n      jumpi\n      dup1\n      0x22d9a1ee\n      eq\n      tag_3\n      jumpi\n      dup1\n      0x305954b6\n      eq\n      tag_4\n      jumpi\n      dup1\n      0x3ec47542\n      eq\n      tag_5\n      jumpi\n      dup1\n      0x78340e57\n      eq\n      tag_6\n      jumpi\n    tag_1:\n      0x00\n      dup1\n      revert\n        /* \"contracts/Alncancia.sol\":808:909  function cambiarEstadoAlcancia() public onlyOwner{... */\n    tag_2:\n      callvalue\n      dup1\n      iszero\n      tag_13\n      jumpi\n      0x00\n      dup1\n      revert\n    tag_13:\n      pop\n      tag_14\n      tag_15\n      jump\t// in\n    tag_14:\n      stop\n        /* \"contracts/Alncancia.sol\":1105:1203  function obtenerBalance() public view returns (uint) {... */\n    tag_3:\n      callvalue\n      dup1\n      iszero\n      tag_16\n      jumpi\n      0x00\n      dup1\n      revert\n    tag_16:\n      pop\n      tag_17\n      tag_18\n      jump\t// in\n    tag_17:\n      mload(0x40)\n      tag_19\n      swap2\n      swap1\n      tag_20\n      jump\t// in\n    tag_19:\n      mload(0x40)\n      dup1\n      swap2\n      sub\n      swap1\n      return\n        /* \"contracts/Alncancia.sol\":182:209  bool public alcanciaAbierta */\n    tag_4:\n      callvalue\n      dup1\n      iszero\n      tag_21\n      jumpi\n      0x00\n      dup1\n      revert\n    tag_21:\n      pop\n      tag_22\n      tag_23\n      jump\t// in\n    tag_22:\n      mload(0x40)\n      tag_24\n      swap2\n      swap1\n      tag_25\n      jump\t// in\n    tag_24:\n      mload(0x40)\n      dup1\n      swap2\n      sub\n      swap1\n      return\n        /* \"contracts/Alncancia.sol\":914:1099  function depositarFondos() public payable {... */\n    tag_5:\n      tag_26\n      tag_27\n      jump\t// in\n    tag_26:\n      stop\n        /* \"contracts/Alncancia.sol\":114:142  uint public cantidadObjetivo */\n    tag_6:\n      callvalue\n      dup1\n      iszero\n      tag_28\n      jumpi\n      0x00\n      dup1\n      revert\n    tag_28:\n      pop\n      tag_29\n      tag_30\n      jump\t// in\n    tag_29:\n      mload(0x40)\n      tag_31\n      swap2\n      swap1\n      tag_20\n      jump\t// in\n    tag_31:\n      mload(0x40)\n      dup1\n      swap2\n      sub\n      swap1\n      return\n        /* \"contracts/Alncancia.sol\":1209:1348  function comprobarObjetivoAlcanzado () public view onlyOwner returns (bool){    ... */\n    tag_7:\n      callvalue\n      dup1\n      iszero\n      tag_32\n      jumpi\n      0x00\n      dup1\n      revert\n    tag_32:\n      pop\n      tag_33\n      tag_34\n      jump\t// in\n    tag_33:\n      mload(0x40)\n      tag_35\n      swap2\n      swap1\n      tag_25\n      jump\t// in\n    tag_35:\n      mload(0x40)\n      dup1\n      swap2\n      sub\n      swap1\n      return\n        /* \"contracts/Alncancia.sol\":88:108  address public owner */\n    tag_8:\n      callvalue\n      dup1\n      iszero\n      tag_36\n      jumpi\n      0x00\n      dup1\n      revert\n    tag_36:\n      pop\n      tag_37\n      tag_38\n      jump\t// in\n    tag_37:\n      mload(0x40)\n      tag_39\n      swap2\n      swap1\n      tag_40\n      jump\t// in\n    tag_39:\n      mload(0x40)\n      dup1\n      swap2\n      sub\n      swap1\n      return\n        /* \"contracts/Alncancia.sol\":148:176  string public nombreAlcancia */\n    tag_9:\n      callvalue\n      dup1\n      iszero\n      tag_41\n      jumpi\n      0x00\n      dup1\n      revert\n    tag_41:\n      pop\n      tag_42\n      tag_43\n      jump\t// in\n    tag_42:\n      mload(0x40)\n      tag_44\n      swap2\n      swap1\n      tag_45\n      jump\t// in\n    tag_44:\n      mload(0x40)\n      dup1\n      swap2\n      sub\n      swap1\n      return\n        /* \"contracts/Alncancia.sol\":556:681  function cambiarNombreAlcancia(string memory _nombreInicial) public onlyOwner{... */\n    tag_10:\n      callvalue\n      dup1\n      iszero\n      tag_46\n      jumpi\n      0x00\n      dup1\n      revert\n    tag_46:\n      pop\n      tag_47\n      0x04\n      dup1\n      calldatasize\n      sub\n      dup2\n      add\n      swap1\n      tag_48\n      swap2\n      swap1\n      tag_49\n      jump\t// in\n    tag_48:\n      tag_50\n      jump\t// in\n    tag_47:\n      stop\n        /* \"contracts/Alncancia.sol\":686:803  function cambiarObjetivo(uint _objetivoInicial) public onlyOwner {... */\n    tag_11:\n      callvalue\n      dup1\n      iszero\n      tag_51\n      jumpi\n      0x00\n      dup1\n      revert\n    tag_51:\n      pop\n      tag_52\n      0x04\n      dup1\n      calldatasize\n      sub\n      dup2\n      add\n      swap1\n      tag_53\n      swap2\n      swap1\n      tag_54\n      jump\t// in\n    tag_53:\n      tag_55\n      jump\t// in\n    tag_52:\n      stop\n        /* \"contracts/Alncancia.sol\":808:909  function cambiarEstadoAlcancia() public onlyOwner{... */\n    tag_15:\n        /* \"contracts/Alncancia.sol\":492:497  owner */\n      0x00\n      dup1\n      sload\n      swap1\n      0x0100\n      exp\n      swap1\n      div\n      0xffffffffffffffffffffffffffffffffffffffff\n      and\n        /* \"contracts/Alncancia.sol\":478:497  msg.sender == owner */\n      0xffffffffffffffffffffffffffffffffffffffff\n      and\n        /* \"contracts/Alncancia.sol\":478:488  msg.sender */\n      caller\n        /* \"contracts/Alncancia.sol\":478:497  msg.sender == owner */\n      0xffffffffffffffffffffffffffffffffffffffff\n      and\n      eq\n        /* \"contracts/Alncancia.sol\":470:532  require(msg.sender == owner, \"No eres el duenio del contrato\") */\n      tag_57\n      jumpi\n      mload(0x40)\n      0x08c379a000000000000000000000000000000000000000000000000000000000\n      dup2\n      mstore\n      0x04\n      add\n      tag_58\n      swap1\n      tag_59\n      jump\t// in\n    tag_58:\n      mload(0x40)\n      dup1\n      swap2\n      sub\n      swap1\n      revert\n    tag_57:\n        /* \"contracts/Alncancia.sol\":887:902  alcanciaAbierta */\n      0x03\n      0x00\n      swap1\n      sload\n      swap1\n      0x0100\n      exp\n      swap1\n      div\n      0xff\n      and\n        /* \"contracts/Alncancia.sol\":885:902  ! alcanciaAbierta */\n      iszero\n        /* \"contracts/Alncancia.sol\":867:882  alcanciaAbierta */\n      0x03\n      0x00\n        /* \"contracts/Alncancia.sol\":867:902  alcanciaAbierta = ! alcanciaAbierta */\n      0x0100\n      exp\n      dup2\n      sload\n      dup2\n      0xff\n      mul\n      not\n      and\n      swap1\n      dup4\n      iszero\n      iszero\n      mul\n      or\n      swap1\n      sstore\n      pop\n        /* \"contracts/Alncancia.sol\":808:909  function cambiarEstadoAlcancia() public onlyOwner{... */\n      jump\t// out\n        /* \"contracts/Alncancia.sol\":1105:1203  function obtenerBalance() public view returns (uint) {... */\n    tag_18:\n        /* \"contracts/Alncancia.sol\":1152:1156  uint */\n      0x00\n        /* \"contracts/Alncancia.sol\":1175:1196  address(this).balance */\n      selfbalance\n        /* \"contracts/Alncancia.sol\":1168:1196  return address(this).balance */\n      swap1\n      pop\n        /* \"contracts/Alncancia.sol\":1105:1203  function obtenerBalance() public view returns (uint) {... */\n      swap1\n      jump\t// out\n        /* \"contracts/Alncancia.sol\":182:209  bool public alcanciaAbierta */\n    tag_23:\n      0x03\n      0x00\n      swap1\n      sload\n      swap1\n      0x0100\n      exp\n      swap1\n      div\n      0xff\n      and\n      dup2\n      jump\t// out\n        /* \"contracts/Alncancia.sol\":914:1099  function depositarFondos() public payable {... */\n    tag_27:\n        /* \"contracts/Alncancia.sol\":974:989  alcanciaAbierta */\n      0x03\n      0x00\n      swap1\n      sload\n      swap1\n      0x0100\n      exp\n      swap1\n      div\n      0xff\n      and\n        /* \"contracts/Alncancia.sol\":966:1033  require(alcanciaAbierta, \"No puede hacer deposito a esta alcancia\") */\n      tag_63\n      jumpi\n      mload(0x40)\n      0x08c379a000000000000000000000000000000000000000000000000000000000\n      dup2\n      mstore\n      0x04\n      add\n      tag_64\n      swap1\n      tag_65\n      jump\t// in\n    tag_64:\n      mload(0x40)\n      dup1\n      swap2\n      sub\n      swap1\n      revert\n    tag_63:\n        /* \"contracts/Alncancia.sol\":914:1099  function depositarFondos() public payable {... */\n      jump\t// out\n        /* \"contracts/Alncancia.sol\":114:142  uint public cantidadObjetivo */\n    tag_30:\n      sload(0x01)\n      dup2\n      jump\t// out\n        /* \"contracts/Alncancia.sol\":1209:1348  function comprobarObjetivoAlcanzado () public view onlyOwner returns (bool){    ... */\n    tag_34:\n        /* \"contracts/Alncancia.sol\":1279:1283  bool */\n      0x00\n        /* \"contracts/Alncancia.sol\":492:497  owner */\n      dup1\n      0x00\n      swap1\n      sload\n      swap1\n      0x0100\n      exp\n      swap1\n      div\n      0xffffffffffffffffffffffffffffffffffffffff\n      and\n        /* \"contracts/Alncancia.sol\":478:497  msg.sender == owner */\n      0xffffffffffffffffffffffffffffffffffffffff\n      and\n        /* \"contracts/Alncancia.sol\":478:488  msg.sender */\n      caller\n        /* \"contracts/Alncancia.sol\":478:497  msg.sender == owner */\n      0xffffffffffffffffffffffffffffffffffffffff\n      and\n      eq\n        /* \"contracts/Alncancia.sol\":470:532  require(msg.sender == owner, \"No eres el duenio del contrato\") */\n      tag_67\n      jumpi\n      mload(0x40)\n      0x08c379a000000000000000000000000000000000000000000000000000000000\n      dup2\n      mstore\n      0x04\n      add\n      tag_68\n      swap1\n      tag_59\n      jump\t// in\n    tag_68:\n      mload(0x40)\n      dup1\n      swap2\n      sub\n      swap1\n      revert\n    tag_67:\n        /* \"contracts/Alncancia.sol\":1325:1341  obtenerBalance() */\n      tag_70\n        /* \"contracts/Alncancia.sol\":1325:1339  obtenerBalance */\n      tag_18\n        /* \"contracts/Alncancia.sol\":1325:1341  obtenerBalance() */\n      jump\t// in\n    tag_70:\n        /* \"contracts/Alncancia.sol\":1305:1321  cantidadObjetivo */\n      sload(0x01)\n        /* \"contracts/Alncancia.sol\":1305:1341  cantidadObjetivo <= obtenerBalance() */\n      gt\n      iszero\n        /* \"contracts/Alncancia.sol\":1298:1341  return cantidadObjetivo <= obtenerBalance() */\n      swap1\n      pop\n        /* \"contracts/Alncancia.sol\":1209:1348  function comprobarObjetivoAlcanzado () public view onlyOwner returns (bool){    ... */\n      swap1\n      jump\t// out\n        /* \"contracts/Alncancia.sol\":88:108  address public owner */\n    tag_38:\n      0x00\n      dup1\n      sload\n      swap1\n      0x0100\n      exp\n      swap1\n      div\n      0xffffffffffffffffffffffffffffffffffffffff\n      and\n      dup2\n      jump\t// out\n        /* \"contracts/Alncancia.sol\":148:176  string public nombreAlcancia */\n    tag_43:\n      0x02\n      dup1\n      sload\n      tag_71\n      swap1\n      tag_72\n      jump\t// in\n    tag_71:\n      dup1\n      0x1f\n      add\n      0x20\n      dup1\n      swap2\n      div\n      mul\n      0x20\n      add\n      mload(0x40)\n      swap1\n      dup2\n      add\n      0x40\n      mstore\n      dup1\n      swap3\n      swap2\n      swap1\n      dup2\n      dup2\n      mstore\n      0x20\n      add\n      dup3\n      dup1\n      sload\n      tag_73\n      swap1\n      tag_72\n      jump\t// in\n    tag_73:\n      dup1\n      iszero\n      tag_74\n      jumpi\n      dup1\n      0x1f\n      lt\n      tag_75\n      jumpi\n      0x0100\n      dup1\n      dup4\n      sload\n      div\n      mul\n      dup4\n      mstore\n      swap2\n      0x20\n      add\n      swap2\n      jump(tag_74)\n    tag_75:\n      dup3\n      add\n      swap2\n      swap1\n      0x00\n      mstore\n      keccak256(0x00, 0x20)\n      swap1\n    tag_76:\n      dup2\n      sload\n      dup2\n      mstore\n      swap1\n      0x01\n      add\n      swap1\n      0x20\n      add\n      dup1\n      dup4\n      gt\n      tag_76\n      jumpi\n      dup3\n      swap1\n      sub\n      0x1f\n      and\n      dup3\n      add\n      swap2\n    tag_74:\n      pop\n      pop\n      pop\n      pop\n      pop\n      dup2\n      jump\t// out\n        /* \"contracts/Alncancia.sol\":556:681  function cambiarNombreAlcancia(string memory _nombreInicial) public onlyOwner{... */\n    tag_50:\n        /* \"contracts/Alncancia.sol\":492:497  owner */\n      0x00\n      dup1\n      sload\n      swap1\n      0x0100\n      exp\n      swap1\n      div\n      0xffffffffffffffffffffffffffffffffffffffff\n      and\n        /* \"contracts/Alncancia.sol\":478:497  msg.sender == owner */\n      0xffffffffffffffffffffffffffffffffffffffff\n      and\n        /* \"contracts/Alncancia.sol\":478:488  msg.sender */\n      caller\n        /* \"contracts/Alncancia.sol\":478:497  msg.sender == owner */\n      0xffffffffffffffffffffffffffffffffffffffff\n      and\n      eq\n        /* \"contracts/Alncancia.sol\":470:532  require(msg.sender == owner, \"No eres el duenio del contrato\") */\n      tag_78\n      jumpi\n      mload(0x40)\n      0x08c379a000000000000000000000000000000000000000000000000000000000\n      dup2\n      mstore\n      0x04\n      add\n      tag_79\n      swap1\n      tag_59\n      jump\t// in\n    tag_79:\n      mload(0x40)\n      dup1\n      swap2\n      sub\n      swap1\n      revert\n    tag_78:\n        /* \"contracts/Alncancia.sol\":660:674  _nombreInicial */\n      dup1\n        /* \"contracts/Alncancia.sol\":643:657  nombreAlcancia */\n      0x02\n        /* \"contracts/Alncancia.sol\":643:674  nombreAlcancia = _nombreInicial */\n      swap1\n      dup2\n      tag_81\n      swap2\n      swap1\n      tag_82\n      jump\t// in\n    tag_81:\n      pop\n        /* \"contracts/Alncancia.sol\":556:681  function cambiarNombreAlcancia(string memory _nombreInicial) public onlyOwner{... */\n      pop\n      jump\t// out\n        /* \"contracts/Alncancia.sol\":686:803  function cambiarObjetivo(uint _objetivoInicial) public onlyOwner {... */\n    tag_55:\n        /* \"contracts/Alncancia.sol\":492:497  owner */\n      0x00\n      dup1\n      sload\n      swap1\n      0x0100\n      exp\n      swap1\n      div\n      0xffffffffffffffffffffffffffffffffffffffff\n      and\n        /* \"contracts/Alncancia.sol\":478:497  msg.sender == owner */\n      0xffffffffffffffffffffffffffffffffffffffff\n      and\n        /* \"contracts/Alncancia.sol\":478:488  msg.sender */\n      caller\n        /* \"contracts/Alncancia.sol\":478:497  msg.sender == owner */\n      0xffffffffffffffffffffffffffffffffffffffff\n      and\n      eq\n        /* \"contracts/Alncancia.sol\":470:532  require(msg.sender == owner, \"No eres el duenio del contrato\") */\n      tag_84\n      jumpi\n      mload(0x40)\n      0x08c379a000000000000000000000000000000000000000000000000000000000\n      dup2\n      mstore\n      0x04\n      add\n      tag_85\n      swap1\n      tag_59\n      jump\t// in\n    tag_85:\n      mload(0x40)\n      dup1\n      swap2\n      sub\n      swap1\n      revert\n    tag_84:\n        /* \"contracts/Alncancia.sol\":780:796  _objetivoInicial */\n      dup1\n        /* \"contracts/Alncancia.sol\":761:777  cantidadObjetivo */\n      0x01\n        /* \"contracts/Alncancia.sol\":761:796  cantidadObjetivo = _objetivoInicial */\n      dup2\n      swap1\n      sstore\n      pop\n        /* \"contracts/Alncancia.sol\":686:803  function cambiarObjetivo(uint _objetivoInicial) public onlyOwner {... */\n      pop\n      jump\t// out\n        /* \"#utility.yul\":7:84   */\n    tag_87:\n        /* \"#utility.yul\":44:51   */\n      0x00\n        /* \"#utility.yul\":73:78   */\n      dup2\n        /* \"#utility.yul\":62:78   */\n      swap1\n      pop\n        /* \"#utility.yul\":7:84   */\n      swap2\n      swap1\n      pop\n      jump\t// out\n        /* \"#utility.yul\":90:208   */\n    tag_88:\n        /* \"#utility.yul\":177:201   */\n      tag_136\n        /* \"#utility.yul\":195:200   */\n      dup2\n        /* \"#utility.yul\":177:201   */\n      tag_87\n      jump\t// in\n    tag_136:\n        /* \"#utility.yul\":172:175   */\n      dup3\n        /* \"#utility.yul\":165:202   */\n      mstore\n        /* \"#utility.yul\":90:208   */\n      pop\n      pop\n      jump\t// out\n        /* \"#utility.yul\":214:436   */\n    tag_20:\n        /* \"#utility.yul\":307:311   */\n      0x00\n        /* \"#utility.yul\":345:347   */\n      0x20\n        /* \"#utility.yul\":334:343   */\n      dup3\n        /* \"#utility.yul\":330:348   */\n      add\n        /* \"#utility.yul\":322:348   */\n      swap1\n      pop\n        /* \"#utility.yul\":358:429   */\n      tag_138\n        /* \"#utility.yul\":426:427   */\n      0x00\n        /* \"#utility.yul\":415:424   */\n      dup4\n        /* \"#utility.yul\":411:428   */\n      add\n        /* \"#utility.yul\":402:408   */\n      dup5\n        /* \"#utility.yul\":358:429   */\n      tag_88\n      jump\t// in\n    tag_138:\n        /* \"#utility.yul\":214:436   */\n      swap3\n      swap2\n      pop\n      pop\n      jump\t// out\n        /* \"#utility.yul\":442:532   */\n    tag_89:\n        /* \"#utility.yul\":476:483   */\n      0x00\n        /* \"#utility.yul\":519:524   */\n      dup2\n        /* \"#utility.yul\":512:525   */\n      iszero\n        /* \"#utility.yul\":505:526   */\n      iszero\n        /* \"#utility.yul\":494:526   */\n      swap1\n      pop\n        /* \"#utility.yul\":442:532   */\n      swap2\n      swap1\n      pop\n      jump\t// out\n        /* \"#utility.yul\":538:647   */\n    tag_90:\n        /* \"#utility.yul\":619:640   */\n      tag_141\n        /* \"#utility.yul\":634:639   */\n      dup2\n        /* \"#utility.yul\":619:640   */\n      tag_89\n      jump\t// in\n    tag_141:\n        /* \"#utility.yul\":614:617   */\n      dup3\n        /* \"#utility.yul\":607:641   */\n      mstore\n        /* \"#utility.yul\":538:647   */\n      pop\n      pop\n      jump\t// out\n        /* \"#utility.yul\":653:863   */\n    tag_25:\n        /* \"#utility.yul\":740:744   */\n      0x00\n        /* \"#utility.yul\":778:780   */\n      0x20\n        /* \"#utility.yul\":767:776   */\n      dup3\n        /* \"#utility.yul\":763:781   */\n      add\n        /* \"#utility.yul\":755:781   */\n      swap1\n      pop\n        /* \"#utility.yul\":791:856   */\n      tag_143\n        /* \"#utility.yul\":853:854   */\n      0x00\n        /* \"#utility.yul\":842:851   */\n      dup4\n        /* \"#utility.yul\":838:855   */\n      add\n        /* \"#utility.yul\":829:835   */\n      dup5\n        /* \"#utility.yul\":791:856   */\n      tag_90\n      jump\t// in\n    tag_143:\n        /* \"#utility.yul\":653:863   */\n      swap3\n      swap2\n      pop\n      pop\n      jump\t// out\n        /* \"#utility.yul\":869:995   */\n    tag_91:\n        /* \"#utility.yul\":906:913   */\n      0x00\n        /* \"#utility.yul\":946:988   */\n      0xffffffffffffffffffffffffffffffffffffffff\n        /* \"#utility.yul\":939:944   */\n      dup3\n        /* \"#utility.yul\":935:989   */\n      and\n        /* \"#utility.yul\":924:989   */\n      swap1\n      pop\n        /* \"#utility.yul\":869:995   */\n      swap2\n      swap1\n      pop\n      jump\t// out\n        /* \"#utility.yul\":1001:1097   */\n    tag_92:\n        /* \"#utility.yul\":1038:1045   */\n      0x00\n        /* \"#utility.yul\":1067:1091   */\n      tag_146\n        /* \"#utility.yul\":1085:1090   */\n      dup3\n        /* \"#utility.yul\":1067:1091   */\n      tag_91\n      jump\t// in\n    tag_146:\n        /* \"#utility.yul\":1056:1091   */\n      swap1\n      pop\n        /* \"#utility.yul\":1001:1097   */\n      swap2\n      swap1\n      pop\n      jump\t// out\n        /* \"#utility.yul\":1103:1221   */\n    tag_93:\n        /* \"#utility.yul\":1190:1214   */\n      tag_148\n        /* \"#utility.yul\":1208:1213   */\n      dup2\n        /* \"#utility.yul\":1190:1214   */\n      tag_92\n      jump\t// in\n    tag_148:\n        /* \"#utility.yul\":1185:1188   */\n      dup3\n        /* \"#utility.yul\":1178:1215   */\n      mstore\n        /* \"#utility.yul\":1103:1221   */\n      pop\n      pop\n      jump\t// out\n        /* \"#utility.yul\":1227:1449   */\n    tag_40:\n        /* \"#utility.yul\":1320:1324   */\n      0x00\n        /* \"#utility.yul\":1358:1360   */\n      0x20\n        /* \"#utility.yul\":1347:1356   */\n      dup3\n        /* \"#utility.yul\":1343:1361   */\n      add\n        /* \"#utility.yul\":1335:1361   */\n      swap1\n      pop\n        /* \"#utility.yul\":1371:1442   */\n      tag_150\n        /* \"#utility.yul\":1439:1440   */\n      0x00\n        /* \"#utility.yul\":1428:1437   */\n      dup4\n        /* \"#utility.yul\":1424:1441   */\n      add\n        /* \"#utility.yul\":1415:1421   */\n      dup5\n        /* \"#utility.yul\":1371:1442   */\n      tag_93\n      jump\t// in\n    tag_150:\n        /* \"#utility.yul\":1227:1449   */\n      swap3\n      swap2\n      pop\n      pop\n      jump\t// out\n        /* \"#utility.yul\":1455:1554   */\n    tag_94:\n        /* \"#utility.yul\":1507:1513   */\n      0x00\n        /* \"#utility.yul\":1541:1546   */\n      dup2\n        /* \"#utility.yul\":1535:1547   */\n      mload\n        /* \"#utility.yul\":1525:1547   */\n      swap1\n      pop\n        /* \"#utility.yul\":1455:1554   */\n      swap2\n      swap1\n      pop\n      jump\t// out\n        /* \"#utility.yul\":1560:1729   */\n    tag_95:\n        /* \"#utility.yul\":1644:1655   */\n      0x00\n        /* \"#utility.yul\":1678:1684   */\n      dup3\n        /* \"#utility.yul\":1673:1676   */\n      dup3\n        /* \"#utility.yul\":1666:1685   */\n      mstore\n        /* \"#utility.yul\":1718:1722   */\n      0x20\n        /* \"#utility.yul\":1713:1716   */\n      dup3\n        /* \"#utility.yul\":1709:1723   */\n      add\n        /* \"#utility.yul\":1694:1723   */\n      swap1\n      pop\n        /* \"#utility.yul\":1560:1729   */\n      swap3\n      swap2\n      pop\n      pop\n      jump\t// out\n        /* \"#utility.yul\":1735:1983   */\n    tag_96:\n        /* \"#utility.yul\":1817:1818   */\n      0x00\n        /* \"#utility.yul\":1827:1940   */\n    tag_154:\n        /* \"#utility.yul\":1841:1847   */\n      dup4\n        /* \"#utility.yul\":1838:1839   */\n      dup2\n        /* \"#utility.yul\":1835:1848   */\n      lt\n        /* \"#utility.yul\":1827:1940   */\n      iszero\n      tag_156\n      jumpi\n        /* \"#utility.yul\":1926:1927   */\n      dup1\n        /* \"#utility.yul\":1921:1924   */\n      dup3\n        /* \"#utility.yul\":1917:1928   */\n      add\n        /* \"#utility.yul\":1911:1929   */\n      mload\n        /* \"#utility.yul\":1907:1908   */\n      dup2\n        /* \"#utility.yul\":1902:1905   */\n      dup5\n        /* \"#utility.yul\":1898:1909   */\n      add\n        /* \"#utility.yul\":1891:1930   */\n      mstore\n        /* \"#utility.yul\":1863:1865   */\n      0x20\n        /* \"#utility.yul\":1860:1861   */\n      dup2\n        /* \"#utility.yul\":1856:1866   */\n      add\n        /* \"#utility.yul\":1851:1866   */\n      swap1\n      pop\n        /* \"#utility.yul\":1827:1940   */\n      jump(tag_154)\n    tag_156:\n        /* \"#utility.yul\":1974:1975   */\n      0x00\n        /* \"#utility.yul\":1965:1971   */\n      dup5\n        /* \"#utility.yul\":1960:1963   */\n      dup5\n        /* \"#utility.yul\":1956:1972   */\n      add\n        /* \"#utility.yul\":1949:1976   */\n      mstore\n        /* \"#utility.yul\":1797:1983   */\n      pop\n        /* \"#utility.yul\":1735:1983   */\n      pop\n      pop\n      pop\n      jump\t// out\n        /* \"#utility.yul\":1989:2091   */\n    tag_97:\n        /* \"#utility.yul\":2030:2036   */\n      0x00\n        /* \"#utility.yul\":2081:2083   */\n      0x1f\n        /* \"#utility.yul\":2077:2084   */\n      not\n        /* \"#utility.yul\":2072:2074   */\n      0x1f\n        /* \"#utility.yul\":2065:2070   */\n      dup4\n        /* \"#utility.yul\":2061:2075   */\n      add\n        /* \"#utility.yul\":2057:2085   */\n      and\n        /* \"#utility.yul\":2047:2085   */\n      swap1\n      pop\n        /* \"#utility.yul\":1989:2091   */\n      swap2\n      swap1\n      pop\n      jump\t// out\n        /* \"#utility.yul\":2097:2474   */\n    tag_98:\n        /* \"#utility.yul\":2185:2188   */\n      0x00\n        /* \"#utility.yul\":2213:2252   */\n      tag_159\n        /* \"#utility.yul\":2246:2251   */\n      dup3\n        /* \"#utility.yul\":2213:2252   */\n      tag_94\n      jump\t// in\n    tag_159:\n        /* \"#utility.yul\":2268:2339   */\n      tag_160\n        /* \"#utility.yul\":2332:2338   */\n      dup2\n        /* \"#utility.yul\":2327:2330   */\n      dup6\n        /* \"#utility.yul\":2268:2339   */\n      tag_95\n      jump\t// in\n    tag_160:\n        /* \"#utility.yul\":2261:2339   */\n      swap4\n      pop\n        /* \"#utility.yul\":2348:2413   */\n      tag_161\n        /* \"#utility.yul\":2406:2412   */\n      dup2\n        /* \"#utility.yul\":2401:2404   */\n      dup6\n        /* \"#utility.yul\":2394:2398   */\n      0x20\n        /* \"#utility.yul\":2387:2392   */\n      dup7\n        /* \"#utility.yul\":2383:2399   */\n      add\n        /* \"#utility.yul\":2348:2413   */\n      tag_96\n      jump\t// in\n    tag_161:\n        /* \"#utility.yul\":2438:2467   */\n      tag_162\n        /* \"#utility.yul\":2460:2466   */\n      dup2\n        /* \"#utility.yul\":2438:2467   */\n      tag_97\n      jump\t// in\n    tag_162:\n        /* \"#utility.yul\":2433:2436   */\n      dup5\n        /* \"#utility.yul\":2429:2468   */\n      add\n        /* \"#utility.yul\":2422:2468   */\n      swap2\n      pop\n        /* \"#utility.yul\":2189:2474   */\n      pop\n        /* \"#utility.yul\":2097:2474   */\n      swap3\n      swap2\n      pop\n      pop\n      jump\t// out\n        /* \"#utility.yul\":2480:2793   */\n    tag_45:\n        /* \"#utility.yul\":2593:2597   */\n      0x00\n        /* \"#utility.yul\":2631:2633   */\n      0x20\n        /* \"#utility.yul\":2620:2629   */\n      dup3\n        /* \"#utility.yul\":2616:2634   */\n      add\n        /* \"#utility.yul\":2608:2634   */\n      swap1\n      pop\n        /* \"#utility.yul\":2680:2689   */\n      dup2\n        /* \"#utility.yul\":2674:2678   */\n      dup2\n        /* \"#utility.yul\":2670:2690   */\n      sub\n        /* \"#utility.yul\":2666:2667   */\n      0x00\n        /* \"#utility.yul\":2655:2664   */\n      dup4\n        /* \"#utility.yul\":2651:2668   */\n      add\n        /* \"#utility.yul\":2644:2691   */\n      mstore\n        /* \"#utility.yul\":2708:2786   */\n      tag_164\n        /* \"#utility.yul\":2781:2785   */\n      dup2\n        /* \"#utility.yul\":2772:2778   */\n      dup5\n        /* \"#utility.yul\":2708:2786   */\n      tag_98\n      jump\t// in\n    tag_164:\n        /* \"#utility.yul\":2700:2786   */\n      swap1\n      pop\n        /* \"#utility.yul\":2480:2793   */\n      swap3\n      swap2\n      pop\n      pop\n      jump\t// out\n        /* \"#utility.yul\":2799:2874   */\n    tag_99:\n        /* \"#utility.yul\":2832:2838   */\n      0x00\n        /* \"#utility.yul\":2865:2867   */\n      0x40\n        /* \"#utility.yul\":2859:2868   */\n      mload\n        /* \"#utility.yul\":2849:2868   */\n      swap1\n      pop\n        /* \"#utility.yul\":2799:2874   */\n      swap1\n      jump\t// out\n        /* \"#utility.yul\":2880:2997   */\n    tag_100:\n        /* \"#utility.yul\":2989:2990   */\n      0x00\n        /* \"#utility.yul\":2986:2987   */\n      dup1\n        /* \"#utility.yul\":2979:2991   */\n      revert\n        /* \"#utility.yul\":3003:3120   */\n    tag_101:\n        /* \"#utility.yul\":3112:3113   */\n      0x00\n        /* \"#utility.yul\":3109:3110   */\n      dup1\n        /* \"#utility.yul\":3102:3114   */\n      revert\n        /* \"#utility.yul\":3126:3243   */\n    tag_102:\n        /* \"#utility.yul\":3235:3236   */\n      0x00\n        /* \"#utility.yul\":3232:3233   */\n      dup1\n        /* \"#utility.yul\":3225:3237   */\n      revert\n        /* \"#utility.yul\":3249:3366   */\n    tag_103:\n        /* \"#utility.yul\":3358:3359   */\n      0x00\n        /* \"#utility.yul\":3355:3356   */\n      dup1\n        /* \"#utility.yul\":3348:3360   */\n      revert\n        /* \"#utility.yul\":3372:3552   */\n    tag_104:\n        /* \"#utility.yul\":3420:3497   */\n      0x4e487b7100000000000000000000000000000000000000000000000000000000\n        /* \"#utility.yul\":3417:3418   */\n      0x00\n        /* \"#utility.yul\":3410:3498   */\n      mstore\n        /* \"#utility.yul\":3517:3521   */\n      0x41\n        /* \"#utility.yul\":3514:3515   */\n      0x04\n        /* \"#utility.yul\":3507:3522   */\n      mstore\n        /* \"#utility.yul\":3541:3545   */\n      0x24\n        /* \"#utility.yul\":3538:3539   */\n      0x00\n        /* \"#utility.yul\":3531:3546   */\n      revert\n        /* \"#utility.yul\":3558:3839   */\n    tag_105:\n        /* \"#utility.yul\":3641:3668   */\n      tag_172\n        /* \"#utility.yul\":3663:3667   */\n      dup3\n        /* \"#utility.yul\":3641:3668   */\n      tag_97\n      jump\t// in\n    tag_172:\n        /* \"#utility.yul\":3633:3639   */\n      dup2\n        /* \"#utility.yul\":3629:3669   */\n      add\n        /* \"#utility.yul\":3771:3777   */\n      dup2\n        /* \"#utility.yul\":3759:3769   */\n      dup2\n        /* \"#utility.yul\":3756:3778   */\n      lt\n        /* \"#utility.yul\":3735:3753   */\n      0xffffffffffffffff\n        /* \"#utility.yul\":3723:3733   */\n      dup3\n        /* \"#utility.yul\":3720:3754   */\n      gt\n        /* \"#utility.yul\":3717:3779   */\n      or\n        /* \"#utility.yul\":3714:3802   */\n      iszero\n      tag_173\n      jumpi\n        /* \"#utility.yul\":3782:3800   */\n      tag_174\n      tag_104\n      jump\t// in\n    tag_174:\n        /* \"#utility.yul\":3714:3802   */\n    tag_173:\n        /* \"#utility.yul\":3822:3832   */\n      dup1\n        /* \"#utility.yul\":3818:3820   */\n      0x40\n        /* \"#utility.yul\":3811:3833   */\n      mstore\n        /* \"#utility.yul\":3601:3839   */\n      pop\n        /* \"#utility.yul\":3558:3839   */\n      pop\n      pop\n      jump\t// out\n        /* \"#utility.yul\":3845:3974   */\n    tag_106:\n        /* \"#utility.yul\":3879:3885   */\n      0x00\n        /* \"#utility.yul\":3906:3926   */\n      tag_176\n      tag_99\n      jump\t// in\n    tag_176:\n        /* \"#utility.yul\":3896:3926   */\n      swap1\n      pop\n        /* \"#utility.yul\":3935:3968   */\n      tag_177\n        /* \"#utility.yul\":3963:3967   */\n      dup3\n        /* \"#utility.yul\":3955:3961   */\n      dup3\n        /* \"#utility.yul\":3935:3968   */\n      tag_105\n      jump\t// in\n    tag_177:\n        /* \"#utility.yul\":3845:3974   */\n      swap2\n      swap1\n      pop\n      jump\t// out\n        /* \"#utility.yul\":3980:4288   */\n    tag_107:\n        /* \"#utility.yul\":4042:4046   */\n      0x00\n        /* \"#utility.yul\":4132:4150   */\n      0xffffffffffffffff\n        /* \"#utility.yul\":4124:4130   */\n      dup3\n        /* \"#utility.yul\":4121:4151   */\n      gt\n        /* \"#utility.yul\":4118:4174   */\n      iszero\n      tag_179\n      jumpi\n        /* \"#utility.yul\":4154:4172   */\n      tag_180\n      tag_104\n      jump\t// in\n    tag_180:\n        /* \"#utility.yul\":4118:4174   */\n    tag_179:\n        /* \"#utility.yul\":4192:4221   */\n      tag_181\n        /* \"#utility.yul\":4214:4220   */\n      dup3\n        /* \"#utility.yul\":4192:4221   */\n      tag_97\n      jump\t// in\n    tag_181:\n        /* \"#utility.yul\":4184:4221   */\n      swap1\n      pop\n        /* \"#utility.yul\":4276:4280   */\n      0x20\n        /* \"#utility.yul\":4270:4274   */\n      dup2\n        /* \"#utility.yul\":4266:4281   */\n      add\n        /* \"#utility.yul\":4258:4281   */\n      swap1\n      pop\n        /* \"#utility.yul\":3980:4288   */\n      swap2\n      swap1\n      pop\n      jump\t// out\n        /* \"#utility.yul\":4294:4442   */\n    tag_108:\n        /* \"#utility.yul\":4392:4398   */\n      dup3\n        /* \"#utility.yul\":4387:4390   */\n      dup2\n        /* \"#utility.yul\":4382:4385   */\n      dup4\n        /* \"#utility.yul\":4369:4399   */\n      calldatacopy\n        /* \"#utility.yul\":4433:4434   */\n      0x00\n        /* \"#utility.yul\":4424:4430   */\n      dup4\n        /* \"#utility.yul\":4419:4422   */\n      dup4\n        /* \"#utility.yul\":4415:4431   */\n      add\n        /* \"#utility.yul\":4408:4435   */\n      mstore\n        /* \"#utility.yul\":4294:4442   */\n      pop\n      pop\n      pop\n      jump\t// out\n        /* \"#utility.yul\":4448:4873   */\n    tag_109:\n        /* \"#utility.yul\":4526:4531   */\n      0x00\n        /* \"#utility.yul\":4551:4617   */\n      tag_184\n        /* \"#utility.yul\":4567:4616   */\n      tag_185\n        /* \"#utility.yul\":4609:4615   */\n      dup5\n        /* \"#utility.yul\":4567:4616   */\n      tag_107\n      jump\t// in\n    tag_185:\n        /* \"#utility.yul\":4551:4617   */\n      tag_106\n      jump\t// in\n    tag_184:\n        /* \"#utility.yul\":4542:4617   */\n      swap1\n      pop\n        /* \"#utility.yul\":4640:4646   */\n      dup3\n        /* \"#utility.yul\":4633:4638   */\n      dup2\n        /* \"#utility.yul\":4626:4647   */\n      mstore\n        /* \"#utility.yul\":4678:4682   */\n      0x20\n        /* \"#utility.yul\":4671:4676   */\n      dup2\n        /* \"#utility.yul\":4667:4683   */\n      add\n        /* \"#utility.yul\":4716:4719   */\n      dup5\n        /* \"#utility.yul\":4707:4713   */\n      dup5\n        /* \"#utility.yul\":4702:4705   */\n      dup5\n        /* \"#utility.yul\":4698:4714   */\n      add\n        /* \"#utility.yul\":4695:4720   */\n      gt\n        /* \"#utility.yul\":4692:4804   */\n      iszero\n      tag_186\n      jumpi\n        /* \"#utility.yul\":4723:4802   */\n      tag_187\n      tag_103\n      jump\t// in\n    tag_187:\n        /* \"#utility.yul\":4692:4804   */\n    tag_186:\n        /* \"#utility.yul\":4813:4867   */\n      tag_188\n        /* \"#utility.yul\":4860:4866   */\n      dup5\n        /* \"#utility.yul\":4855:4858   */\n      dup3\n        /* \"#utility.yul\":4850:4853   */\n      dup6\n        /* \"#utility.yul\":4813:4867   */\n      tag_108\n      jump\t// in\n    tag_188:\n        /* \"#utility.yul\":4532:4873   */\n      pop\n        /* \"#utility.yul\":4448:4873   */\n      swap4\n      swap3\n      pop\n      pop\n      pop\n      jump\t// out\n        /* \"#utility.yul\":4893:5233   */\n    tag_110:\n        /* \"#utility.yul\":4949:4954   */\n      0x00\n        /* \"#utility.yul\":4998:5001   */\n      dup3\n        /* \"#utility.yul\":4991:4995   */\n      0x1f\n        /* \"#utility.yul\":4983:4989   */\n      dup4\n        /* \"#utility.yul\":4979:4996   */\n      add\n        /* \"#utility.yul\":4975:5002   */\n      slt\n        /* \"#utility.yul\":4965:5087   */\n      tag_190\n      jumpi\n        /* \"#utility.yul\":5006:5085   */\n      tag_191\n      tag_102\n      jump\t// in\n    tag_191:\n        /* \"#utility.yul\":4965:5087   */\n    tag_190:\n        /* \"#utility.yul\":5123:5129   */\n      dup2\n        /* \"#utility.yul\":5110:5130   */\n      calldataload\n        /* \"#utility.yul\":5148:5227   */\n      tag_192\n        /* \"#utility.yul\":5223:5226   */\n      dup5\n        /* \"#utility.yul\":5215:5221   */\n      dup3\n        /* \"#utility.yul\":5208:5212   */\n      0x20\n        /* \"#utility.yul\":5200:5206   */\n      dup7\n        /* \"#utility.yul\":5196:5213   */\n      add\n        /* \"#utility.yul\":5148:5227   */\n      tag_109\n      jump\t// in\n    tag_192:\n        /* \"#utility.yul\":5139:5227   */\n      swap2\n      pop\n        /* \"#utility.yul\":4955:5233   */\n      pop\n        /* \"#utility.yul\":4893:5233   */\n      swap3\n      swap2\n      pop\n      pop\n      jump\t// out\n        /* \"#utility.yul\":5239:5748   */\n    tag_49:\n        /* \"#utility.yul\":5308:5314   */\n      0x00\n        /* \"#utility.yul\":5357:5359   */\n      0x20\n        /* \"#utility.yul\":5345:5354   */\n      dup3\n        /* \"#utility.yul\":5336:5343   */\n      dup5\n        /* \"#utility.yul\":5332:5355   */\n      sub\n        /* \"#utility.yul\":5328:5360   */\n      slt\n        /* \"#utility.yul\":5325:5444   */\n      iszero\n      tag_194\n      jumpi\n        /* \"#utility.yul\":5363:5442   */\n      tag_195\n      tag_100\n      jump\t// in\n    tag_195:\n        /* \"#utility.yul\":5325:5444   */\n    tag_194:\n        /* \"#utility.yul\":5511:5512   */\n      0x00\n        /* \"#utility.yul\":5500:5509   */\n      dup3\n        /* \"#utility.yul\":5496:5513   */\n      add\n        /* \"#utility.yul\":5483:5514   */\n      calldataload\n        /* \"#utility.yul\":5541:5559   */\n      0xffffffffffffffff\n        /* \"#utility.yul\":5533:5539   */\n      dup2\n        /* \"#utility.yul\":5530:5560   */\n      gt\n        /* \"#utility.yul\":5527:5644   */\n      iszero\n      tag_196\n      jumpi\n        /* \"#utility.yul\":5563:5642   */\n      tag_197\n      tag_101\n      jump\t// in\n    tag_197:\n        /* \"#utility.yul\":5527:5644   */\n    tag_196:\n        /* \"#utility.yul\":5668:5731   */\n      tag_198\n        /* \"#utility.yul\":5723:5730   */\n      dup5\n        /* \"#utility.yul\":5714:5720   */\n      dup3\n        /* \"#utility.yul\":5703:5712   */\n      dup6\n        /* \"#utility.yul\":5699:5721   */\n      add\n        /* \"#utility.yul\":5668:5731   */\n      tag_110\n      jump\t// in\n    tag_198:\n        /* \"#utility.yul\":5658:5731   */\n      swap2\n      pop\n        /* \"#utility.yul\":5454:5741   */\n      pop\n        /* \"#utility.yul\":5239:5748   */\n      swap3\n      swap2\n      pop\n      pop\n      jump\t// out\n        /* \"#utility.yul\":5754:5876   */\n    tag_111:\n        /* \"#utility.yul\":5827:5851   */\n      tag_200\n        /* \"#utility.yul\":5845:5850   */\n      dup2\n        /* \"#utility.yul\":5827:5851   */\n      tag_87\n      jump\t// in\n    tag_200:\n        /* \"#utility.yul\":5820:5825   */\n      dup2\n        /* \"#utility.yul\":5817:5852   */\n      eq\n        /* \"#utility.yul\":5807:5870   */\n      tag_201\n      jumpi\n        /* \"#utility.yul\":5866:5867   */\n      0x00\n        /* \"#utility.yul\":5863:5864   */\n      dup1\n        /* \"#utility.yul\":5856:5868   */\n      revert\n        /* \"#utility.yul\":5807:5870   */\n    tag_201:\n        /* \"#utility.yul\":5754:5876   */\n      pop\n      jump\t// out\n        /* \"#utility.yul\":5882:6021   */\n    tag_112:\n        /* \"#utility.yul\":5928:5933   */\n      0x00\n        /* \"#utility.yul\":5966:5972   */\n      dup2\n        /* \"#utility.yul\":5953:5973   */\n      calldataload\n        /* \"#utility.yul\":5944:5973   */\n      swap1\n      pop\n        /* \"#utility.yul\":5982:6015   */\n      tag_203\n        /* \"#utility.yul\":6009:6014   */\n      dup2\n        /* \"#utility.yul\":5982:6015   */\n      tag_111\n      jump\t// in\n    tag_203:\n        /* \"#utility.yul\":5882:6021   */\n      swap3\n      swap2\n      pop\n      pop\n      jump\t// out\n        /* \"#utility.yul\":6027:6356   */\n    tag_54:\n        /* \"#utility.yul\":6086:6092   */\n      0x00\n        /* \"#utility.yul\":6135:6137   */\n      0x20\n        /* \"#utility.yul\":6123:6132   */\n      dup3\n        /* \"#utility.yul\":6114:6121   */\n      dup5\n        /* \"#utility.yul\":6110:6133   */\n      sub\n        /* \"#utility.yul\":6106:6138   */\n      slt\n        /* \"#utility.yul\":6103:6222   */\n      iszero\n      tag_205\n      jumpi\n        /* \"#utility.yul\":6141:6220   */\n      tag_206\n      tag_100\n      jump\t// in\n    tag_206:\n        /* \"#utility.yul\":6103:6222   */\n    tag_205:\n        /* \"#utility.yul\":6261:6262   */\n      0x00\n        /* \"#utility.yul\":6286:6339   */\n      tag_207\n        /* \"#utility.yul\":6331:6338   */\n      dup5\n        /* \"#utility.yul\":6322:6328   */\n      dup3\n        /* \"#utility.yul\":6311:6320   */\n      dup6\n        /* \"#utility.yul\":6307:6329   */\n      add\n        /* \"#utility.yul\":6286:6339   */\n      tag_112\n      jump\t// in\n    tag_207:\n        /* \"#utility.yul\":6276:6339   */\n      swap2\n      pop\n        /* \"#utility.yul\":6232:6349   */\n      pop\n        /* \"#utility.yul\":6027:6356   */\n      swap3\n      swap2\n      pop\n      pop\n      jump\t// out\n        /* \"#utility.yul\":6362:6542   */\n    tag_113:\n        /* \"#utility.yul\":6502:6534   */\n      0x4e6f206572657320656c206475656e696f2064656c20636f6e747261746f0000\n        /* \"#utility.yul\":6498:6499   */\n      0x00\n        /* \"#utility.yul\":6490:6496   */\n      dup3\n        /* \"#utility.yul\":6486:6500   */\n      add\n        /* \"#utility.yul\":6479:6535   */\n      mstore\n        /* \"#utility.yul\":6362:6542   */\n      pop\n      jump\t// out\n        /* \"#utility.yul\":6548:6914   */\n    tag_114:\n        /* \"#utility.yul\":6690:6693   */\n      0x00\n        /* \"#utility.yul\":6711:6778   */\n      tag_210\n        /* \"#utility.yul\":6775:6777   */\n      0x1e\n        /* \"#utility.yul\":6770:6773   */\n      dup4\n        /* \"#utility.yul\":6711:6778   */\n      tag_95\n      jump\t// in\n    tag_210:\n        /* \"#utility.yul\":6704:6778   */\n      swap2\n      pop\n        /* \"#utility.yul\":6787:6880   */\n      tag_211\n        /* \"#utility.yul\":6876:6879   */\n      dup3\n        /* \"#utility.yul\":6787:6880   */\n      tag_113\n      jump\t// in\n    tag_211:\n        /* \"#utility.yul\":6905:6907   */\n      0x20\n        /* \"#utility.yul\":6900:6903   */\n      dup3\n        /* \"#utility.yul\":6896:6908   */\n      add\n        /* \"#utility.yul\":6889:6908   */\n      swap1\n      pop\n        /* \"#utility.yul\":6548:6914   */\n      swap2\n      swap1\n      pop\n      jump\t// out\n        /* \"#utility.yul\":6920:7339   */\n    tag_59:\n        /* \"#utility.yul\":7086:7090   */\n      0x00\n        /* \"#utility.yul\":7124:7126   */\n      0x20\n        /* \"#utility.yul\":7113:7122   */\n      dup3\n        /* \"#utility.yul\":7109:7127   */\n      add\n        /* \"#utility.yul\":7101:7127   */\n      swap1\n      pop\n        /* \"#utility.yul\":7173:7182   */\n      dup2\n        /* \"#utility.yul\":7167:7171   */\n      dup2\n        /* \"#utility.yul\":7163:7183   */\n      sub\n        /* \"#utility.yul\":7159:7160   */\n      0x00\n        /* \"#utility.yul\":7148:7157   */\n      dup4\n        /* \"#utility.yul\":7144:7161   */\n      add\n        /* \"#utility.yul\":7137:7184   */\n      mstore\n        /* \"#utility.yul\":7201:7332   */\n      tag_213\n        /* \"#utility.yul\":7327:7331   */\n      dup2\n        /* \"#utility.yul\":7201:7332   */\n      tag_114\n      jump\t// in\n    tag_213:\n        /* \"#utility.yul\":7193:7332   */\n      swap1\n      pop\n        /* \"#utility.yul\":6920:7339   */\n      swap2\n      swap1\n      pop\n      jump\t// out\n        /* \"#utility.yul\":7345:7571   */\n    tag_115:\n        /* \"#utility.yul\":7485:7519   */\n      0x4e6f207075656465206861636572206465706f7369746f206120657374612061\n        /* \"#utility.yul\":7481:7482   */\n      0x00\n        /* \"#utility.yul\":7473:7479   */\n      dup3\n        /* \"#utility.yul\":7469:7483   */\n      add\n        /* \"#utility.yul\":7462:7520   */\n      mstore\n        /* \"#utility.yul\":7554:7563   */\n      0x6c63616e63696100000000000000000000000000000000000000000000000000\n        /* \"#utility.yul\":7549:7551   */\n      0x20\n        /* \"#utility.yul\":7541:7547   */\n      dup3\n        /* \"#utility.yul\":7537:7552   */\n      add\n        /* \"#utility.yul\":7530:7564   */\n      mstore\n        /* \"#utility.yul\":7345:7571   */\n      pop\n      jump\t// out\n        /* \"#utility.yul\":7577:7943   */\n    tag_116:\n        /* \"#utility.yul\":7719:7722   */\n      0x00\n        /* \"#utility.yul\":7740:7807   */\n      tag_216\n        /* \"#utility.yul\":7804:7806   */\n      0x27\n        /* \"#utility.yul\":7799:7802   */\n      dup4\n        /* \"#utility.yul\":7740:7807   */\n      tag_95\n      jump\t// in\n    tag_216:\n        /* \"#utility.yul\":7733:7807   */\n      swap2\n      pop\n        /* \"#utility.yul\":7816:7909   */\n      tag_217\n        /* \"#utility.yul\":7905:7908   */\n      dup3\n        /* \"#utility.yul\":7816:7909   */\n      tag_115\n      jump\t// in\n    tag_217:\n        /* \"#utility.yul\":7934:7936   */\n      0x40\n        /* \"#utility.yul\":7929:7932   */\n      dup3\n        /* \"#utility.yul\":7925:7937   */\n      add\n        /* \"#utility.yul\":7918:7937   */\n      swap1\n      pop\n        /* \"#utility.yul\":7577:7943   */\n      swap2\n      swap1\n      pop\n      jump\t// out\n        /* \"#utility.yul\":7949:8368   */\n    tag_65:\n        /* \"#utility.yul\":8115:8119   */\n      0x00\n        /* \"#utility.yul\":8153:8155   */\n      0x20\n        /* \"#utility.yul\":8142:8151   */\n      dup3\n        /* \"#utility.yul\":8138:8156   */\n      add\n        /* \"#utility.yul\":8130:8156   */\n      swap1\n      pop\n        /* \"#utility.yul\":8202:8211   */\n      dup2\n        /* \"#utility.yul\":8196:8200   */\n      dup2\n        /* \"#utility.yul\":8192:8212   */\n      sub\n        /* \"#utility.yul\":8188:8189   */\n      0x00\n        /* \"#utility.yul\":8177:8186   */\n      dup4\n        /* \"#utility.yul\":8173:8190   */\n      add\n        /* \"#utility.yul\":8166:8213   */\n      mstore\n        /* \"#utility.yul\":8230:8361   */\n      tag_219\n        /* \"#utility.yul\":8356:8360   */\n      dup2\n        /* \"#utility.yul\":8230:8361   */\n      tag_116\n      jump\t// in\n    tag_219:\n        /* \"#utility.yul\":8222:8361   */\n      swap1\n      pop\n        /* \"#utility.yul\":7949:8368   */\n      swap2\n      swap1\n      pop\n      jump\t// out\n        /* \"#utility.yul\":8374:8554   */\n    tag_117:\n        /* \"#utility.yul\":8422:8499   */\n      0x4e487b7100000000000000000000000000000000000000000000000000000000\n        /* \"#utility.yul\":8419:8420   */\n      0x00\n        /* \"#utility.yul\":8412:8500   */\n      mstore\n        /* \"#utility.yul\":8519:8523   */\n      0x22\n        /* \"#utility.yul\":8516:8517   */\n      0x04\n        /* \"#utility.yul\":8509:8524   */\n      mstore\n        /* \"#utility.yul\":8543:8547   */\n      0x24\n        /* \"#utility.yul\":8540:8541   */\n      0x00\n        /* \"#utility.yul\":8533:8548   */\n      revert\n        /* \"#utility.yul\":8560:8880   */\n    tag_72:\n        /* \"#utility.yul\":8604:8610   */\n      0x00\n        /* \"#utility.yul\":8641:8642   */\n      0x02\n        /* \"#utility.yul\":8635:8639   */\n      dup3\n        /* \"#utility.yul\":8631:8643   */\n      div\n        /* \"#utility.yul\":8621:8643   */\n      swap1\n      pop\n        /* \"#utility.yul\":8688:8689   */\n      0x01\n        /* \"#utility.yul\":8682:8686   */\n      dup3\n        /* \"#utility.yul\":8678:8690   */\n      and\n        /* \"#utility.yul\":8709:8727   */\n      dup1\n        /* \"#utility.yul\":8699:8780   */\n      tag_222\n      jumpi\n        /* \"#utility.yul\":8765:8769   */\n      0x7f\n        /* \"#utility.yul\":8757:8763   */\n      dup3\n        /* \"#utility.yul\":8753:8770   */\n      and\n        /* \"#utility.yul\":8743:8770   */\n      swap2\n      pop\n        /* \"#utility.yul\":8699:8780   */\n    tag_222:\n        /* \"#utility.yul\":8827:8829   */\n      0x20\n        /* \"#utility.yul\":8819:8825   */\n      dup3\n        /* \"#utility.yul\":8816:8830   */\n      lt\n        /* \"#utility.yul\":8796:8814   */\n      dup2\n        /* \"#utility.yul\":8793:8831   */\n      sub\n        /* \"#utility.yul\":8790:8874   */\n      tag_223\n      jumpi\n        /* \"#utility.yul\":8846:8864   */\n      tag_224\n      tag_117\n      jump\t// in\n    tag_224:\n        /* \"#utility.yul\":8790:8874   */\n    tag_223:\n        /* \"#utility.yul\":8611:8880   */\n      pop\n        /* \"#utility.yul\":8560:8880   */\n      swap2\n      swap1\n      pop\n      jump\t// out\n        /* \"#utility.yul\":8886:9027   */\n    tag_118:\n        /* \"#utility.yul\":8935:8939   */\n      0x00\n        /* \"#utility.yul\":8958:8961   */\n      dup2\n        /* \"#utility.yul\":8950:8961   */\n      swap1\n      pop\n        /* \"#utility.yul\":8981:8984   */\n      dup2\n        /* \"#utility.yul\":8978:8979   */\n      0x00\n        /* \"#utility.yul\":8971:8985   */\n      mstore\n        /* \"#utility.yul\":9015:9019   */\n      0x20\n        /* \"#utility.yul\":9012:9013   */\n      0x00\n        /* \"#utility.yul\":9002:9020   */\n      keccak256\n        /* \"#utility.yul\":8994:9020   */\n      swap1\n      pop\n        /* \"#utility.yul\":8886:9027   */\n      swap2\n      swap1\n      pop\n      jump\t// out\n        /* \"#utility.yul\":9033:9126   */\n    tag_119:\n        /* \"#utility.yul\":9070:9076   */\n      0x00\n        /* \"#utility.yul\":9117:9119   */\n      0x20\n        /* \"#utility.yul\":9112:9114   */\n      0x1f\n        /* \"#utility.yul\":9105:9110   */\n      dup4\n        /* \"#utility.yul\":9101:9115   */\n      add\n        /* \"#utility.yul\":9097:9120   */\n      div\n        /* \"#utility.yul\":9087:9120   */\n      swap1\n      pop\n        /* \"#utility.yul\":9033:9126   */\n      swap2\n      swap1\n      pop\n      jump\t// out\n        /* \"#utility.yul\":9132:9239   */\n    tag_120:\n        /* \"#utility.yul\":9176:9184   */\n      0x00\n        /* \"#utility.yul\":9226:9231   */\n      dup3\n        /* \"#utility.yul\":9220:9224   */\n      dup3\n        /* \"#utility.yul\":9216:9232   */\n      shl\n        /* \"#utility.yul\":9195:9232   */\n      swap1\n      pop\n        /* \"#utility.yul\":9132:9239   */\n      swap3\n      swap2\n      pop\n      pop\n      jump\t// out\n        /* \"#utility.yul\":9245:9638   */\n    tag_121:\n        /* \"#utility.yul\":9314:9320   */\n      0x00\n        /* \"#utility.yul\":9364:9365   */\n      0x08\n        /* \"#utility.yul\":9352:9362   */\n      dup4\n        /* \"#utility.yul\":9348:9366   */\n      mul\n        /* \"#utility.yul\":9387:9484   */\n      tag_229\n        /* \"#utility.yul\":9417:9483   */\n      0xffffffffffffffffffffffffffffffffffffffffffffffffffffffffffffffff\n        /* \"#utility.yul\":9406:9415   */\n      dup3\n        /* \"#utility.yul\":9387:9484   */\n      tag_120\n      jump\t// in\n    tag_229:\n        /* \"#utility.yul\":9505:9544   */\n      tag_230\n        /* \"#utility.yul\":9535:9543   */\n      dup7\n        /* \"#utility.yul\":9524:9533   */\n      dup4\n        /* \"#utility.yul\":9505:9544   */\n      tag_120\n      jump\t// in\n    tag_230:\n        /* \"#utility.yul\":9493:9544   */\n      swap6\n      pop\n        /* \"#utility.yul\":9577:9581   */\n      dup1\n        /* \"#utility.yul\":9573:9582   */\n      not\n        /* \"#utility.yul\":9566:9571   */\n      dup5\n        /* \"#utility.yul\":9562:9583   */\n      and\n        /* \"#utility.yul\":9553:9583   */\n      swap4\n      pop\n        /* \"#utility.yul\":9626:9630   */\n      dup1\n        /* \"#utility.yul\":9616:9624   */\n      dup7\n        /* \"#utility.yul\":9612:9631   */\n      and\n        /* \"#utility.yul\":9605:9610   */\n      dup5\n        /* \"#utility.yul\":9602:9632   */\n      or\n        /* \"#utility.yul\":9592:9632   */\n      swap3\n      pop\n        /* \"#utility.yul\":9321:9638   */\n      pop\n      pop\n        /* \"#utility.yul\":9245:9638   */\n      swap4\n      swap3\n      pop\n      pop\n      pop\n      jump\t// out\n        /* \"#utility.yul\":9644:9704   */\n    tag_122:\n        /* \"#utility.yul\":9672:9675   */\n      0x00\n        /* \"#utility.yul\":9693:9698   */\n      dup2\n        /* \"#utility.yul\":9686:9698   */\n      swap1\n      pop\n        /* \"#utility.yul\":9644:9704   */\n      swap2\n      swap1\n      pop\n      jump\t// out\n        /* \"#utility.yul\":9710:9852   */\n    tag_123:\n        /* \"#utility.yul\":9760:9769   */\n      0x00\n        /* \"#utility.yul\":9793:9846   */\n      tag_233\n        /* \"#utility.yul\":9811:9845   */\n      tag_234\n        /* \"#utility.yul\":9820:9844   */\n      tag_235\n        /* \"#utility.yul\":9838:9843   */\n      dup5\n        /* \"#utility.yul\":9820:9844   */\n      tag_87\n      jump\t// in\n    tag_235:\n        /* \"#utility.yul\":9811:9845   */\n      tag_122\n      jump\t// in\n    tag_234:\n        /* \"#utility.yul\":9793:9846   */\n      tag_87\n      jump\t// in\n    tag_233:\n        /* \"#utility.yul\":9780:9846   */\n      swap1\n      pop\n        /* \"#utility.yul\":9710:9852   */\n      swap2\n      swap1\n      pop\n      jump\t// out\n        /* \"#utility.yul\":9858:9933   */\n    tag_124:\n        /* \"#utility.yul\":9901:9904   */\n      0x00\n        /* \"#utility.yul\":9922:9927   */\n      dup2\n        /* \"#utility.yul\":9915:9927   */\n      swap1\n      pop\n        /* \"#utility.yul\":9858:9933   */\n      swap2\n      swap1\n      pop\n      jump\t// out\n        /* \"#utility.yul\":9939:10208   */\n    tag_125:\n        /* \"#utility.yul\":10049:10088   */\n      tag_238\n        /* \"#utility.yul\":10080:10087   */\n      dup4\n        /* \"#utility.yul\":10049:10088   */\n      tag_123\n      jump\t// in\n    tag_238:\n        /* \"#utility.yul\":10110:10201   */\n      tag_239\n        /* \"#utility.yul\":10159:10200   */\n      tag_240\n        /* \"#utility.yul\":10183:10199   */\n      dup3\n        /* \"#utility.yul\":10159:10200   */\n      tag_124\n      jump\t// in\n    tag_240:\n        /* \"#utility.yul\":10151:10157   */\n      dup5\n        /* \"#utility.yul\":10144:10148   */\n      dup5\n        /* \"#utility.yul\":10138:10149   */\n      sload\n        /* \"#utility.yul\":10110:10201   */\n      tag_121\n      jump\t// in\n    tag_239:\n        /* \"#utility.yul\":10104:10108   */\n      dup3\n        /* \"#utility.yul\":10097:10202   */\n      sstore\n        /* \"#utility.yul\":10015:10208   */\n      pop\n        /* \"#utility.yul\":9939:10208   */\n      pop\n      pop\n      pop\n      jump\t// out\n        /* \"#utility.yul\":10214:10287   */\n    tag_126:\n        /* \"#utility.yul\":10259:10262   */\n      0x00\n        /* \"#utility.yul\":10214:10287   */\n      swap1\n      jump\t// out\n        /* \"#utility.yul\":10293:10482   */\n    tag_127:\n        /* \"#utility.yul\":10370:10402   */\n      tag_243\n      tag_126\n      jump\t// in\n    tag_243:\n        /* \"#utility.yul\":10411:10476   */\n      tag_244\n        /* \"#utility.yul\":10469:10475   */\n      dup2\n        /* \"#utility.yul\":10461:10467   */\n      dup5\n        /* \"#utility.yul\":10455:10459   */\n      dup5\n        /* \"#utility.yul\":10411:10476   */\n      tag_125\n      jump\t// in\n    tag_244:\n        /* \"#utility.yul\":10346:10482   */\n      pop\n        /* \"#utility.yul\":10293:10482   */\n      pop\n      pop\n      jump\t// out\n        /* \"#utility.yul\":10488:10674   */\n    tag_128:\n        /* \"#utility.yul\":10548:10668   */\n    tag_246:\n        /* \"#utility.yul\":10565:10568   */\n      dup2\n        /* \"#utility.yul\":10558:10563   */\n      dup2\n        /* \"#utility.yul\":10555:10569   */\n      lt\n        /* \"#utility.yul\":10548:10668   */\n      iszero\n      tag_248\n      jumpi\n        /* \"#utility.yul\":10619:10658   */\n      tag_249\n        /* \"#utility.yul\":10656:10657   */\n      0x00\n        /* \"#utility.yul\":10649:10654   */\n      dup3\n        /* \"#utility.yul\":10619:10658   */\n      tag_127\n      jump\t// in\n    tag_249:\n        /* \"#utility.yul\":10592:10593   */\n      0x01\n        /* \"#utility.yul\":10585:10590   */\n      dup2\n        /* \"#utility.yul\":10581:10594   */\n      add\n        /* \"#utility.yul\":10572:10594   */\n      swap1\n      pop\n        /* \"#utility.yul\":10548:10668   */\n      jump(tag_246)\n    tag_248:\n        /* \"#utility.yul\":10488:10674   */\n      pop\n      pop\n      jump\t// out\n        /* \"#utility.yul\":10680:11223   */\n    tag_129:\n        /* \"#utility.yul\":10781:10783   */\n      0x1f\n        /* \"#utility.yul\":10776:10779   */\n      dup3\n        /* \"#utility.yul\":10773:10784   */\n      gt\n        /* \"#utility.yul\":10770:11216   */\n      iszero\n      tag_251\n      jumpi\n        /* \"#utility.yul\":10815:10853   */\n      tag_252\n        /* \"#utility.yul\":10847:10852   */\n      dup2\n        /* \"#utility.yul\":10815:10853   */\n      tag_118\n      jump\t// in\n    tag_252:\n        /* \"#utility.yul\":10899:10928   */\n      tag_253\n        /* \"#utility.yul\":10917:10927   */\n      dup5\n        /* \"#utility.yul\":10899:10928   */\n      tag_119\n      jump\t// in\n    tag_253:\n        /* \"#utility.yul\":10889:10897   */\n      dup2\n        /* \"#utility.yul\":10885:10929   */\n      add\n        /* \"#utility.yul\":11082:11084   */\n      0x20\n        /* \"#utility.yul\":11070:11080   */\n      dup6\n        /* \"#utility.yul\":11067:11085   */\n      lt\n        /* \"#utility.yul\":11064:11113   */\n      iszero\n      tag_254\n      jumpi\n        /* \"#utility.yul\":11103:11111   */\n      dup2\n        /* \"#utility.yul\":11088:11111   */\n      swap1\n      pop\n        /* \"#utility.yul\":11064:11113   */\n    tag_254:\n        /* \"#utility.yul\":11126:11206   */\n      tag_255\n        /* \"#utility.yul\":11182:11204   */\n      tag_256\n        /* \"#utility.yul\":11200:11203   */\n      dup6\n        /* \"#utility.yul\":11182:11204   */\n      tag_119\n      jump\t// in\n    tag_256:\n        /* \"#utility.yul\":11172:11180   */\n      dup4\n        /* \"#utility.yul\":11168:11205   */\n      add\n        /* \"#utility.yul\":11155:11166   */\n      dup3\n        /* \"#utility.yul\":11126:11206   */\n      tag_128\n      jump\t// in\n    tag_255:\n        /* \"#utility.yul\":10785:11216   */\n      pop\n      pop\n        /* \"#utility.yul\":10770:11216   */\n    tag_251:\n        /* \"#utility.yul\":10680:11223   */\n      pop\n      pop\n      pop\n      jump\t// out\n        /* \"#utility.yul\":11229:11346   */\n    tag_130:\n        /* \"#utility.yul\":11283:11291   */\n      0x00\n        /* \"#utility.yul\":11333:11338   */\n      dup3\n        /* \"#utility.yul\":11327:11331   */\n      dup3\n        /* \"#utility.yul\":11323:11339   */\n      shr\n        /* \"#utility.yul\":11302:11339   */\n      swap1\n      pop\n        /* \"#utility.yul\":11229:11346   */\n      swap3\n      swap2\n      pop\n      pop\n      jump\t// out\n        /* \"#utility.yul\":11352:11521   */\n    tag_131:\n        /* \"#utility.yul\":11396:11402   */\n      0x00\n        /* \"#utility.yul\":11429:11480   */\n      tag_259\n        /* \"#utility.yul\":11477:11478   */\n      0x00\n        /* \"#utility.yul\":11473:11479   */\n      not\n        /* \"#utility.yul\":11465:11470   */\n      dup5\n        /* \"#utility.yul\":11462:11463   */\n      0x08\n        /* \"#utility.yul\":11458:11471   */\n      mul\n        /* \"#utility.yul\":11429:11480   */\n      tag_130\n      jump\t// in\n    tag_259:\n        /* \"#utility.yul\":11425:11481   */\n      not\n        /* \"#utility.yul\":11510:11514   */\n      dup1\n        /* \"#utility.yul\":11504:11508   */\n      dup4\n        /* \"#utility.yul\":11500:11515   */\n      and\n        /* \"#utility.yul\":11490:11515   */\n      swap2\n      pop\n        /* \"#utility.yul\":11403:11521   */\n      pop\n        /* \"#utility.yul\":11352:11521   */\n      swap3\n      swap2\n      pop\n      pop\n      jump\t// out\n        /* \"#utility.yul\":11526:11821   */\n    tag_132:\n        /* \"#utility.yul\":11602:11606   */\n      0x00\n        /* \"#utility.yul\":11748:11777   */\n      tag_261\n        /* \"#utility.yul\":11773:11776   */\n      dup4\n        /* \"#utility.yul\":11767:11771   */\n      dup4\n        /* \"#utility.yul\":11748:11777   */\n      tag_131\n      jump\t// in\n    tag_261:\n        /* \"#utility.yul\":11740:11777   */\n      swap2\n      pop\n        /* \"#utility.yul\":11810:11813   */\n      dup3\n        /* \"#utility.yul\":11807:11808   */\n      0x02\n        /* \"#utility.yul\":11803:11814   */\n      mul\n        /* \"#utility.yul\":11797:11801   */\n      dup3\n        /* \"#utility.yul\":11794:11815   */\n      or\n        /* \"#utility.yul\":11786:11815   */\n      swap1\n      pop\n        /* \"#utility.yul\":11526:11821   */\n      swap3\n      swap2\n      pop\n      pop\n      jump\t// out\n        /* \"#utility.yul\":11826:13221   */\n    tag_82:\n        /* \"#utility.yul\":11943:11980   */\n      tag_263\n        /* \"#utility.yul\":11976:11979   */\n      dup3\n        /* \"#utility.yul\":11943:11980   */\n      tag_94\n      jump\t// in\n    tag_263:\n        /* \"#utility.yul\":12045:12063   */\n      0xffffffffffffffff\n        /* \"#utility.yul\":12037:12043   */\n      dup2\n        /* \"#utility.yul\":12034:12064   */\n      gt\n        /* \"#utility.yul\":12031:12087   */\n      iszero\n      tag_264\n      jumpi\n        /* \"#utility.yul\":12067:12085   */\n      tag_265\n      tag_104\n      jump\t// in\n    tag_265:\n        /* \"#utility.yul\":12031:12087   */\n    tag_264:\n        /* \"#utility.yul\":12111:12149   */\n      tag_266\n        /* \"#utility.yul\":12143:12147   */\n      dup3\n        /* \"#utility.yul\":12137:12148   */\n      sload\n        /* \"#utility.yul\":12111:12149   */\n      tag_72\n      jump\t// in\n    tag_266:\n        /* \"#utility.yul\":12196:12263   */\n      tag_267\n        /* \"#utility.yul\":12256:12262   */\n      dup3\n        /* \"#utility.yul\":12248:12254   */\n      dup3\n        /* \"#utility.yul\":12242:12246   */\n      dup6\n        /* \"#utility.yul\":12196:12263   */\n      tag_129\n      jump\t// in\n    tag_267:\n        /* \"#utility.yul\":12290:12291   */\n      0x00\n        /* \"#utility.yul\":12314:12318   */\n      0x20\n        /* \"#utility.yul\":12301:12318   */\n      swap1\n      pop\n        /* \"#utility.yul\":12346:12348   */\n      0x1f\n        /* \"#utility.yul\":12338:12344   */\n      dup4\n        /* \"#utility.yul\":12335:12349   */\n      gt\n        /* \"#utility.yul\":12363:12364   */\n      0x01\n        /* \"#utility.yul\":12358:12976   */\n      dup2\n      eq\n      tag_269\n      jumpi\n        /* \"#utility.yul\":13020:13021   */\n      0x00\n        /* \"#utility.yul\":13037:13043   */\n      dup5\n        /* \"#utility.yul\":13034:13111   */\n      iszero\n      tag_270\n      jumpi\n        /* \"#utility.yul\":13086:13095   */\n      dup3\n        /* \"#utility.yul\":13081:13084   */\n      dup8\n        /* \"#utility.yul\":13077:13096   */\n      add\n        /* \"#utility.yul\":13071:13097   */\n      mload\n        /* \"#utility.yul\":13062:13097   */\n      swap1\n      pop\n        /* \"#utility.yul\":13034:13111   */\n    tag_270:\n        /* \"#utility.yul\":13137:13204   */\n      tag_271\n        /* \"#utility.yul\":13197:13203   */\n      dup6\n        /* \"#utility.yul\":13190:13195   */\n      dup3\n        /* \"#utility.yul\":13137:13204   */\n      tag_132\n      jump\t// in\n    tag_271:\n        /* \"#utility.yul\":13131:13135   */\n      dup7\n        /* \"#utility.yul\":13124:13205   */\n      sstore\n        /* \"#utility.yul\":12993:13215   */\n      pop\n        /* \"#utility.yul\":12328:13215   */\n      jump(tag_268)\n        /* \"#utility.yul\":12358:12976   */\n    tag_269:\n        /* \"#utility.yul\":12410:12414   */\n      0x1f\n        /* \"#utility.yul\":12406:12415   */\n      not\n        /* \"#utility.yul\":12398:12404   */\n      dup5\n        /* \"#utility.yul\":12394:12416   */\n      and\n        /* \"#utility.yul\":12444:12481   */\n      tag_272\n        /* \"#utility.yul\":12476:12480   */\n      dup7\n        /* \"#utility.yul\":12444:12481   */\n      tag_118\n      jump\t// in\n    tag_272:\n        /* \"#utility.yul\":12503:12504   */\n      0x00\n        /* \"#utility.yul\":12517:12725   */\n    tag_273:\n        /* \"#utility.yul\":12531:12538   */\n      dup3\n        /* \"#utility.yul\":12528:12529   */\n      dup2\n        /* \"#utility.yul\":12525:12539   */\n      lt\n        /* \"#utility.yul\":12517:12725   */\n      iszero\n      tag_275\n      jumpi\n        /* \"#utility.yul\":12610:12619   */\n      dup5\n        /* \"#utility.yul\":12605:12608   */\n      dup10\n        /* \"#utility.yul\":12601:12620   */\n      add\n        /* \"#utility.yul\":12595:12621   */\n      mload\n        /* \"#utility.yul\":12587:12593   */\n      dup3\n        /* \"#utility.yul\":12580:12622   */\n      sstore\n        /* \"#utility.yul\":12661:12662   */\n      0x01\n        /* \"#utility.yul\":12653:12659   */\n      dup3\n        /* \"#utility.yul\":12649:12663   */\n      add\n        /* \"#utility.yul\":12639:12663   */\n      swap2\n      pop\n        /* \"#utility.yul\":12708:12710   */\n      0x20\n        /* \"#utility.yul\":12697:12706   */\n      dup6\n        /* \"#utility.yul\":12693:12711   */\n      add\n        /* \"#utility.yul\":12680:12711   */\n      swap5\n      pop\n        /* \"#utility.yul\":12554:12558   */\n      0x20\n        /* \"#utility.yul\":12551:12552   */\n      dup2\n        /* \"#utility.yul\":12547:12559   */\n      add\n        /* \"#utility.yul\":12542:12559   */\n      swap1\n      pop\n        /* \"#utility.yul\":12517:12725   */\n      jump(tag_273)\n    tag_275:\n        /* \"#utility.yul\":12753:12759   */\n      dup7\n        /* \"#utility.yul\":12744:12751   */\n      dup4\n        /* \"#utility.yul\":12741:12760   */\n      lt\n        /* \"#utility.yul\":12738:12917   */\n      iszero\n      tag_276\n      jumpi\n        /* \"#utility.yul\":12811:12820   */\n      dup5\n        /* \"#utility.yul\":12806:12809   */\n      dup10\n        /* \"#utility.yul\":12802:12821   */\n      add\n        /* \"#utility.yul\":12796:12822   */\n      mload\n        /* \"#utility.yul\":12854:12902   */\n      tag_277\n        /* \"#utility.yul\":12896:12900   */\n      0x1f\n        /* \"#utility.yul\":12888:12894   */\n      dup10\n        /* \"#utility.yul\":12884:12901   */\n      and\n        /* \"#utility.yul\":12873:12882   */\n      dup3\n        /* \"#utility.yul\":12854:12902   */\n      tag_131\n      jump\t// in\n    tag_277:\n        /* \"#utility.yul\":12846:12852   */\n      dup4\n        /* \"#utility.yul\":12839:12903   */\n      sstore\n        /* \"#utility.yul\":12761:12917   */\n      pop\n        /* \"#utility.yul\":12738:12917   */\n    tag_276:\n        /* \"#utility.yul\":12963:12964   */\n      0x01\n        /* \"#utility.yul\":12959:12960   */\n      0x02\n        /* \"#utility.yul\":12951:12957   */\n      dup9\n        /* \"#utility.yul\":12947:12961   */\n      mul\n        /* \"#utility.yul\":12943:12965   */\n      add\n        /* \"#utility.yul\":12937:12941   */\n      dup9\n        /* \"#utility.yul\":12930:12966   */\n      sstore\n        /* \"#utility.yul\":12365:12976   */\n      pop\n      pop\n      pop\n        /* \"#utility.yul\":12328:13215   */\n    tag_268:\n      pop\n        /* \"#utility.yul\":11918:13221   */\n      pop\n      pop\n      pop\n        /* \"#utility.yul\":11826:13221   */\n      pop\n      pop\n      jump\t// out\n\n    auxdata: 0xa264697066735822122062ff22f1ed290cc2e91f5fa0dfef9e51e3575af966f70c656ba3bfd79864886164736f6c634300081a0033\n}\n",
				"bytecode": {
					"linkReferences": {},
					"object": "608060405234801561000f575f80fd5b5060405161125d38038061125d83398181016040528101906100319190610242565b335f806101000a81548173ffffffffffffffffffffffffffffffffffffffff021916908373ffffffffffffffffffffffffffffffffffffffff160217905550816002908161007f91906104a0565b5080600181905550600160035f6101000a81548160ff021916908315150217905550505061056f565b5f604051905090565b5f80fd5b5f80fd5b5f80fd5b5f80fd5b5f601f19601f8301169050919050565b7f4e487b71000000000000000000000000000000000000000000000000000000005f52604160045260245ffd5b610107826100c1565b810181811067ffffffffffffffff82111715610126576101256100d1565b5b80604052505050565b5f6101386100a8565b905061014482826100fe565b919050565b5f67ffffffffffffffff821115610163576101626100d1565b5b61016c826100c1565b9050602081019050919050565b5f5b8381101561019657808201518184015260208101905061017b565b5f8484015250505050565b5f6101b36101ae84610149565b61012f565b9050828152602081018484840111156101cf576101ce6100bd565b5b6101da848285610179565b509392505050565b5f82601f8301126101f6576101f56100b9565b5b81516102068482602086016101a1565b91505092915050565b5f819050919050565b6102218161020f565b811461022b575f80fd5b50565b5f8151905061023c81610218565b92915050565b5f8060408385031215610258576102576100b1565b5b5f83015167ffffffffffffffff811115610275576102746100b5565b5b610281858286016101e2565b92505060206102928582860161022e565b9150509250929050565b5f81519050919050565b7f4e487b71000000000000000000000000000000000000000000000000000000005f52602260045260245ffd5b5f60028204905060018216806102ea57607f821691505b6020821081036102fd576102fc6102a6565b5b50919050565b5f819050815f5260205f209050919050565b5f6020601f8301049050919050565b5f82821b905092915050565b5f6008830261035f7fffffffffffffffffffffffffffffffffffffffffffffffffffffffffffffffff82610324565b6103698683610324565b95508019841693508086168417925050509392505050565b5f819050919050565b5f6103a461039f61039a8461020f565b610381565b61020f565b9050919050565b5f819050919050565b6103bd8361038a565b6103d16103c9826103ab565b848454610330565b825550505050565b5f90565b6103e56103d9565b6103f08184846103b4565b505050565b5b81811015610413576104085f826103dd565b6001810190506103f6565b5050565b601f8211156104585761042981610303565b61043284610315565b81016020851015610441578190505b61045561044d85610315565b8301826103f5565b50505b505050565b5f82821c905092915050565b5f6104785f198460080261045d565b1980831691505092915050565b5f6104908383610469565b9150826002028217905092915050565b6104a98261029c565b67ffffffffffffffff8111156104c2576104c16100d1565b5b6104cc82546102d3565b6104d7828285610417565b5f60209050601f831160018114610508575f84156104f6578287015190505b6105008582610485565b865550610567565b601f19841661051686610303565b5f5b8281101561053d57848901518255600182019150602085019450602081019050610518565b8683101561055a5784890151610556601f891682610469565b8355505b6001600288020188555050505b505050505050565b610ce18061057c5f395ff3fe608060405260043610610090575f3560e01c8063884264681161005857806388426468146101325780638da5cb5b1461015c578063aba46a5f14610186578063b3718174146101b0578063bc167263146101d857610090565b806306a3e4e61461009457806322d9a1ee146100aa578063305954b6146100d45780633ec47542146100fe57806378340e5714610108575b5f80fd5b34801561009f575f80fd5b506100a8610200565b005b3480156100b5575f80fd5b506100be6102b7565b6040516100cb91906105c5565b60405180910390f35b3480156100df575f80fd5b506100e86102be565b6040516100f591906105f8565b60405180910390f35b6101066102d0565b005b348015610113575f80fd5b5061011c610320565b60405161012991906105c5565b60405180910390f35b34801561013d575f80fd5b50610146610326565b60405161015391906105f8565b60405180910390f35b348015610167575f80fd5b506101706103c7565b60405161017d9190610650565b60405180910390f35b348015610191575f80fd5b5061019a6103ea565b6040516101a791906106f3565b60405180910390f35b3480156101bb575f80fd5b506101d660048036038101906101d19190610850565b610476565b005b3480156101e3575f80fd5b506101fe60048036038101906101f991906108c1565b610516565b005b5f8054906101000a900473ffffffffffffffffffffffffffffffffffffffff1673ffffffffffffffffffffffffffffffffffffffff163373ffffffffffffffffffffffffffffffffffffffff161461028d576040517f08c379a000000000000000000000000000000000000000000000000000000000815260040161028490610936565b60405180910390fd5b60035f9054906101000a900460ff161560035f6101000a81548160ff021916908315150217905550565b5f47905090565b60035f9054906101000a900460ff1681565b60035f9054906101000a900460ff1661031e576040517f08c379a0000000000000000000000000000000000000000000000000000000008152600401610315906109c4565b60405180910390fd5b565b60015481565b5f805f9054906101000a900473ffffffffffffffffffffffffffffffffffffffff1673ffffffffffffffffffffffffffffffffffffffff163373ffffffffffffffffffffffffffffffffffffffff16146103b5576040517f08c379a00000000000000000000000000000000000000000000000000000000081526004016103ac90610936565b60405180910390fd5b6103bd6102b7565b6001541115905090565b5f8054906101000a900473ffffffffffffffffffffffffffffffffffffffff1681565b600280546103f790610a0f565b80601f016020809104026020016040519081016040528092919081815260200182805461042390610a0f565b801561046e5780601f106104455761010080835404028352916020019161046e565b820191905f5260205f20905b81548152906001019060200180831161045157829003601f168201915b505050505081565b5f8054906101000a900473ffffffffffffffffffffffffffffffffffffffff1673ffffffffffffffffffffffffffffffffffffffff163373ffffffffffffffffffffffffffffffffffffffff1614610503576040517f08c379a00000000000000000000000000000000000000000000000000000000081526004016104fa90610936565b60405180910390fd5b80600290816105129190610bdc565b5050565b5f8054906101000a900473ffffffffffffffffffffffffffffffffffffffff1673ffffffffffffffffffffffffffffffffffffffff163373ffffffffffffffffffffffffffffffffffffffff16146105a3576040517f08c379a000000000000000000000000000000000000000000000000000000000815260040161059a90610936565b60405180910390fd5b8060018190555050565b5f819050919050565b6105bf816105ad565b82525050565b5f6020820190506105d85f8301846105b6565b92915050565b5f8115159050919050565b6105f2816105de565b82525050565b5f60208201905061060b5f8301846105e9565b92915050565b5f73ffffffffffffffffffffffffffffffffffffffff82169050919050565b5f61063a82610611565b9050919050565b61064a81610630565b82525050565b5f6020820190506106635f830184610641565b92915050565b5f81519050919050565b5f82825260208201905092915050565b5f5b838110156106a0578082015181840152602081019050610685565b5f8484015250505050565b5f601f19601f8301169050919050565b5f6106c582610669565b6106cf8185610673565b93506106df818560208601610683565b6106e8816106ab565b840191505092915050565b5f6020820190508181035f83015261070b81846106bb565b905092915050565b5f604051905090565b5f80fd5b5f80fd5b5f80fd5b5f80fd5b7f4e487b71000000000000000000000000000000000000000000000000000000005f52604160045260245ffd5b610762826106ab565b810181811067ffffffffffffffff821117156107815761078061072c565b5b80604052505050565b5f610793610713565b905061079f8282610759565b919050565b5f67ffffffffffffffff8211156107be576107bd61072c565b5b6107c7826106ab565b9050602081019050919050565b828183375f83830152505050565b5f6107f46107ef846107a4565b61078a565b9050828152602081018484840111156108105761080f610728565b5b61081b8482856107d4565b509392505050565b5f82601f83011261083757610836610724565b5b81356108478482602086016107e2565b91505092915050565b5f602082840312156108655761086461071c565b5b5f82013567ffffffffffffffff81111561088257610881610720565b5b61088e84828501610823565b91505092915050565b6108a0816105ad565b81146108aa575f80fd5b50565b5f813590506108bb81610897565b92915050565b5f602082840312156108d6576108d561071c565b5b5f6108e3848285016108ad565b91505092915050565b7f4e6f206572657320656c206475656e696f2064656c20636f6e747261746f00005f82015250565b5f610920601e83610673565b915061092b826108ec565b602082019050919050565b5f6020820190508181035f83015261094d81610914565b9050919050565b7f4e6f207075656465206861636572206465706f7369746f2061206573746120615f8201527f6c63616e63696100000000000000000000000000000000000000000000000000602082015250565b5f6109ae602783610673565b91506109b982610954565b604082019050919050565b5f6020820190508181035f8301526109db816109a2565b9050919050565b7f4e487b71000000000000000000000000000000000000000000000000000000005f52602260045260245ffd5b5f6002820490506001821680610a2657607f821691505b602082108103610a3957610a386109e2565b5b50919050565b5f819050815f5260205f209050919050565b5f6020601f8301049050919050565b5f82821b905092915050565b5f60088302610a9b7fffffffffffffffffffffffffffffffffffffffffffffffffffffffffffffffff82610a60565b610aa58683610a60565b95508019841693508086168417925050509392505050565b5f819050919050565b5f610ae0610adb610ad6846105ad565b610abd565b6105ad565b9050919050565b5f819050919050565b610af983610ac6565b610b0d610b0582610ae7565b848454610a6c565b825550505050565b5f90565b610b21610b15565b610b2c818484610af0565b505050565b5b81811015610b4f57610b445f82610b19565b600181019050610b32565b5050565b601f821115610b9457610b6581610a3f565b610b6e84610a51565b81016020851015610b7d578190505b610b91610b8985610a51565b830182610b31565b50505b505050565b5f82821c905092915050565b5f610bb45f1984600802610b99565b1980831691505092915050565b5f610bcc8383610ba5565b9150826002028217905092915050565b610be582610669565b67ffffffffffffffff811115610bfe57610bfd61072c565b5b610c088254610a0f565b610c13828285610b53565b5f60209050601f831160018114610c44575f8415610c32578287015190505b610c3c8582610bc1565b865550610ca3565b601f198416610c5286610a3f565b5f5b82811015610c7957848901518255600182019150602085019450602081019050610c54565b86831015610c965784890151610c92601f891682610ba5565b8355505b6001600288020188555050505b50505050505056fea264697066735822122062ff22f1ed290cc2e91f5fa0dfef9e51e3575af966f70c656ba3bfd79864886164736f6c634300081a0033",
					"opcodes": "PUSH1 0x80 PUSH1 0x40 MSTORE CALLVALUE DUP1 ISZERO PUSH2 0xF JUMPI PUSH0 DUP1 REVERT JUMPDEST POP PUSH1 0x40 MLOAD PUSH2 0x125D CODESIZE SUB DUP1 PUSH2 0x125D DUP4 CODECOPY DUP2 DUP2 ADD PUSH1 0x40 MSTORE DUP2 ADD SWAP1 PUSH2 0x31 SWAP2 SWAP1 PUSH2 0x242 JUMP JUMPDEST CALLER PUSH0 DUP1 PUSH2 0x100 EXP DUP2 SLOAD DUP2 PUSH20 0xFFFFFFFFFFFFFFFFFFFFFFFFFFFFFFFFFFFFFFFF MUL NOT AND SWAP1 DUP4 PUSH20 0xFFFFFFFFFFFFFFFFFFFFFFFFFFFFFFFFFFFFFFFF AND MUL OR SWAP1 SSTORE POP DUP2 PUSH1 0x2 SWAP1 DUP2 PUSH2 0x7F SWAP2 SWAP1 PUSH2 0x4A0 JUMP JUMPDEST POP DUP1 PUSH1 0x1 DUP2 SWAP1 SSTORE POP PUSH1 0x1 PUSH1 0x3 PUSH0 PUSH2 0x100 EXP DUP2 SLOAD DUP2 PUSH1 0xFF MUL NOT AND SWAP1 DUP4 ISZERO ISZERO MUL OR SWAP1 SSTORE POP POP POP PUSH2 0x56F JUMP JUMPDEST PUSH0 PUSH1 0x40 MLOAD SWAP1 POP SWAP1 JUMP JUMPDEST PUSH0 DUP1 REVERT JUMPDEST PUSH0 DUP1 REVERT JUMPDEST PUSH0 DUP1 REVERT JUMPDEST PUSH0 DUP1 REVERT JUMPDEST PUSH0 PUSH1 0x1F NOT PUSH1 0x1F DUP4 ADD AND SWAP1 POP SWAP2 SWAP1 POP JUMP JUMPDEST PUSH32 0x4E487B7100000000000000000000000000000000000000000000000000000000 PUSH0 MSTORE PUSH1 0x41 PUSH1 0x4 MSTORE PUSH1 0x24 PUSH0 REVERT JUMPDEST PUSH2 0x107 DUP3 PUSH2 0xC1 JUMP JUMPDEST DUP2 ADD DUP2 DUP2 LT PUSH8 0xFFFFFFFFFFFFFFFF DUP3 GT OR ISZERO PUSH2 0x126 JUMPI PUSH2 0x125 PUSH2 0xD1 JUMP JUMPDEST JUMPDEST DUP1 PUSH1 0x40 MSTORE POP POP POP JUMP JUMPDEST PUSH0 PUSH2 0x138 PUSH2 0xA8 JUMP JUMPDEST SWAP1 POP PUSH2 0x144 DUP3 DUP3 PUSH2 0xFE JUMP JUMPDEST SWAP2 SWAP1 POP JUMP JUMPDEST PUSH0 PUSH8 0xFFFFFFFFFFFFFFFF DUP3 GT ISZERO PUSH2 0x163 JUMPI PUSH2 0x162 PUSH2 0xD1 JUMP JUMPDEST JUMPDEST PUSH2 0x16C DUP3 PUSH2 0xC1 JUMP JUMPDEST SWAP1 POP PUSH1 0x20 DUP2 ADD SWAP1 POP SWAP2 SWAP1 POP JUMP JUMPDEST PUSH0 JUMPDEST DUP4 DUP2 LT ISZERO PUSH2 0x196 JUMPI DUP1 DUP3 ADD MLOAD DUP2 DUP5 ADD MSTORE PUSH1 0x20 DUP2 ADD SWAP1 POP PUSH2 0x17B JUMP JUMPDEST PUSH0 DUP5 DUP5 ADD MSTORE POP POP POP POP JUMP JUMPDEST PUSH0 PUSH2 0x1B3 PUSH2 0x1AE DUP5 PUSH2 0x149 JUMP JUMPDEST PUSH2 0x12F JUMP JUMPDEST SWAP1 POP DUP3 DUP2 MSTORE PUSH1 0x20 DUP2 ADD DUP5 DUP5 DUP5 ADD GT ISZERO PUSH2 0x1CF JUMPI PUSH2 0x1CE PUSH2 0xBD JUMP JUMPDEST JUMPDEST PUSH2 0x1DA DUP5 DUP3 DUP6 PUSH2 0x179 JUMP JUMPDEST POP SWAP4 SWAP3 POP POP POP JUMP JUMPDEST PUSH0 DUP3 PUSH1 0x1F DUP4 ADD SLT PUSH2 0x1F6 JUMPI PUSH2 0x1F5 PUSH2 0xB9 JUMP JUMPDEST JUMPDEST DUP2 MLOAD PUSH2 0x206 DUP5 DUP3 PUSH1 0x20 DUP7 ADD PUSH2 0x1A1 JUMP JUMPDEST SWAP2 POP POP SWAP3 SWAP2 POP POP JUMP JUMPDEST PUSH0 DUP2 SWAP1 POP SWAP2 SWAP1 POP JUMP JUMPDEST PUSH2 0x221 DUP2 PUSH2 0x20F JUMP JUMPDEST DUP2 EQ PUSH2 0x22B JUMPI PUSH0 DUP1 REVERT JUMPDEST POP JUMP JUMPDEST PUSH0 DUP2 MLOAD SWAP1 POP PUSH2 0x23C DUP2 PUSH2 0x218 JUMP JUMPDEST SWAP3 SWAP2 POP POP JUMP JUMPDEST PUSH0 DUP1 PUSH1 0x40 DUP4 DUP6 SUB SLT ISZERO PUSH2 0x258 JUMPI PUSH2 0x257 PUSH2 0xB1 JUMP JUMPDEST JUMPDEST PUSH0 DUP4 ADD MLOAD PUSH8 0xFFFFFFFFFFFFFFFF DUP2 GT ISZERO PUSH2 0x275 JUMPI PUSH2 0x274 PUSH2 0xB5 JUMP JUMPDEST JUMPDEST PUSH2 0x281 DUP6 DUP3 DUP7 ADD PUSH2 0x1E2 JUMP JUMPDEST SWAP3 POP POP PUSH1 0x20 PUSH2 0x292 DUP6 DUP3 DUP7 ADD PUSH2 0x22E JUMP JUMPDEST SWAP2 POP POP SWAP3 POP SWAP3 SWAP1 POP JUMP JUMPDEST PUSH0 DUP2 MLOAD SWAP1 POP SWAP2 SWAP1 POP JUMP JUMPDEST PUSH32 0x4E487B7100000000000000000000000000000000000000000000000000000000 PUSH0 MSTORE PUSH1 0x22 PUSH1 0x4 MSTORE PUSH1 0x24 PUSH0 REVERT JUMPDEST PUSH0 PUSH1 0x2 DUP3 DIV SWAP1 POP PUSH1 0x1 DUP3 AND DUP1 PUSH2 0x2EA JUMPI PUSH1 0x7F DUP3 AND SWAP2 POP JUMPDEST PUSH1 0x20 DUP3 LT DUP2 SUB PUSH2 0x2FD JUMPI PUSH2 0x2FC PUSH2 0x2A6 JUMP JUMPDEST JUMPDEST POP SWAP2 SWAP1 POP JUMP JUMPDEST PUSH0 DUP2 SWAP1 POP DUP2 PUSH0 MSTORE PUSH1 0x20 PUSH0 KECCAK256 SWAP1 POP SWAP2 SWAP1 POP JUMP JUMPDEST PUSH0 PUSH1 0x20 PUSH1 0x1F DUP4 ADD DIV SWAP1 POP SWAP2 SWAP1 POP JUMP JUMPDEST PUSH0 DUP3 DUP3 SHL SWAP1 POP SWAP3 SWAP2 POP POP JUMP JUMPDEST PUSH0 PUSH1 0x8 DUP4 MUL PUSH2 0x35F PUSH32 0xFFFFFFFFFFFFFFFFFFFFFFFFFFFFFFFFFFFFFFFFFFFFFFFFFFFFFFFFFFFFFFFF DUP3 PUSH2 0x324 JUMP JUMPDEST PUSH2 0x369 DUP7 DUP4 PUSH2 0x324 JUMP JUMPDEST SWAP6 POP DUP1 NOT DUP5 AND SWAP4 POP DUP1 DUP7 AND DUP5 OR SWAP3 POP POP POP SWAP4 SWAP3 POP POP POP JUMP JUMPDEST PUSH0 DUP2 SWAP1 POP SWAP2 SWAP1 POP JUMP JUMPDEST PUSH0 PUSH2 0x3A4 PUSH2 0x39F PUSH2 0x39A DUP5 PUSH2 0x20F JUMP JUMPDEST PUSH2 0x381 JUMP JUMPDEST PUSH2 0x20F JUMP JUMPDEST SWAP1 POP SWAP2 SWAP1 POP JUMP JUMPDEST PUSH0 DUP2 SWAP1 POP SWAP2 SWAP1 POP JUMP JUMPDEST PUSH2 0x3BD DUP4 PUSH2 0x38A JUMP JUMPDEST PUSH2 0x3D1 PUSH2 0x3C9 DUP3 PUSH2 0x3AB JUMP JUMPDEST DUP5 DUP5 SLOAD PUSH2 0x330 JUMP JUMPDEST DUP3 SSTORE POP POP POP POP JUMP JUMPDEST PUSH0 SWAP1 JUMP JUMPDEST PUSH2 0x3E5 PUSH2 0x3D9 JUMP JUMPDEST PUSH2 0x3F0 DUP2 DUP5 DUP5 PUSH2 0x3B4 JUMP JUMPDEST POP POP POP JUMP JUMPDEST JUMPDEST DUP2 DUP2 LT ISZERO PUSH2 0x413 JUMPI PUSH2 0x408 PUSH0 DUP3 PUSH2 0x3DD JUMP JUMPDEST PUSH1 0x1 DUP2 ADD SWAP1 POP PUSH2 0x3F6 JUMP JUMPDEST POP POP JUMP JUMPDEST PUSH1 0x1F DUP3 GT ISZERO PUSH2 0x458 JUMPI PUSH2 0x429 DUP2 PUSH2 0x303 JUMP JUMPDEST PUSH2 0x432 DUP5 PUSH2 0x315 JUMP JUMPDEST DUP2 ADD PUSH1 0x20 DUP6 LT ISZERO PUSH2 0x441 JUMPI DUP2 SWAP1 POP JUMPDEST PUSH2 0x455 PUSH2 0x44D DUP6 PUSH2 0x315 JUMP JUMPDEST DUP4 ADD DUP3 PUSH2 0x3F5 JUMP JUMPDEST POP POP JUMPDEST POP POP POP JUMP JUMPDEST PUSH0 DUP3 DUP3 SHR SWAP1 POP SWAP3 SWAP2 POP POP JUMP JUMPDEST PUSH0 PUSH2 0x478 PUSH0 NOT DUP5 PUSH1 0x8 MUL PUSH2 0x45D JUMP JUMPDEST NOT DUP1 DUP4 AND SWAP2 POP POP SWAP3 SWAP2 POP POP JUMP JUMPDEST PUSH0 PUSH2 0x490 DUP4 DUP4 PUSH2 0x469 JUMP JUMPDEST SWAP2 POP DUP3 PUSH1 0x2 MUL DUP3 OR SWAP1 POP SWAP3 SWAP2 POP POP JUMP JUMPDEST PUSH2 0x4A9 DUP3 PUSH2 0x29C JUMP JUMPDEST PUSH8 0xFFFFFFFFFFFFFFFF DUP2 GT ISZERO PUSH2 0x4C2 JUMPI PUSH2 0x4C1 PUSH2 0xD1 JUMP JUMPDEST JUMPDEST PUSH2 0x4CC DUP3 SLOAD PUSH2 0x2D3 JUMP JUMPDEST PUSH2 0x4D7 DUP3 DUP3 DUP6 PUSH2 0x417 JUMP JUMPDEST PUSH0 PUSH1 0x20 SWAP1 POP PUSH1 0x1F DUP4 GT PUSH1 0x1 DUP2 EQ PUSH2 0x508 JUMPI PUSH0 DUP5 ISZERO PUSH2 0x4F6 JUMPI DUP3 DUP8 ADD MLOAD SWAP1 POP JUMPDEST PUSH2 0x500 DUP6 DUP3 PUSH2 0x485 JUMP JUMPDEST DUP7 SSTORE POP PUSH2 0x567 JUMP JUMPDEST PUSH1 0x1F NOT DUP5 AND PUSH2 0x516 DUP7 PUSH2 0x303 JUMP JUMPDEST PUSH0 JUMPDEST DUP3 DUP2 LT ISZERO PUSH2 0x53D JUMPI DUP5 DUP10 ADD MLOAD DUP3 SSTORE PUSH1 0x1 DUP3 ADD SWAP2 POP PUSH1 0x20 DUP6 ADD SWAP5 POP PUSH1 0x20 DUP2 ADD SWAP1 POP PUSH2 0x518 JUMP JUMPDEST DUP7 DUP4 LT ISZERO PUSH2 0x55A JUMPI DUP5 DUP10 ADD MLOAD PUSH2 0x556 PUSH1 0x1F DUP10 AND DUP3 PUSH2 0x469 JUMP JUMPDEST DUP4 SSTORE POP JUMPDEST PUSH1 0x1 PUSH1 0x2 DUP9 MUL ADD DUP9 SSTORE POP POP POP JUMPDEST POP POP POP POP POP POP JUMP JUMPDEST PUSH2 0xCE1 DUP1 PUSH2 0x57C PUSH0 CODECOPY PUSH0 RETURN INVALID PUSH1 0x80 PUSH1 0x40 MSTORE PUSH1 0x4 CALLDATASIZE LT PUSH2 0x90 JUMPI PUSH0 CALLDATALOAD PUSH1 0xE0 SHR DUP1 PUSH4 0x88426468 GT PUSH2 0x58 JUMPI DUP1 PUSH4 0x88426468 EQ PUSH2 0x132 JUMPI DUP1 PUSH4 0x8DA5CB5B EQ PUSH2 0x15C JUMPI DUP1 PUSH4 0xABA46A5F EQ PUSH2 0x186 JUMPI DUP1 PUSH4 0xB3718174 EQ PUSH2 0x1B0 JUMPI DUP1 PUSH4 0xBC167263 EQ PUSH2 0x1D8 JUMPI PUSH2 0x90 JUMP JUMPDEST DUP1 PUSH4 0x6A3E4E6 EQ PUSH2 0x94 JUMPI DUP1 PUSH4 0x22D9A1EE EQ PUSH2 0xAA JUMPI DUP1 PUSH4 0x305954B6 EQ PUSH2 0xD4 JUMPI DUP1 PUSH4 0x3EC47542 EQ PUSH2 0xFE JUMPI DUP1 PUSH4 0x78340E57 EQ PUSH2 0x108 JUMPI JUMPDEST PUSH0 DUP1 REVERT JUMPDEST CALLVALUE DUP1 ISZERO PUSH2 0x9F JUMPI PUSH0 DUP1 REVERT JUMPDEST POP PUSH2 0xA8 PUSH2 0x200 JUMP JUMPDEST STOP JUMPDEST CALLVALUE DUP1 ISZERO PUSH2 0xB5 JUMPI PUSH0 DUP1 REVERT JUMPDEST POP PUSH2 0xBE PUSH2 0x2B7 JUMP JUMPDEST PUSH1 0x40 MLOAD PUSH2 0xCB SWAP2 SWAP1 PUSH2 0x5C5 JUMP JUMPDEST PUSH1 0x40 MLOAD DUP1 SWAP2 SUB SWAP1 RETURN JUMPDEST CALLVALUE DUP1 ISZERO PUSH2 0xDF JUMPI PUSH0 DUP1 REVERT JUMPDEST POP PUSH2 0xE8 PUSH2 0x2BE JUMP JUMPDEST PUSH1 0x40 MLOAD PUSH2 0xF5 SWAP2 SWAP1 PUSH2 0x5F8 JUMP JUMPDEST PUSH1 0x40 MLOAD DUP1 SWAP2 SUB SWAP1 RETURN JUMPDEST PUSH2 0x106 PUSH2 0x2D0 JUMP JUMPDEST STOP JUMPDEST CALLVALUE DUP1 ISZERO PUSH2 0x113 JUMPI PUSH0 DUP1 REVERT JUMPDEST POP PUSH2 0x11C PUSH2 0x320 JUMP JUMPDEST PUSH1 0x40 MLOAD PUSH2 0x129 SWAP2 SWAP1 PUSH2 0x5C5 JUMP JUMPDEST PUSH1 0x40 MLOAD DUP1 SWAP2 SUB SWAP1 RETURN JUMPDEST CALLVALUE DUP1 ISZERO PUSH2 0x13D JUMPI PUSH0 DUP1 REVERT JUMPDEST POP PUSH2 0x146 PUSH2 0x326 JUMP JUMPDEST PUSH1 0x40 MLOAD PUSH2 0x153 SWAP2 SWAP1 PUSH2 0x5F8 JUMP JUMPDEST PUSH1 0x40 MLOAD DUP1 SWAP2 SUB SWAP1 RETURN JUMPDEST CALLVALUE DUP1 ISZERO PUSH2 0x167 JUMPI PUSH0 DUP1 REVERT JUMPDEST POP PUSH2 0x170 PUSH2 0x3C7 JUMP JUMPDEST PUSH1 0x40 MLOAD PUSH2 0x17D SWAP2 SWAP1 PUSH2 0x650 JUMP JUMPDEST PUSH1 0x40 MLOAD DUP1 SWAP2 SUB SWAP1 RETURN JUMPDEST CALLVALUE DUP1 ISZERO PUSH2 0x191 JUMPI PUSH0 DUP1 REVERT JUMPDEST POP PUSH2 0x19A PUSH2 0x3EA JUMP JUMPDEST PUSH1 0x40 MLOAD PUSH2 0x1A7 SWAP2 SWAP1 PUSH2 0x6F3 JUMP JUMPDEST PUSH1 0x40 MLOAD DUP1 SWAP2 SUB SWAP1 RETURN JUMPDEST CALLVALUE DUP1 ISZERO PUSH2 0x1BB JUMPI PUSH0 DUP1 REVERT JUMPDEST POP PUSH2 0x1D6 PUSH1 0x4 DUP1 CALLDATASIZE SUB DUP2 ADD SWAP1 PUSH2 0x1D1 SWAP2 SWAP1 PUSH2 0x850 JUMP JUMPDEST PUSH2 0x476 JUMP JUMPDEST STOP JUMPDEST CALLVALUE DUP1 ISZERO PUSH2 0x1E3 JUMPI PUSH0 DUP1 REVERT JUMPDEST POP PUSH2 0x1FE PUSH1 0x4 DUP1 CALLDATASIZE SUB DUP2 ADD SWAP1 PUSH2 0x1F9 SWAP2 SWAP1 PUSH2 0x8C1 JUMP JUMPDEST PUSH2 0x516 JUMP JUMPDEST STOP JUMPDEST PUSH0 DUP1 SLOAD SWAP1 PUSH2 0x100 EXP SWAP1 DIV PUSH20 0xFFFFFFFFFFFFFFFFFFFFFFFFFFFFFFFFFFFFFFFF AND PUSH20 0xFFFFFFFFFFFFFFFFFFFFFFFFFFFFFFFFFFFFFFFF AND CALLER PUSH20 0xFFFFFFFFFFFFFFFFFFFFFFFFFFFFFFFFFFFFFFFF AND EQ PUSH2 0x28D JUMPI PUSH1 0x40 MLOAD PUSH32 0x8C379A000000000000000000000000000000000000000000000000000000000 DUP2 MSTORE PUSH1 0x4 ADD PUSH2 0x284 SWAP1 PUSH2 0x936 JUMP JUMPDEST PUSH1 0x40 MLOAD DUP1 SWAP2 SUB SWAP1 REVERT JUMPDEST PUSH1 0x3 PUSH0 SWAP1 SLOAD SWAP1 PUSH2 0x100 EXP SWAP1 DIV PUSH1 0xFF AND ISZERO PUSH1 0x3 PUSH0 PUSH2 0x100 EXP DUP2 SLOAD DUP2 PUSH1 0xFF MUL NOT AND SWAP1 DUP4 ISZERO ISZERO MUL OR SWAP1 SSTORE POP JUMP JUMPDEST PUSH0 SELFBALANCE SWAP1 POP SWAP1 JUMP JUMPDEST PUSH1 0x3 PUSH0 SWAP1 SLOAD SWAP1 PUSH2 0x100 EXP SWAP1 DIV PUSH1 0xFF AND DUP2 JUMP JUMPDEST PUSH1 0x3 PUSH0 SWAP1 SLOAD SWAP1 PUSH2 0x100 EXP SWAP1 DIV PUSH1 0xFF AND PUSH2 0x31E JUMPI PUSH1 0x40 MLOAD PUSH32 0x8C379A000000000000000000000000000000000000000000000000000000000 DUP2 MSTORE PUSH1 0x4 ADD PUSH2 0x315 SWAP1 PUSH2 0x9C4 JUMP JUMPDEST PUSH1 0x40 MLOAD DUP1 SWAP2 SUB SWAP1 REVERT JUMPDEST JUMP JUMPDEST PUSH1 0x1 SLOAD DUP2 JUMP JUMPDEST PUSH0 DUP1 PUSH0 SWAP1 SLOAD SWAP1 PUSH2 0x100 EXP SWAP1 DIV PUSH20 0xFFFFFFFFFFFFFFFFFFFFFFFFFFFFFFFFFFFFFFFF AND PUSH20 0xFFFFFFFFFFFFFFFFFFFFFFFFFFFFFFFFFFFFFFFF AND CALLER PUSH20 0xFFFFFFFFFFFFFFFFFFFFFFFFFFFFFFFFFFFFFFFF AND EQ PUSH2 0x3B5 JUMPI PUSH1 0x40 MLOAD PUSH32 0x8C379A000000000000000000000000000000000000000000000000000000000 DUP2 MSTORE PUSH1 0x4 ADD PUSH2 0x3AC SWAP1 PUSH2 0x936 JUMP JUMPDEST PUSH1 0x40 MLOAD DUP1 SWAP2 SUB SWAP1 REVERT JUMPDEST PUSH2 0x3BD PUSH2 0x2B7 JUMP JUMPDEST PUSH1 0x1 SLOAD GT ISZERO SWAP1 POP SWAP1 JUMP JUMPDEST PUSH0 DUP1 SLOAD SWAP1 PUSH2 0x100 EXP SWAP1 DIV PUSH20 0xFFFFFFFFFFFFFFFFFFFFFFFFFFFFFFFFFFFFFFFF AND DUP2 JUMP JUMPDEST PUSH1 0x2 DUP1 SLOAD PUSH2 0x3F7 SWAP1 PUSH2 0xA0F JUMP JUMPDEST DUP1 PUSH1 0x1F ADD PUSH1 0x20 DUP1 SWAP2 DIV MUL PUSH1 0x20 ADD PUSH1 0x40 MLOAD SWAP1 DUP2 ADD PUSH1 0x40 MSTORE DUP1 SWAP3 SWAP2 SWAP1 DUP2 DUP2 MSTORE PUSH1 0x20 ADD DUP3 DUP1 SLOAD PUSH2 0x423 SWAP1 PUSH2 0xA0F JUMP JUMPDEST DUP1 ISZERO PUSH2 0x46E JUMPI DUP1 PUSH1 0x1F LT PUSH2 0x445 JUMPI PUSH2 0x100 DUP1 DUP4 SLOAD DIV MUL DUP4 MSTORE SWAP2 PUSH1 0x20 ADD SWAP2 PUSH2 0x46E JUMP JUMPDEST DUP3 ADD SWAP2 SWAP1 PUSH0 MSTORE PUSH1 0x20 PUSH0 KECCAK256 SWAP1 JUMPDEST DUP2 SLOAD DUP2 MSTORE SWAP1 PUSH1 0x1 ADD SWAP1 PUSH1 0x20 ADD DUP1 DUP4 GT PUSH2 0x451 JUMPI DUP3 SWAP1 SUB PUSH1 0x1F AND DUP3 ADD SWAP2 JUMPDEST POP POP POP POP POP DUP2 JUMP JUMPDEST PUSH0 DUP1 SLOAD SWAP1 PUSH2 0x100 EXP SWAP1 DIV PUSH20 0xFFFFFFFFFFFFFFFFFFFFFFFFFFFFFFFFFFFFFFFF AND PUSH20 0xFFFFFFFFFFFFFFFFFFFFFFFFFFFFFFFFFFFFFFFF AND CALLER PUSH20 0xFFFFFFFFFFFFFFFFFFFFFFFFFFFFFFFFFFFFFFFF AND EQ PUSH2 0x503 JUMPI PUSH1 0x40 MLOAD PUSH32 0x8C379A000000000000000000000000000000000000000000000000000000000 DUP2 MSTORE PUSH1 0x4 ADD PUSH2 0x4FA SWAP1 PUSH2 0x936 JUMP JUMPDEST PUSH1 0x40 MLOAD DUP1 SWAP2 SUB SWAP1 REVERT JUMPDEST DUP1 PUSH1 0x2 SWAP1 DUP2 PUSH2 0x512 SWAP2 SWAP1 PUSH2 0xBDC JUMP JUMPDEST POP POP JUMP JUMPDEST PUSH0 DUP1 SLOAD SWAP1 PUSH2 0x100 EXP SWAP1 DIV PUSH20 0xFFFFFFFFFFFFFFFFFFFFFFFFFFFFFFFFFFFFFFFF AND PUSH20 0xFFFFFFFFFFFFFFFFFFFFFFFFFFFFFFFFFFFFFFFF AND CALLER PUSH20 0xFFFFFFFFFFFFFFFFFFFFFFFFFFFFFFFFFFFFFFFF AND EQ PUSH2 0x5A3 JUMPI PUSH1 0x40 MLOAD PUSH32 0x8C379A000000000000000000000000000000000000000000000000000000000 DUP2 MSTORE PUSH1 0x4 ADD PUSH2 0x59A SWAP1 PUSH2 0x936 JUMP JUMPDEST PUSH1 0x40 MLOAD DUP1 SWAP2 SUB SWAP1 REVERT JUMPDEST DUP1 PUSH1 0x1 DUP2 SWAP1 SSTORE POP POP JUMP JUMPDEST PUSH0 DUP2 SWAP1 POP SWAP2 SWAP1 POP JUMP JUMPDEST PUSH2 0x5BF DUP2 PUSH2 0x5AD JUMP JUMPDEST DUP3 MSTORE POP POP JUMP JUMPDEST PUSH0 PUSH1 0x20 DUP3 ADD SWAP1 POP PUSH2 0x5D8 PUSH0 DUP4 ADD DUP5 PUSH2 0x5B6 JUMP JUMPDEST SWAP3 SWAP2 POP POP JUMP JUMPDEST PUSH0 DUP2 ISZERO ISZERO SWAP1 POP SWAP2 SWAP1 POP JUMP JUMPDEST PUSH2 0x5F2 DUP2 PUSH2 0x5DE JUMP JUMPDEST DUP3 MSTORE POP POP JUMP JUMPDEST PUSH0 PUSH1 0x20 DUP3 ADD SWAP1 POP PUSH2 0x60B PUSH0 DUP4 ADD DUP5 PUSH2 0x5E9 JUMP JUMPDEST SWAP3 SWAP2 POP POP JUMP JUMPDEST PUSH0 PUSH20 0xFFFFFFFFFFFFFFFFFFFFFFFFFFFFFFFFFFFFFFFF DUP3 AND SWAP1 POP SWAP2 SWAP1 POP JUMP JUMPDEST PUSH0 PUSH2 0x63A DUP3 PUSH2 0x611 JUMP JUMPDEST SWAP1 POP SWAP2 SWAP1 POP JUMP JUMPDEST PUSH2 0x64A DUP2 PUSH2 0x630 JUMP JUMPDEST DUP3 MSTORE POP POP JUMP JUMPDEST PUSH0 PUSH1 0x20 DUP3 ADD SWAP1 POP PUSH2 0x663 PUSH0 DUP4 ADD DUP5 PUSH2 0x641 JUMP JUMPDEST SWAP3 SWAP2 POP POP JUMP JUMPDEST PUSH0 DUP2 MLOAD SWAP1 POP SWAP2 SWAP1 POP JUMP JUMPDEST PUSH0 DUP3 DUP3 MSTORE PUSH1 0x20 DUP3 ADD SWAP1 POP SWAP3 SWAP2 POP POP JUMP JUMPDEST PUSH0 JUMPDEST DUP4 DUP2 LT ISZERO PUSH2 0x6A0 JUMPI DUP1 DUP3 ADD MLOAD DUP2 DUP5 ADD MSTORE PUSH1 0x20 DUP2 ADD SWAP1 POP PUSH2 0x685 JUMP JUMPDEST PUSH0 DUP5 DUP5 ADD MSTORE POP POP POP POP JUMP JUMPDEST PUSH0 PUSH1 0x1F NOT PUSH1 0x1F DUP4 ADD AND SWAP1 POP SWAP2 SWAP1 POP JUMP JUMPDEST PUSH0 PUSH2 0x6C5 DUP3 PUSH2 0x669 JUMP JUMPDEST PUSH2 0x6CF DUP2 DUP6 PUSH2 0x673 JUMP JUMPDEST SWAP4 POP PUSH2 0x6DF DUP2 DUP6 PUSH1 0x20 DUP7 ADD PUSH2 0x683 JUMP JUMPDEST PUSH2 0x6E8 DUP2 PUSH2 0x6AB JUMP JUMPDEST DUP5 ADD SWAP2 POP POP SWAP3 SWAP2 POP POP JUMP JUMPDEST PUSH0 PUSH1 0x20 DUP3 ADD SWAP1 POP DUP2 DUP2 SUB PUSH0 DUP4 ADD MSTORE PUSH2 0x70B DUP2 DUP5 PUSH2 0x6BB JUMP JUMPDEST SWAP1 POP SWAP3 SWAP2 POP POP JUMP JUMPDEST PUSH0 PUSH1 0x40 MLOAD SWAP1 POP SWAP1 JUMP JUMPDEST PUSH0 DUP1 REVERT JUMPDEST PUSH0 DUP1 REVERT JUMPDEST PUSH0 DUP1 REVERT JUMPDEST PUSH0 DUP1 REVERT JUMPDEST PUSH32 0x4E487B7100000000000000000000000000000000000000000000000000000000 PUSH0 MSTORE PUSH1 0x41 PUSH1 0x4 MSTORE PUSH1 0x24 PUSH0 REVERT JUMPDEST PUSH2 0x762 DUP3 PUSH2 0x6AB JUMP JUMPDEST DUP2 ADD DUP2 DUP2 LT PUSH8 0xFFFFFFFFFFFFFFFF DUP3 GT OR ISZERO PUSH2 0x781 JUMPI PUSH2 0x780 PUSH2 0x72C JUMP JUMPDEST JUMPDEST DUP1 PUSH1 0x40 MSTORE POP POP POP JUMP JUMPDEST PUSH0 PUSH2 0x793 PUSH2 0x713 JUMP JUMPDEST SWAP1 POP PUSH2 0x79F DUP3 DUP3 PUSH2 0x759 JUMP JUMPDEST SWAP2 SWAP1 POP JUMP JUMPDEST PUSH0 PUSH8 0xFFFFFFFFFFFFFFFF DUP3 GT ISZERO PUSH2 0x7BE JUMPI PUSH2 0x7BD PUSH2 0x72C JUMP JUMPDEST JUMPDEST PUSH2 0x7C7 DUP3 PUSH2 0x6AB JUMP JUMPDEST SWAP1 POP PUSH1 0x20 DUP2 ADD SWAP1 POP SWAP2 SWAP1 POP JUMP JUMPDEST DUP3 DUP2 DUP4 CALLDATACOPY PUSH0 DUP4 DUP4 ADD MSTORE POP POP POP JUMP JUMPDEST PUSH0 PUSH2 0x7F4 PUSH2 0x7EF DUP5 PUSH2 0x7A4 JUMP JUMPDEST PUSH2 0x78A JUMP JUMPDEST SWAP1 POP DUP3 DUP2 MSTORE PUSH1 0x20 DUP2 ADD DUP5 DUP5 DUP5 ADD GT ISZERO PUSH2 0x810 JUMPI PUSH2 0x80F PUSH2 0x728 JUMP JUMPDEST JUMPDEST PUSH2 0x81B DUP5 DUP3 DUP6 PUSH2 0x7D4 JUMP JUMPDEST POP SWAP4 SWAP3 POP POP POP JUMP JUMPDEST PUSH0 DUP3 PUSH1 0x1F DUP4 ADD SLT PUSH2 0x837 JUMPI PUSH2 0x836 PUSH2 0x724 JUMP JUMPDEST JUMPDEST DUP2 CALLDATALOAD PUSH2 0x847 DUP5 DUP3 PUSH1 0x20 DUP7 ADD PUSH2 0x7E2 JUMP JUMPDEST SWAP2 POP POP SWAP3 SWAP2 POP POP JUMP JUMPDEST PUSH0 PUSH1 0x20 DUP3 DUP5 SUB SLT ISZERO PUSH2 0x865 JUMPI PUSH2 0x864 PUSH2 0x71C JUMP JUMPDEST JUMPDEST PUSH0 DUP3 ADD CALLDATALOAD PUSH8 0xFFFFFFFFFFFFFFFF DUP2 GT ISZERO PUSH2 0x882 JUMPI PUSH2 0x881 PUSH2 0x720 JUMP JUMPDEST JUMPDEST PUSH2 0x88E DUP5 DUP3 DUP6 ADD PUSH2 0x823 JUMP JUMPDEST SWAP2 POP POP SWAP3 SWAP2 POP POP JUMP JUMPDEST PUSH2 0x8A0 DUP2 PUSH2 0x5AD JUMP JUMPDEST DUP2 EQ PUSH2 0x8AA JUMPI PUSH0 DUP1 REVERT JUMPDEST POP JUMP JUMPDEST PUSH0 DUP2 CALLDATALOAD SWAP1 POP PUSH2 0x8BB DUP2 PUSH2 0x897 JUMP JUMPDEST SWAP3 SWAP2 POP POP JUMP JUMPDEST PUSH0 PUSH1 0x20 DUP3 DUP5 SUB SLT ISZERO PUSH2 0x8D6 JUMPI PUSH2 0x8D5 PUSH2 0x71C JUMP JUMPDEST JUMPDEST PUSH0 PUSH2 0x8E3 DUP5 DUP3 DUP6 ADD PUSH2 0x8AD JUMP JUMPDEST SWAP2 POP POP SWAP3 SWAP2 POP POP JUMP JUMPDEST PUSH32 0x4E6F206572657320656C206475656E696F2064656C20636F6E747261746F0000 PUSH0 DUP3 ADD MSTORE POP JUMP JUMPDEST PUSH0 PUSH2 0x920 PUSH1 0x1E DUP4 PUSH2 0x673 JUMP JUMPDEST SWAP2 POP PUSH2 0x92B DUP3 PUSH2 0x8EC JUMP JUMPDEST PUSH1 0x20 DUP3 ADD SWAP1 POP SWAP2 SWAP1 POP JUMP JUMPDEST PUSH0 PUSH1 0x20 DUP3 ADD SWAP1 POP DUP2 DUP2 SUB PUSH0 DUP4 ADD MSTORE PUSH2 0x94D DUP2 PUSH2 0x914 JUMP JUMPDEST SWAP1 POP SWAP2 SWAP1 POP JUMP JUMPDEST PUSH32 0x4E6F207075656465206861636572206465706F7369746F206120657374612061 PUSH0 DUP3 ADD MSTORE PUSH32 0x6C63616E63696100000000000000000000000000000000000000000000000000 PUSH1 0x20 DUP3 ADD MSTORE POP JUMP JUMPDEST PUSH0 PUSH2 0x9AE PUSH1 0x27 DUP4 PUSH2 0x673 JUMP JUMPDEST SWAP2 POP PUSH2 0x9B9 DUP3 PUSH2 0x954 JUMP JUMPDEST PUSH1 0x40 DUP3 ADD SWAP1 POP SWAP2 SWAP1 POP JUMP JUMPDEST PUSH0 PUSH1 0x20 DUP3 ADD SWAP1 POP DUP2 DUP2 SUB PUSH0 DUP4 ADD MSTORE PUSH2 0x9DB DUP2 PUSH2 0x9A2 JUMP JUMPDEST SWAP1 POP SWAP2 SWAP1 POP JUMP JUMPDEST PUSH32 0x4E487B7100000000000000000000000000000000000000000000000000000000 PUSH0 MSTORE PUSH1 0x22 PUSH1 0x4 MSTORE PUSH1 0x24 PUSH0 REVERT JUMPDEST PUSH0 PUSH1 0x2 DUP3 DIV SWAP1 POP PUSH1 0x1 DUP3 AND DUP1 PUSH2 0xA26 JUMPI PUSH1 0x7F DUP3 AND SWAP2 POP JUMPDEST PUSH1 0x20 DUP3 LT DUP2 SUB PUSH2 0xA39 JUMPI PUSH2 0xA38 PUSH2 0x9E2 JUMP JUMPDEST JUMPDEST POP SWAP2 SWAP1 POP JUMP JUMPDEST PUSH0 DUP2 SWAP1 POP DUP2 PUSH0 MSTORE PUSH1 0x20 PUSH0 KECCAK256 SWAP1 POP SWAP2 SWAP1 POP JUMP JUMPDEST PUSH0 PUSH1 0x20 PUSH1 0x1F DUP4 ADD DIV SWAP1 POP SWAP2 SWAP1 POP JUMP JUMPDEST PUSH0 DUP3 DUP3 SHL SWAP1 POP SWAP3 SWAP2 POP POP JUMP JUMPDEST PUSH0 PUSH1 0x8 DUP4 MUL PUSH2 0xA9B PUSH32 0xFFFFFFFFFFFFFFFFFFFFFFFFFFFFFFFFFFFFFFFFFFFFFFFFFFFFFFFFFFFFFFFF DUP3 PUSH2 0xA60 JUMP JUMPDEST PUSH2 0xAA5 DUP7 DUP4 PUSH2 0xA60 JUMP JUMPDEST SWAP6 POP DUP1 NOT DUP5 AND SWAP4 POP DUP1 DUP7 AND DUP5 OR SWAP3 POP POP POP SWAP4 SWAP3 POP POP POP JUMP JUMPDEST PUSH0 DUP2 SWAP1 POP SWAP2 SWAP1 POP JUMP JUMPDEST PUSH0 PUSH2 0xAE0 PUSH2 0xADB PUSH2 0xAD6 DUP5 PUSH2 0x5AD JUMP JUMPDEST PUSH2 0xABD JUMP JUMPDEST PUSH2 0x5AD JUMP JUMPDEST SWAP1 POP SWAP2 SWAP1 POP JUMP JUMPDEST PUSH0 DUP2 SWAP1 POP SWAP2 SWAP1 POP JUMP JUMPDEST PUSH2 0xAF9 DUP4 PUSH2 0xAC6 JUMP JUMPDEST PUSH2 0xB0D PUSH2 0xB05 DUP3 PUSH2 0xAE7 JUMP JUMPDEST DUP5 DUP5 SLOAD PUSH2 0xA6C JUMP JUMPDEST DUP3 SSTORE POP POP POP POP JUMP JUMPDEST PUSH0 SWAP1 JUMP JUMPDEST PUSH2 0xB21 PUSH2 0xB15 JUMP JUMPDEST PUSH2 0xB2C DUP2 DUP5 DUP5 PUSH2 0xAF0 JUMP JUMPDEST POP POP POP JUMP JUMPDEST JUMPDEST DUP2 DUP2 LT ISZERO PUSH2 0xB4F JUMPI PUSH2 0xB44 PUSH0 DUP3 PUSH2 0xB19 JUMP JUMPDEST PUSH1 0x1 DUP2 ADD SWAP1 POP PUSH2 0xB32 JUMP JUMPDEST POP POP JUMP JUMPDEST PUSH1 0x1F DUP3 GT ISZERO PUSH2 0xB94 JUMPI PUSH2 0xB65 DUP2 PUSH2 0xA3F JUMP JUMPDEST PUSH2 0xB6E DUP5 PUSH2 0xA51 JUMP JUMPDEST DUP2 ADD PUSH1 0x20 DUP6 LT ISZERO PUSH2 0xB7D JUMPI DUP2 SWAP1 POP JUMPDEST PUSH2 0xB91 PUSH2 0xB89 DUP6 PUSH2 0xA51 JUMP JUMPDEST DUP4 ADD DUP3 PUSH2 0xB31 JUMP JUMPDEST POP POP JUMPDEST POP POP POP JUMP JUMPDEST PUSH0 DUP3 DUP3 SHR SWAP1 POP SWAP3 SWAP2 POP POP JUMP JUMPDEST PUSH0 PUSH2 0xBB4 PUSH0 NOT DUP5 PUSH1 0x8 MUL PUSH2 0xB99 JUMP JUMPDEST NOT DUP1 DUP4 AND SWAP2 POP POP SWAP3 SWAP2 POP POP JUMP JUMPDEST PUSH0 PUSH2 0xBCC DUP4 DUP4 PUSH2 0xBA5 JUMP JUMPDEST SWAP2 POP DUP3 PUSH1 0x2 MUL DUP3 OR SWAP1 POP SWAP3 SWAP2 POP POP JUMP JUMPDEST PUSH2 0xBE5 DUP3 PUSH2 0x669 JUMP JUMPDEST PUSH8 0xFFFFFFFFFFFFFFFF DUP2 GT ISZERO PUSH2 0xBFE JUMPI PUSH2 0xBFD PUSH2 0x72C JUMP JUMPDEST JUMPDEST PUSH2 0xC08 DUP3 SLOAD PUSH2 0xA0F JUMP JUMPDEST PUSH2 0xC13 DUP3 DUP3 DUP6 PUSH2 0xB53 JUMP JUMPDEST PUSH0 PUSH1 0x20 SWAP1 POP PUSH1 0x1F DUP4 GT PUSH1 0x1 DUP2 EQ PUSH2 0xC44 JUMPI PUSH0 DUP5 ISZERO PUSH2 0xC32 JUMPI DUP3 DUP8 ADD MLOAD SWAP1 POP JUMPDEST PUSH2 0xC3C DUP6 DUP3 PUSH2 0xBC1 JUMP JUMPDEST DUP7 SSTORE POP PUSH2 0xCA3 JUMP JUMPDEST PUSH1 0x1F NOT DUP5 AND PUSH2 0xC52 DUP7 PUSH2 0xA3F JUMP JUMPDEST PUSH0 JUMPDEST DUP3 DUP2 LT ISZERO PUSH2 0xC79 JUMPI DUP5 DUP10 ADD MLOAD DUP3 SSTORE PUSH1 0x1 DUP3 ADD SWAP2 POP PUSH1 0x20 DUP6 ADD SWAP5 POP PUSH1 0x20 DUP2 ADD SWAP1 POP PUSH2 0xC54 JUMP JUMPDEST DUP7 DUP4 LT ISZERO PUSH2 0xC96 JUMPI DUP5 DUP10 ADD MLOAD PUSH2 0xC92 PUSH1 0x1F DUP10 AND DUP3 PUSH2 0xBA5 JUMP JUMPDEST DUP4 SSTORE POP JUMPDEST PUSH1 0x1 PUSH1 0x2 DUP9 MUL ADD DUP9 SSTORE POP POP POP JUMPDEST POP POP POP POP POP POP JUMP INVALID LOG2 PUSH5 0x6970667358 0x22 SLT KECCAK256 PUSH3 0xFF22F1 0xED 0x29 0xC 0xC2 0xE9 0x1F PUSH0 LOG0 0xDF 0xEF SWAP15 MLOAD 0xE3 JUMPI GAS 0xF9 PUSH7 0xF70C656BA3BFD7 SWAP9 PUSH5 0x886164736F PUSH13 0x634300081A0033000000000000 "
				},
				"gasEstimates": {
					"creation": {
						"codeDepositCost": "659400",
						"executionCost": "infinite",
						"totalCost": "infinite"
					},
					"external": {
						"alcanciaAbierta()": "2511",
						"cambiarEstadoAlcancia()": "28714",
						"cambiarNombreAlcancia(string)": "infinite",
						"cambiarObjetivo(uint256)": "24769",
						"cantidadObjetivo()": "2514",
						"comprobarObjetivoAlcanzado()": "4652",
						"depositarFondos()": "2640",
						"nombreAlcancia()": "infinite",
						"obtenerBalance()": "357",
						"owner()": "2527"
					}
				},
				"methodIdentifiers": {
					"alcanciaAbierta()": "305954b6",
					"cambiarEstadoAlcancia()": "06a3e4e6",
					"cambiarNombreAlcancia(string)": "b3718174",
					"cambiarObjetivo(uint256)": "bc167263",
					"cantidadObjetivo()": "78340e57",
					"comprobarObjetivoAlcanzado()": "88426468",
					"depositarFondos()": "3ec47542",
					"nombreAlcancia()": "aba46a5f",
					"obtenerBalance()": "22d9a1ee",
					"owner()": "8da5cb5b"
				}
			},
			"storageLayout": {
				"storage": [
					{
						"astId": 3,
						"contract": "contracts/Alncancia.sol:AlcanciaDigital",
						"label": "owner",
						"offset": 0,
						"slot": "0",
						"type": "t_address"
					},
					{
						"astId": 5,
						"contract": "contracts/Alncancia.sol:AlcanciaDigital",
						"label": "cantidadObjetivo",
						"offset": 0,
						"slot": "1",
						"type": "t_uint256"
					},
					{
						"astId": 7,
						"contract": "contracts/Alncancia.sol:AlcanciaDigital",
						"label": "nombreAlcancia",
						"offset": 0,
						"slot": "2",
						"type": "t_string_storage"
					},
					{
						"astId": 9,
						"contract": "contracts/Alncancia.sol:AlcanciaDigital",
						"label": "alcanciaAbierta",
						"offset": 0,
						"slot": "3",
						"type": "t_bool"
					}
				],
				"types": {
					"t_address": {
						"encoding": "inplace",
						"label": "address",
						"numberOfBytes": "20"
					},
					"t_bool": {
						"encoding": "inplace",
						"label": "bool",
						"numberOfBytes": "1"
					},
					"t_string_storage": {
						"encoding": "bytes",
						"label": "string",
						"numberOfBytes": "32"
					},
					"t_uint256": {
						"encoding": "inplace",
						"label": "uint256",
						"numberOfBytes": "32"
					}
				}
			},
			"userdoc": {
				"kind": "user",
				"methods": {},
				"version": 1
			}
		}
	}
}